:020000040800F2
:10000000D82100209D010008B50900084509000815
:10001000B1090008210800083B0E0008000000009C
:100020000000000000000000000000001D0B0008A0
:1000300025080008000000003B020008090C000829
:10004000B7010008B7010008B7010008B7010008B0
:10005000B7010008B7010008B7010008B7010008A0
:10006000B7010008B7010008B7010008B701000890
:10007000B7010008B7010008B7010008B701000880
:10008000B7010008B7010008B7010008B701000870
:10009000B7010008B7010008B7010008B701000860
:1000A000B7010008B7010008B7010008B701000850
:1000B000B7010008B7010008B7010008B701000840
:1000C000B7010008B7010008B7010008B701000830
:1000D000B7010008790C0008B7010008B701000853
:1000E000B7010008B7010008B701000800F002F8E6
:1000F00000F045F80AA090E8000C82448344AAF17D
:100100000107DA4501D100F03AF8AFF2090EBAE87A
:100110000F0013F0010F18BFFB1A43F0010318473B
:100120001421000034210000103A24BF78C878C19F
:10013000FAD8520724BF30C830C144BF04680C60ED
:10014000704700000023002400250026103A28BF35
:1001500078C1FBD8520728BF30C148BF0B60704739
:10016000642900F0F180632900F09482732900F083
:100170009982002070471FB51FBD10B510BD00F05B
:100180001DFB1146FFF7F7FF01F070FC00F03BFB91
:1001900003B4FFF7F2FF03BC00F09EFE094880475E
:1001A00009480047FEE7FEE7FEE7FEE7FEE7FEE759
:1001B000FEE7FEE7FEE7FEE704480549054A064B71
:1001C00070470000190C0008ED000008D81B002043
:1001D000D8210020D81D0020D81D0020EFF310806A
:1001E00072B6704780F3108870472349086023492E
:1001F0004FF00000086022494FF0010008602148DC
:100200004FF47F01D0F8002041EA020101601E484E
:100210004FF08051016061B662B6194A1368012B34
:1002200004D04FF001031360144A1060124A1160A9
:1002300015484FF0805101607047EFF3108272B69D
:100240000F48016891B14FF0000101600B4801684F
:1002500029B1EFF3098121E9F00F00680160064937
:1002600009680968B1E8F00F81F3098882F3108802
:100270004EF0040E704700003800002034000020CB
:100280003C00002020ED00E004ED00E0704700009D
:100290000FB4044910B503AA029800F007FA10BC85
:1002A0005DF814FB2C00002070B5044685690068D9
:1002B000C10601D5302600E02026C00707D070BD5A
:1002C000D4E9012130469047206A401C20626D1E0F
:1002D000F6D570BD70B5044685690078C00707D1B2
:1002E00070BDD4E9012120209047206A401C206283
:1002F0006D1EF6D570BD70B50C460546012A05D0B9
:100300002878800600D5EA69002302E0012305E091
:100310005B1C934202D2E05C0028F9D1A869E61880
:10032000C01AA861286A184428622846FFF7BCFF53
:1003300004E0D5E9012114F8010B9047B442F8D349
:100340002846FFF7C7FF70BD2DE9F041064600249F
:1003500010687529314616A510D0AFF3008000282B
:1003600002DA404213A507E031688A0701D512A5D9
:1003700002E0490704D511A5012401E0AFF3008094
:1003800000210A2206F1240709E0B0FBF2FCB0FBD1
:10039000F2F302FB1C00303078541846491C002848
:1003A000F3D123462A463046BDE8F04100F00FB9AC
:1003B000000000002D0000002B00000020000000C5
:1003C0002DE9F05F894604464FF0000ADFF824B1BA
:1003D000FB44C0F820A02046E168884700287DD073
:1003E000252806D0D4E901219047206A401C2062CC
:1003F000F1E700255F462046E16888472028064649
:1004000007DB312E05D2B81910F8200C08B10543CE
:10041000F1E7A80701D525F00405C4F81CA00027C2
:10042000C4F818A02A2E09D0304600F016FD38B3C3
:1004300004EB8708303EC8F8186019E059F8041B2F
:10044000204604EB87029161E1688847012F064648
:1004500018D1E069002820DA25F020051DE0D8F841
:10046000180000EB800006EB40003038C8F8180098
:100470002046E1688847064600F0EFFC0028EED1F0
:10048000012F0AD02E2E08D12046E16888477F1C14
:100490000646022F45F02005C4DBA069002803DAD8
:1004A000404245F00105A061E80701D025F01005A4
:1004B000A6B1A6F14100192802D8203645F40065FE
:1004C0004A463146204625604D46FFF749FE60B159
:1004D000012807D0ED1D25F0070000E007E000F13E
:1004E000080978E705F1040975E730467AE7206ADC
:1004F000BDE8F09F4C1E0000032A40F2308010F04F
:10050000030C00F0158011F8013BBCF1020F6244AE
:1005100098BF11F801CB00F8013B38BF11F8013B3F
:10052000A2F1040298BF00F801CB38BF00F8013BEC
:1005300011F0030300F0CC80083AC0F0088051F8B5
:10054000043B083A51F804CBA0E80810F5E7121D67
:100550005CBF51F8043B40F8043BAFF30080D20786
:1005600024BF11F8013B11F801CB48BF11F8012B52
:1005700024BF00F8013B00F801CB48BF00F8012B75
:1005800070474FF000020429C0F0128010F0030CF5
:1005900000F0D280CCF1040CBCF1020F18BF00F8BF
:1005A000012BA8BF20F8022BA1EB0C0100F0C4B86E
:1005B0005FEAC17C24BF00F8012B00F8012B48BF83
:1005C00000F8012B704770477047704770472DE95E
:1005D000F0470D4699469246044600F1240801680A
:1005E000880604D5E06921F01001216000E00120B7
:1005F000A84201DD471B00E00027A1697A1902EB40
:100600000900081AA0612078C00602D42046FFF72E
:100610004BFE002608E0D4E901211AF806009047B5
:10062000206A401C761C20624E45F4DB2078C00610
:100630000AD52046FFF738FE06E0D4E90121302034
:100640009047206A401C2062381EA7F10107F4DCA5
:1006500007E0D4E9012118F805009047206A401C02
:100660002062281EA5F10105F3DC2046FFF732FECB
:100670002078000602D50220BDE8F0870120FBE7C4
:1006800010B5436913B1AFF3008001E0FFF733FE0B
:10069000012010BD127800F124010A7000224A7076
:1006A0000122EDE711684FF0FF32E9E7074B70B523
:1006B0000D467B4400F06BF80446284600F07AF8BB
:1006C00010B14FF0FF3070BD204670BDB70A00007A
:1006D00010B5203AC0F00B80B1E81850203AA0E8DD
:1006E0001850B1E81850A0E81850BFF4F5AF5FEA11
:1006F000027C24BFB1E81850A0E8185044BF18C9C4
:1007000018C0BDE810405FEA827C24BF51F8043B6A
:1007100040F8043B08BF7047D20728BF31F8023BBE
:1007200048BF11F8012B28BF20F8023B48BF00F852
:10073000012B70474FF0000200B5134694469646D1
:10074000203922BFA0E80C50A0E80C50B1F12001E4
:10075000BFF4F7AF090728BFA0E80C5048BF0CC092
:100760005DF804EB890028BF40F8042B08BF7047F0
:1007700048BF20F8022B11F0804F18BF00F8012B62
:100780007047000001694A1C02610878704700B593
:100790008FB0CDE901310021059105497944CDE9BA
:1007A000031011466846FFF70BFE0FB000BD0000B6
:1007B000E5FFFFFF007B00F080007047754600F00A
:1007C0002BF8AE4605006946534620F007008546E3
:1007D00018B020B5FFF7F0FCBDE820404FF0000650
:1007E0004FF000074FF000084FF0000B21F0070119
:1007F000AC46ACE8C009ACE8C009ACE8C009ACE85C
:10080000C0098D46704710B50446AFF300802046FE
:10081000BDE81040FFF7BCBC00487047781B0020C3
:1008200000BFFEE770472DE9F04102460025002693
:10083000002000230024002791F803C00CF00F05CE
:1008400091F803C00CF0100CBCF1000F03D091F82C
:1008500002C04CEA050591F800C0BCF1000F31D090
:10086000146800202BE04FF0010C0CFA00F3B1F8F3
:1008700000C00CEA03069E4220D183004FF00F0C0B
:100880000CFA03F7BC4305FA03FC4CEA040491F8A4
:1008900003C0BCF1280F06D14FF0010C0CFA00FC8C
:1008A000C2F814C00AE091F803C0BCF1480F05D1AA
:1008B0004FF0010C0CFA00FCC2F810C0401C0828D4
:1008C000D1D31460B1F800C0BCF1FF0F34DD54681F
:1008D00000202EE000F1080C4FF0010808FA0CF39C
:1008E000B1F800C00CEA03069E4221D183004FF00C
:1008F0000F0C0CFA03F7BC4305FA03FC4CEA0404A2
:1009000091F803C0BCF1280F05D100F1080C08FADA
:100910000CF8C2F8148091F803C0BCF1480F07D15D
:1009200000F1080C4FF0010808FA0CF8C2F810802A
:10093000401C0828CED35460BDE8F0814161704767
:100940000161704700BFFEE708B50121082000F0F3
:100950006BF84FF2C010ADF8000010208DF80300C6
:1009600003208DF8020069460F48FFF75CFF4FF245
:10097000C0110D48FFF7E2FF0121042000F054F8F8
:1009800040F67F70ADF8000010208DF803000320C2
:100990008DF8020069460548FFF745FF40F67F7174
:1009A0000248FFF7CBFF08BD000C014000080140E2
:1009B00000BFFEE77047000070B5002100230F2242
:1009C000C47804B3154C246804F4E064C4F5E0640E
:1009D000210AC1F10403CA40447804FA03F184787F
:1009E0001440214309010E4C0678A155047804F007
:1009F0001F050124AC4005786D11AD0005F1E0251F
:100A0000C5F8004109E0047804F01F050124AC405A
:100A1000044D0678761145F8264070BD0CED00E0D7
:100A200000E400E080E100E029B1064A9269024357
:100A3000044B9A6104E0034A92698243014B9A6134
:100A4000704700000010024030B500210022002451
:100A500000232D4D6D6805F00C0121B1042905D04E
:100A6000082923D105E0294D056022E0274D0560C6
:100A70001FE0254D6D6805F47012234D6D6805F477
:100A80008034022505EB92421CB9214D5543056087
:100A90000BE01D4D6D6805F400351DB11C4D55432F
:100AA000056002E0194D5543056002E0174D0560F1
:100AB00000BF00BF144D6D6805F0F0010909154D28
:100AC0006B5C0568DD4045600F4D6D6805F4E061C5
:100AD000090A104D6B5C4568DD4085600A4D6D6804
:100AE00005F46051C90A0B4D6B5C4568DD40C5607B
:100AF000054D6D6805F44041890B074D6B5CC56879
:100B0000B5FBF3F5056130BD0010024000127A001C
:100B100000093D001800002028000020704710B593
:100B200000F002F810BD00000CB50020019000900C
:100B30003348006840F480303149086000BF3048D5
:100B4000006800F4003000900198401C019000986B
:100B500018B90198B0F5A06FF1D12948006800F4E8
:100B6000003010B10120009001E0002000900098BA
:100B7000012843D12348006840F010002149086053
:100B80000846006820F0030008600846006840F04E
:100B9000020008601A4840681949486008464068E1
:100BA00048600846406840F48060486008464068F5
:100BB00020F47C1048600846406840F4E810486023
:100BC0000846006840F08070086000BF0C4800686C
:100BD00000F000700028F9D00948406820F00300B8
:100BE000074948600846406840F00200486000BF7E
:100BF0000348406800F00C000828F9D10CBD000043
:100C0000001002400020024010B500F0DDFA00F0B4
:100C1000E1FD00F0E9FA10BD10B51348006840F09E
:100C200001001149086008464068104908400E4913
:100C30004860084600680E4908400B4908600846AD
:100C4000006820F4802008600846406820F4FE0018
:100C500048604FF41F008860FFF761FF4FF00060AD
:100C60000449086010BD0000001002400000FFF8B9
:100C7000FFFFF6FE08ED00E010B540F225510648F2
:100C800000F01AF838B1044800F0D2F8C4B2214696
:100C9000024800F026FB10BD00380140A41A0020D5
:100CA00021B1828942F40052828104E082894DF6AA
:100CB000FF731A408281704770B5024600240023FA
:100CC0000025002040F66A16B14200D100BFC1F3F2
:100CD000421501F01F03012606FA03F3012D02D18C
:100CE0009689334006E0022D02D1168A334001E096
:100CF000968A33400C12012606FA04F41688344012
:100D000013B10CB1012000E0002070BDF0B5034626
:100D1000002400260025002040F66A17B94200D1C1
:100D200000BF1846C1F3421401F01F06012707FA5D
:100D300006F5012C01D10C3004E0022C01D1103059
:100D400000E014301AB107682F43076002E007681B
:100D5000AF430760F0BD00002DE9F04786B00546BF
:100D60000E460024A24600BFA1460027B08900B16C
:100D700000BF2F462C8A4CF6FF700440F0880443D5
:100D80002C82AC894EF6F3100440B08831890843B8
:100D9000718908430443AC81AC8A4FF6FF4004409C
:100DA000B0890443AC8201A8FFF74EFE1F4887427A
:100DB00002D1DDF810A001E0DDF80CA0A88900F454
:100DC000004040B10AEBCA0000EB0A10316849004C
:100DD000B0FBF1F807E00AEBCA0000EB0A1031683B
:100DE0008900B0FBF1F86420B8FBF0F004012009A1
:100DF000642101FB1089A88900F4004040B1322031
:100E000000EBC900B0FBF1F000F00700044308E07C
:100E1000322000EB09106421B0FBF1F000F00F006C
:100E200004432C8106B0BDE8F08700000038014083
:100E300001468888C0F30800704700BFFEE70146FE
:100E400009B900207047002201E04910521C01F04E
:100E500001000028F9D01046F4E730380A2801D202
:100E600001207047002070472DE9F04704460E46E8
:100E700017469846DDF8209084F80990607A20F0B3
:100E800001006072E66127620020A062C4F824803D
:100E9000002506E004F1140101EBC50000F0B4F9EF
:100EA0006D1C012DF6DBBDE8F08710B50246002071
:100EB00001460EE002F1140303EBC100D0E9004348
:100EC0006360D0E9003423604060006000BF481CCC
:100ED00001460129EEDB10BD014600BF704700004E
:100EE00010B5044601A0FFF7D3F910BD1B5B324AD1
:100EF0001B5B480010B5044606A0FFF7C9F911A016
:100F0000FFF7C6F91DA0FFF7C3F928A0FFF7C0F946
:100F100010BD0000707320202020202020202020E1
:100F200020202020092D4C6973742074687265613B
:100F3000647320696E207468652073797374656DBD
:100F40000D0A000076657273696F6E2020202020E4
:100F500020202020092D73686F77204B592D54686D
:100F6000726561642076657273696F6E20696E6662
:100F70006F726D6174696F6E0D0A0000636C65615C
:100F80007220202020202020202009092D636C655C
:100F9000617220746865207465726D696E616C2081
:100FA00073637265656E0D0A000000007265626F02
:100FB0006F7420202020202020202009092D526538
:100FC000626F6F742053797374656D0D0A000000B1
:100FD00030B50F4C0F4D2D6804EB051420600C4C00
:100FE0000C4D2D6804EB05146160094C094D2D680A
:100FF00004EB0514A260064C064D2D6804EB0514A5
:10100000E360044C2468641C024D2C6030BD000079
:10101000680D00206800002070B5054627A0FFF786
:1010200037F92CA0FFF734F9002441E02F4850F89D
:10103000240090F838202D4850F8240001682CA096
:10104000FFF726F9294850F8240090F844000128B9
:1010500003D12AA0FFF71CF929E0244850F8240006
:1010600090F84400032803D126A0FFF711F91EE0F1
:101070001E4850F8240090F84400022803D124A010
:10108000FFF706F913E0194850F8240090F84400DF
:1010900018B922A0FFF7FCF809E0144850F8240022
:1010A00090F84400042802D11EA0FFF7F1F8641C58
:1010B0001E4800688442B9D370BD00007468726530
:1010C000616420202020707269202073746174751F
:1010D000730D0A002D2D2D2D2D2D2D2D20202D2D84
:1010E0002D20202D2D2D2D2D2D0D0A0058050020F1
:1010F000252D38732020252D35640000726561642C
:10110000790D0A0072756E6E696E670D0A00000037
:1011100073757370656E640D0A000000696E697402
:101120000D0A0000636C6F73650D0A00400000201B
:10113000012080F3138800BF00BF0748006800F457
:10114000E06006490843001D03490860BFF34F8F64
:1011500000BF00BFFEE700000CED00E00000FA0554
:1011600010B5044600F048FF10BD000000BF054A5E
:10117000128802F04002002AF9D0C2B2014B1B1DB6
:101180001A8070470038014070B503460C4615467A
:10119000681C20F0070040380146002203E0094E99
:1011A00041F82260521C102AF9D30C6200264E62CC
:1011B0008E62CE620E634E638B634FF08076CE6399
:1011C00070BD0000EFBEADDE10B5FFF707F80446B6
:1011D00004480078401C034908702046FFF702F8D5
:1011E00010BD00005800002010B5FEF7F7FF0446C0
:1011F00004480078401E034908702046FEF7F2FFBD
:1012000010BD000058000020406000607047D0E929
:1012100000215160D0E90012116040600060704709
:1012200070B50C46014623468B4210D29D188D4264
:101230000DD91144134405E05D1E2B462E784D1E3A
:1012400029462E70151EA2F10102F5D108E003E037
:1012500013F8015B01F8015B151EA2F10102F7D141
:1012600070BD02469388106800EB53000078087048
:10127000B2F90800401E9388B0EB530F05D100234C
:10128000908863F34F00908007E09088012303EB80
:101290005000938860F34F0393800120704710B58E
:1012A000838823F001038380C38823F00103C38074
:1012B0000024838864F34F038380C38864F34F035F
:1012C000C380016022F00303038110BD0146C8887A
:1012D00040088A88B0EB520F01D1012070470020EE
:1012E000FCE70246D388106800EB53000170B2F9A6
:1012F0000800401ED388B0EB530F05D10023D088DF
:1013000063F34F00D08007E0D088012303EB500047
:10131000D38860F34F03D380012070472DE9F0415B
:10132000FEF75CFF074611480068FFF788FD054699
:101330000F4850F83500A0F110040E4800688442B0
:101340000ED00D490D700B480668046004F11801B9
:1013500006F11800FEF761FF3846FEF743FF02E092
:101360003846FEF73FFFBDE8F08100004400002052
:10137000800500204C0000204800002070B5044685
:10138000FEF72CFF0546012084F8440094F838202D
:101390000A4B03EBC20004F11001086042684A6086
:1013A00042681160416000BF0549E06B096808436D
:1013B000034908602846FEF715FF70BD8005002030
:1013C0004400002070B50446FEF708FF054604F10E
:1013D0001000D0E900215160D0E900121160406096
:1013E000006000BF94F83810094A02EBC1000168A0
:1013F000814201D1012100E0002129B10548E16BC2
:1014000000688843034908602846FEF7EBFE70BD7C
:1014100080050020440000201FB500F03DFEC822DA
:101420000A490B48FFF73BFF0A204FF48062094B43
:10143000CDE90120009303900023074A07A1094842
:1014400000F0C6F8074800F049F91FBDB01A0020A7
:10145000A41A002068090020291C00087368656C24
:101460006C000000F4080020024605E0521C491CF4
:10147000107808B90120704710780B789842F5D0A1
:101480000020F8E70146002000E0401C11F8013B75
:10149000002BFAD1704770B50346A2B118460C462E
:1014A00000BF14F8016B00F8016B3EB902E00025A3
:1014B00000F8015B551E2A1EF9D102E0551E2A1EB6
:1014C000EFD100BF00BF184670BD000000200146EC
:1014D00007E0094A02EBC1004060006000BF481C01
:1014E00001462029F5DB1F20044A10700020044A21
:1014F0001060044A106070478005002048000020FA
:101500004C0000204400002070B508480068FFF738
:1015100096FC0546064850F83500A0F11004054831
:10152000046004F11800FEF760FE70BD4400002066
:10153000800500204C00002010B5002405E004497F
:1015400001EBC400FFF760FE641C002CF7D010BD57
:101550005C00002010B50446204600F0A3F810BD42
:1015600010B504462046FFF7F5FF10BD10B5044640
:101570004FF47A7104FB01F0FFF7F2FF10BD000099
:1015800000BF04E002490968491C014A1160F9E7FB
:10159000500000201FB502201F210202074BCDE999
:1015A0000032CDE902100023054A06A1074800F0E9
:1015B0000FF8064800F092F81FBD000080060020DA
:1015C0008115000869646C65000000008008002037
:1015D0002DE9FC5F04460D4616461F46DDE90CABBF
:1015E000DDE90E891C481D49096840F821401B4867
:1015F0000068401C1949086004F110004060006058
:1016000000BF2560E6612762C4F824A0C4F828B0B2
:10161000D4E9093C63441A1FD4E90701FFF7B4FD7C
:10162000A06184F8398084F838800020E063206469
:1016300084F84400C4F82C90C4F8309060630090A3
:1016400001902346064A04F14800216800F038F969
:101650000020BDE8FC9F000058050020400000204D
:101660004317000870B5044694F8440000F00F00DA
:10167000022802D04FF0FF3070BDFEF7AFFD0546E7
:1016800004F11000FFF7C3FD2846FEF7ABFD20462E
:10169000FFF774FE0020EFE7014800687047000084
:1016A0004C00002031B5FEF799FD05460A48046854
:1016B000204600F029F86A46002104F1480000F0B5
:1016C000E3F804F1480000F00DF92846FEF78AFD22
:1016D000FFF724FE38BD00004C00002010B5044682
:1016E00038346078207021780120884060600220C2
:1016F0002073383C2046FFF7B5FFFFF7CDFF08B158
:10170000FFF70CFE002010BD70B5044694F84400AD
:1017100000F00F00012802D04FF0FF3070BDFEF73F
:101720005DFD0546022084F844002046FFF74AFE8E
:1017300004F1480000F040F92846FEF753FD002070
:10174000ECE770B5044625466FF00100286405F10A
:101750001000FFF75CFD2846FFF710FEFFF7DEFDE7
:1017600070BD000070B5FEF739FD054614480468E9
:1017700094F8440000F00F0001281CD1D4E90410B3
:10178000814218D004F11000FFF741FD94F8382091
:101790000C4B03EBC20004F11001086042684A6080
:1017A00042681160416000BF2846FEF71BFDFFF74D
:1017B000B5FD002070BD2846FEF714FD0020F9E7B6
:1017C0004C000020800500200148006870470000A0
:1017D0005400002010B50A480068401C0849086001
:1017E000FFF75AFF0446206B401E2063206B18B998
:1017F000E06A2063FFF7B6FF00F004F810BD0000B8
:101800005400002070B5FFF7DFFF0546FEF7E6FC49
:10181000064628E01B480068A0F11404A06A281AB4
:101820006FF0004188421DD22046FFF73EFBD4E90D
:1018300007108847FFF7C8FF0546607A00F00200EE
:1018400058B1607A00F0010038B1607A20F00100F0
:101850006072204600F046F805E0607A20F0010052
:10186000607200E008E007480168814201D101216F
:1018700000E000210029CDD000BF3046FEF7B2FCC9
:1018800070BD00005C000020034649B1012904D06E
:10189000022908D0032910D10AE0586A10600CE030
:1018A0001068586209E0587A20F00200587204E08B
:1018B000587A40F00200587200BF00BF0020704705
:1018C0002DE9F8430646894614461D46DDE90878A9
:1018D0003B462A4621463046CDF80080FFF7C4FA41
:1018E000BDE8F8832DE9F84305460024FEF776FCB1
:1018F00007462846FFF7D9FA687A20F00100687297
:101900003846FEF76FFCFFF75FFF696A0844A8627C
:10191000FEF764FC0746264E009600BF2AE019E059
:101920005DF824201168142202EBC402881A826A2E
:10193000AB6AD21A00D108E0826AAB6AD21A6FF0A1
:1019400000439A4200D20CE000BF5DF8240000681A
:101950004DF824005DF8240006EBC4014968884274
:10196000DED100BF2CB15DF824000830611C4DF8B9
:101970002100641C002CD2D00E480068401C0D4988
:1019800008600846D0F8008005F11401009802684C
:101990000A60486002685160016000BF687A40F0E8
:1019A000010068723846FEF71DFC0020BDE8F88390
:1019B0005C0000206400002070B50446607A00F0EE
:1019C000010010B94FF0FF3070BDFEF707FC05466F
:1019D0002046FFF76AFA2846FEF704FC607A20F0FA
:1019E000010060720020EFE770B5FEF7ADFF4FF425
:1019F000165000F0C5FB00F0FFFAFEF7EFFB1848A9
:101A000000684FF47A72B0FBF2F1B1F1807F00D33D
:101A10001DE021F07F40401E4FF0E0225061501742
:101A20000F22002807DA13071D0E0E4B00F00F04DB
:101A3000241F1D5503E013071C0E0B4B1C5400BF45
:101A400000204FF0E02290610720106100BFFFF7F7
:101A500073FDFFF73BFDFFF7DFFCFFF79BFD70BD5C
:101A60000400002018ED00E000E400E01FB5FFF7DF
:101A7000BBFF04200221C201114BCDE90032CDE9A8
:101A8000021000230F4A10A11148FFF7A1FD1048D2
:101A9000FFF724FE0220032102020E4BCDE90032A3
:101AA000CDE9021000230C4A0CA10E48FFF790FD6F
:101AB0000C48FFF713FEFFF727FD002004B010BD10
:101AC0005801002011210008746573743100000072
:101AD00070000020580300204921000874657374C9
:101AE00032000000E40000202DE9F04180460E465F
:101AF0000027002400250AE01B4800EB05100168C0
:101B00004046FFF7B1FC08B17F1C2C466D1C1748FE
:101B100000688542F0D3012F23D1002503E014A0F3
:101B2000FEF7B6FB6D1CB542F9D30F4800EB04106D
:101B3000016810A0FEF7ACFB0B4800EB04104268F4
:101B4000094800EB041001680B480068401CFFF7CF
:101B5000A2FC054800EB0410406807490968C1F879
:101B6000B400BDE8F0810000680D0020680000208E
:101B700008200800257300006C00002008B5FF2035
:101B800000900748FFF7A2FB20B969460448FFF719
:101B900068FB02E00A20FFF7E3FC9DF8000008BDA7
:101BA000A41A002070B506460D4600241BE0154817
:101BB00000EB04104068A84214D1124800EB041056
:101BC00001683046FFF750FC60B10E4A02EB041288
:101BD000D0680C4A02EB0412916888470AA0FEF70D
:101BE00057FB70BD641C0A4800688442DFD309A01B
:101BF000FEF74EFB0BA0FEF74BFB03A0FEF748FBE6
:101C000000BFEEE7680D00206B79202F3E0000003A
:101C100068000020636D64206E6F7420666F756EBF
:101C2000642100000D0A00000020EA490968C1F89B
:101C3000B000E8490968C1F8AC00E7A0FEF728FB4E
:101C4000C7E1FFF79BFF0446FF2C00D1C1E11B2C2D
:101C500004D10120DF4909680870BAE1DD48006855
:101C6000007801280BD15B2C04D10220D9490968E6
:101C70000870AEE10020D74909680870B9E0D5487E
:101C8000006800780228F9D10020D249096808705C
:101C9000412C3CD1CF480068D0F8B010D0A0FEF75E
:101CA000F7FACC480068D0F8B00078B3C9480068AB
:101CB000D0F8B000401EC7490968C1F8B000C54857
:101CC0000068D0F8B020C3480068343050F82210C3
:101CD000C4A0FEF7DDFABF490968D1F8B020BD49BC
:101CE0000968343151F82200FFF7CCFB0546B948AA
:101CF0000068D0F8B020B7480068343000EB8201AB
:101D00002A46B4480068401CFEF7F6FB61E1422C0D
:101D10003AD1B0480068D0F8B000AE490968D1F8AF
:101D2000AC1088422FD2AB480068D0F8B000401CFD
:101D3000A8490968C1F8B000A6480068D0F8B020EA
:101D4000A4480068343050F82210A6A0FEF7A0FA8C
:101D5000A0490968D1F8B0209E490968343151F88A
:101D60002200FFF78FFB05469A480068D0F8B020A4
:101D700098480068343000EB82012A469548006894
:101D8000401CFEF7B9FB24E1432C1ED191480068AA
:101D9000D0F8B8008F490968D1F8B410884213D23E
:101DA0008C480068D0F8B8208A480068401C815CE4
:101DB0008DA0FEF76DFA87480068D0F8B800401C87
:101DC00084490968C1F8B80003E1442C11D1814865
:101DD0000068D0F8B80058B184A0FEF759FA7D48E1
:101DE0000068D0F8B800401E7A490968C1F8B80008
:101DF000EFE0092C09D177480068D0F8B410754895
:101E00000068401CFFF770FEE3E0082C24D1714805
:101E10000068D0F8B80000B9DBE06E480068D0F880
:101E2000B400401E6B490968C1F8B40069480068F5
:101E3000D0F8B800401E67490968C1F8B8006CA026
:101E4000FEF726FA002163480068D0F8B820614800
:101E50000068401C8154BCE00D2C01D00A2C50D1EC
:101E600064A0FEF715FA5B480068D0F8B40028B10A
:101E700058480068D0F8B400322803D356A0FEF7C3
:101E800007FAA6E053480068401CFFF7FBFA054636
:101E900050490968D1F8B0204E490968343101EB46
:101EA00082002A464B490968491CFEF725FB494830
:101EB0000068D0F8AC00401C46490968C1F8AC0085
:101EC00044480068D0F8AC0042490968C1F8B00045
:101ED00040480068D0F8B4103E480068401CFFF746
:101EE00061FE32213B480068401CFEF74AFB00209F
:101EF00038490968C1F8B40036490968C1F8B80022
:101F000067E034480068D0F8B80032490968D1F871
:101F1000B41088423ED22F4B1B68D3F8B4302D4DFD
:101F20002D68D5F8B8505A1B2A4B1B68D3F8B85007
:101F3000284B1B685B1CE918264B1B68D3F8B8308C
:101F40005B1C244D2D686D1C5819FFF769F9214859
:101F50000068D0F8B8201F480068401C84541D4811
:101F60000068D0F8B8201B480068401C11181DA05C
:101F7000FEF78EF917480068D0F8B85003E01BA0B0
:101F8000FEF786F96D1C13480068D0F8B400A8422B
:101F9000F5D81DE00F480068D0F8B4200D4800685F
:101FA000401C8454214610A0FEF772F909480068CD
:101FB000D0F8B400401C07490968C1F8B4000548CE
:101FC0000068D0F8B800401C02490968C1F8B800A0
:101FD00000BF36E66C0000206B79202F3E00000029
:101FE0002564000025730000256300000800000040
:101FF000082008000D0A000010B509A0FEF748F9F6
:102000000DA0FEF745F912A0FEF742F916A0FEF763
:102010003FF91BA0FEF73CF901A0FEF739F910BD0E
:102020002D2D2D2D2D2D2D2D2D2D2D2D2D2D2D2DE0
:102030002D2D2D2D0D0A00007C2020202020207722
:10204000656C636F6D6520202020207C0D0A0000E8
:102050007C20202020206B792D74687265616420BB
:102060002020207C0D0A00007C2020202076657234
:1020700073696F6E202069732020207C0D0A000098
:102080007C202020202020202056312E302020208F
:102090002020207C0D0A000000B500230E4A0721F5
:1020A0000EA0FEF795FF00230E4A05210EA0FEF7B5
:1020B0008FFF00230E4A02210EA0FEF789FF0023A6
:1020C0000D4A06210DA0FEF783FF00230D4A0421CF
:1020D0000DA0FEF77DFF00BD6111000876657273EB
:1020E000696F6E00E10E0008636C656172000000AC
:1020F0001910000870730000311100087265626FDA
:102100006F740000F50E000868656C700000000038
:1021100014E001200A49087001020A48FEF710FC89
:102120000120FFF723FA0020054908704FF4807161
:102130000448FEF703FC0120FFF718FAE9E7000066
:1021400000000020000C014015E001200A49087041
:1021500080210A48FEF7F4FB4FF4FA70FFF700FA0B
:1021600000200549087080210448FEF7E7FB4FF482
:10217000FA70FFF7F5F9E8E701000020000C0140D4
:1021800010B586B00446012144F20400FEF74CFC71
:102190004FF40070ADF8140003208DF816001820DD
:1021A0008DF8170005A91C48FEF73DFB4FF4806031
:1021B000ADF8140004208DF8170005A91648FEF7A5
:1021C00032FB25208DF8000003208DF801008DF8EA
:1021D000020001208DF803006846FEF7EDFB019434
:1021E0000020ADF80800ADF80A00ADF80C00ADF81D
:1021F00010000C20ADF80E0001A90848FEF7ACFD58
:10220000012240F225510548FEF780FD01210348D7
:10221000FEF746FD06B010BD000801400038014041
:10222000040000080000000000000002000100009F
:102230001000000054220008000000207000000080
:1022400028010008C4220008700000206821000056
:10225000440100080000000000A24A040000000041
:102260000000000001020304060708090000000046
:102270000102030401020304060708090204060818
:10228000000000000000000000000000000000004E
:10229000000000000000000000000000000000003E
:1022A000000000000000000000000000000000002E
:1022B000000000000000000000000000000000001E
:0422C000E8190020F9
:04000005080000ED02
:00000001FF
