:020000040800F2
:1000000010160020910100088D0600081D0600084A
:1000100089060008F9040008770A000800000000BB
:10002000000000000000000000000000850700083C
:10003000FD040008000000002F02000871080008FD
:10004000AB010008AB010008AB010008AB010008E0
:10005000AB010008AB010008AB010008AB010008D0
:10006000AB010008AB010008AB010008AB010008C0
:10007000AB010008AB010008AB010008AB010008B0
:10008000AB010008AB010008AB010008AB010008A0
:10009000AB010008AB010008AB010008AB01000890
:1000A000AB010008AB010008AB010008AB01000880
:1000B000AB010008AB010008AB010008AB01000870
:1000C000AB010008AB010008AB010008AB01000860
:1000D000AB010008E1080008AB010008AB01000813
:1000E000AB010008AB010008AB01000800F002F80A
:1000F00000F03FF80AA090E8000C82448344AAF183
:100100000107DA4501D100F034F8AFF2090EBAE880
:100110000F0013F0010F18BFFB1A43F0010318473B
:100120006413000084130000103A24BF78C878C11B
:10013000FAD8520724BF30C830C144BF04680C60ED
:10014000704700000023002400250026103A28BF35
:1001500078C1FBD8520728BF30C148BF0B60704739
:10016000642900F0CF80002070471FB51FBD10B577
:1001700010BD00F08FF91146FFF7F7FF01F07AF894
:1001800000F0ADF903B4FFF7F2FF03BC00F0BBFCD5
:100190000948804709480047FEE7FEE7FEE7FEE71B
:1001A000FEE7FEE7FEE7FEE7FEE7FEE70448054957
:1001B000054A064B7047000081080008ED00000862
:1001C0001010002010160020101200201012002025
:1001D000EFF3108072B6704780F3108870472349A0
:1001E000086023494FF00000086022494FF00100E9
:1001F000086021484FF47F01D0F8002041EA020155
:1002000001601E484FF08051016061B662B6194A24
:100210001368012B04D04FF001031360144A1060DF
:10022000124A116015484FF0805101607047EFF39A
:10023000108272B60F48016891B14FF00001016061
:100240000B48016829B1EFF3098121E9F00F00683B
:100250000160064909680968B1E8F00F81F309886F
:1002600082F310884EF0040E704700003800002022
:10027000340000203C00002020ED00E004ED00E010
:10028000704700000FB4044910B503AA029800F0AB
:10029000D3F810BC5DF814FB2C0000202DE9F041D0
:1002A0000E460446002020622046E168884730B3AD
:1002B000252805D0D4E901219047206A401CF2E7A7
:1002C000E168204600278847050018D0A5F14100C5
:1002D000192802D820354FF40067324629462046B7
:1002E0002760FFF73DFF40B1012804D0F61D26F03E
:1002F00007060836D8E7361DD6E72846DAE7206A2B
:10030000BDE8F0812DE9F04106460024106875290A
:10031000314616A510D0AFF30080002802DA404223
:1003200013A507E031688A0701D512A502E0490745
:1003300004D511A5012401E0AFF3008000210A22B9
:1003400006F1240709E0B0FBF2FCB0FBF2F302FB7C
:100350001C00303078541846491C0028F3D123463D
:100360002A463046BDE8F04100F00CB8000000001D
:100370002D0000002B000000200000007047704797
:10038000704770472DE9F0470D469946924604465E
:1003900000F124080168880604D5E06921F0100105
:1003A000216000E00120A84201DD471B00E000279A
:1003B000A1697A1902EB0900081AA0612078C00629
:1003C00002D42046AFF30080002608E0D4E90121E2
:1003D0001AF806009047206A401C761C20624E45A1
:1003E000F4DB2078C0060AD52046AFF3008006E093
:1003F000D4E9012130209047206A401C2062381E39
:10040000A7F10107F4DC07E0D4E9012118F80500A1
:100410009047206A401C2062281EA5F10105F3DCEC
:100420002046AFF300802078000602D50220BDE808
:10043000F0870120FBE70000074B70B50D467B44B9
:1004400000F011F80446284600F020F810B14FF0F3
:10045000FF3070BD204670BDCB06000001694A1C0C
:1004600002610878704700B58FB0CDE901310021F5
:10047000059105497944CDE9031011466846FFF717
:100480000DFF0FB000BD0000E5FFFFFF007B00F097
:1004900080007047754600F02BF8AE4605006946AF
:1004A000534620F00700854618B020B5FFF77EFEC2
:1004B000BDE820404FF000064FF000074FF0000865
:1004C0004FF0000B21F00701AC46ACE8C009ACE8E6
:1004D000C009ACE8C009ACE8C0098D46704710B54A
:1004E0000446AFF300802046BDE81040FFF74ABE47
:1004F00000487047AC0F002000BFFEE770472DE9B1
:10050000F041024600250026002000230024002799
:1005100091F803C00CF00F0591F803C00CF0100C1B
:10052000BCF1000F03D091F802C04CEA050591F828
:1005300000C0BCF1000F31D0146800202BE04FF058
:10054000010C0CFA00F3B1F800C00CEA03069E425D
:1005500020D183004FF00F0C0CFA03F7BC4305FACF
:1005600003FC4CEA040491F803C0BCF1280F06D147
:100570004FF0010C0CFA00FCC2F814C00AE091F82C
:1005800003C0BCF1480F05D14FF0010C0CFA00FC80
:10059000C2F810C0401C0828D1D31460B1F800C0C4
:1005A000BCF1FF0F34DD546800202EE000F1080C90
:1005B0004FF0010808FA0CF3B1F800C00CEA03068A
:1005C0009E4221D183004FF00F0C0CFA03F7BC437D
:1005D00005FA03FC4CEA040491F803C0BCF1280FAF
:1005E00005D100F1080C08FA0CF8C2F8148091F853
:1005F00003C0BCF1480F07D100F1080C4FF001080F
:1006000008FA0CF8C2F81080401C0828CED35460B9
:10061000BDE8F081416170470161704700BFFEE7AE
:1006200008B50121082000F033F84FF2C010ADF8F2
:10063000000010208DF8030003208DF802006946A9
:100640000F48FFF75CFF4FF2C0110D48FFF7E2FFC4
:100650000121042000F01CF840F67F70ADF8000086
:1006600010208DF8030003208DF80200694605482C
:10067000FFF745FF40F67F710248FFF7CBFF08BD4B
:10068000000C01400008014000BFFEE77047000079
:1006900029B1064A92690243044B9A6104E0034A75
:1006A00092698243014B9A6170470000001002403A
:1006B00030B500210022002400232D4D6D6805F087
:1006C0000C0121B1042905D0082923D105E0294DC9
:1006D000056022E0274D05601FE0254D6D6805F49B
:1006E0007012234D6D6805F48034022505EB9242AB
:1006F0001CB9214D554305600BE01D4D6D6805F497
:1007000000351DB11C4D5543056002E0194D5543A0
:10071000056002E0174D056000BF00BF144D6D6815
:1007200005F0F0010909154D6B5C0568DD40456079
:100730000F4D6D6805F4E061090A104D6B5C45686A
:10074000DD4085600A4D6D6805F46051C90A0B4DA6
:100750006B5C4568DD40C560054D6D6805F4404142
:10076000890B074D6B5CC568B5FBF3F5056130BDC2
:100770000010024000127A0000093D00180000201D
:1007800028000020704710B500F002F810BD0000EE
:100790000CB50020019000903348006840F4803090
:1007A0003149086000BF3048006800F40030009014
:1007B0000198401C0190009818B90198B0F5A06FFD
:1007C000F1D12948006800F4003010B101200090F8
:1007D00001E0002000900098012843D123480068E0
:1007E00040F01000214908600846006820F003002E
:1007F00008600846006840F0020008601A48406837
:10080000194948600846406848600846406840F416
:10081000806048600846406820F47C1048600846C4
:10082000406840F4E81048600846006840F0807076
:10083000086000BF0C48006800F000700028F9D084
:100840000948406820F003000749486008464068AE
:1008500040F00200486000BF0348406800F00C0010
:100860000828F9D10CBD0000001002400020024011
:1008700010B500F079F900F0B3FB00F085F910BD78
:1008800010B51348006840F001001149086008469F
:100890004068104908400E494860084600680E4903
:1008A00008400B4908600846006820F48020086072
:1008B0000846406820F4FE0048604FF41F0088603E
:1008C000FFF761FF4FF000600449086010BD0000B1
:1008D000001002400000FFF8FFFFF6FE08ED00E008
:1008E00010B540F22551074800F029F848B10548F5
:1008F00000F0BCF8C4B2312C03D1214602A0FFF7AE
:10090000C1FC10BD003801402564000021B182897E
:1009100042F40052828104E082894DF6FF731A404E
:100920008281704702460020B1F5007F00D100BFF0
:1009300013880B400BB1012000E00020704770B518
:100940000246002400230025002040F66A16B1422A
:1009500000D100BFC1F3421501F01F03012606FAC2
:1009600003F3012D02D19689334006E0022D02D116
:10097000168A334001E0968A33400C12012606FAAB
:1009800004F41688344013B10CB1012000E00020BB
:1009900070BD00002DE9F04786B005460E460024E4
:1009A000A24600BFA1460027B08900B100BF2F4674
:1009B0002C8A4CF6FF700440F08804432C82AC89EA
:1009C0004EF6F3100440B08831890843718908431A
:1009D0000443AC81AC8A4FF6FF400440B089044325
:1009E000AC8201A8FFF764FE1F48874202D1DDF800
:1009F00010A001E0DDF80CA0A88900F4004040B18F
:100A00000AEBCA0000EB0A1031684900B0FBF1F8AC
:100A100007E00AEBCA0000EB0A1031688900B0FB5E
:100A2000F1F86420B8FBF0F004012009642101FB17
:100A30001089A88900F4004040B1322000EBC900C1
:100A4000B0FBF1F000F00700044308E0322000EBB7
:100A500009106421B0FBF1F000F00F0004432C8179
:100A600006B0BDE8F08700000038014001468888E4
:100A7000C0F30800704700BFFEE7014609B9002037
:100A80007047002201E04910521C01F001000028CB
:100A9000F9D01046F4E72DE9F04704460E46174614
:100AA0009846DDF8209084F80990607A20F00100E3
:100AB0006072E66127620020A062C4F824800025ED
:100AC00006E004F1140101EBC50000F06DF86D1CA7
:100AD000012DF6DBBDE8F08710B502460020014687
:100AE0000EE002F1140303EBC100D0E900436360A0
:100AF000D0E9003423604060006000BF481C01461C
:100B00000129EEDB10BD014600BF704700BF054A5A
:100B1000128802F04002002AF9D0C2B2014B1B1D1C
:100B20001A8070470038014070B503460C461546E0
:100B3000681C20F0070040380146002203E0094EFF
:100B400041F82260521C102AF9D30C6200264E6232
:100B50008E62CE620E634E638B634FF08076CE63FF
:100B600070BD0000EFBEADDE10B5FFF731FB0446EF
:100B700004480078401C034908702046FFF72CFB0E
:100B800010BD00005400002010B5FFF721FB044603
:100B900004480078401E034908702046FFF71CFBFC
:100BA00010BD000054000020406000607047D0E994
:100BB00000215160D0E90012116040600060704770
:100BC0002DE9F041FFF704FB074611480068FFF7E5
:100BD00054FF05460F4850F83500A0F114040E48A4
:100BE000006884420ED00D490D700B480668046001
:100BF00004F11C0106F11C00FFF709FB3846FFF762
:100C0000EBFA02E03846FFF7E7FABDE8F0810000B2
:100C100040000020C40700204800002044000020BD
:100C200070B50446FFF7D4FA0546012084F8440065
:100C300094F838200A4B03EBC20004F11401086059
:100C400042684A6042681160416000BF0549E06B3C
:100C500009680843034908602846FFF7BDFA70BDDC
:100C6000C40700204000002070B50446FFF7B0FA2A
:100C7000054604F11400D0E900215160D0E90012CA
:100C800011604060006000BF94F83810094A02EB20
:100C9000C1000168814201D1012100E0002129B198
:100CA0000548E16B00688843034908602846FFF760
:100CB00093FA70BDC4070020400000201FB50A2031
:100CC0004FF48062074BCDE901200093039000238D
:100CD000054A06A1074800F091F8064800F004F91B
:100CE0001FBD0000AC0B0020191300087368656C71
:100CF0006C000000380B00200020014607E0094A84
:100D000002EBC1004060006000BF481C0146202982
:100D1000F5DB1F20044A10700020044A1060044ACA
:100D200010607047C40700204400002048000020E5
:100D30004000002070B508480068FFF79EFE054699
:100D4000064850F83500A0F114040548046004F189
:100D50001C00FFF744FA70BD40000020C4070020CB
:100D60004800002010B5002405E0044901EBC40050
:100D7000FFF71AFF641C002CF7D010BD58000020AC
:100D800010B50446204600F093F810BD10B5044697
:100D90002046FFF7F5FF10BD10B504464FF47A71F9
:100DA00004FB01F0FFF7F2FF10BD000000BF04E0FC
:100DB00002490968491C014A1160F9E74C0000200A
:100DC0001FB502201F210202074BCDE90032CDE9F9
:100DD00002100023054A06A1074800F00FF8064854
:100DE00000F082F81FBD0000C4080020AD0D00080F
:100DF00069646C6500000000C40A00202DE9FC5FF6
:100E000004468B4615461E46DDE90C9ADDE90E7850
:100E100004F114004060006000BF25626662C4F8FF
:100E20002890C4F82CA0D4E90A3C63441A1FD4E9E2
:100E30000801FFF779FEE06184F8397084F83870B2
:100E40000020E063206484F84400C4F83080C4F8D3
:100E5000348000902346054A2146019004F1480061
:100E600000F034F90020BDE8FC9F00004F0F00089F
:100E700070B5044694F8440000F00F00022802D038
:100E80004FF0FF3070BDFFF7A3F9054604F11400E1
:100E9000FFF78DFE2846FFF79FF92046FFF7C0FEBB
:100EA0000020EFE70148006870470000480000207C
:100EB00031B5FFF78DF905460A480468204600F071
:100EC00029F86A46002104F1480000F0E3F804F133
:100ED000480000F00DF92846FFF77EF9FFF770FE95
:100EE00038BD00004800002010B504463834607852
:100EF0002070217801208840606002202073383CF7
:100F00002046FFF7B5FFFFF7CDFF08B1FFF758FE0A
:100F1000002010BD70B5044694F8440000F00F00A6
:100F2000012802D04FF0FF3070BDFFF751F90546A0
:100F3000022084F844002046FFF796FE04F14800A2
:100F400000F040F92846FFF747F90020ECE770B5BC
:100F5000044625466FF00100286405F11400FFF7F0
:100F600026FE2846FFF75CFEFFF72AFE70BD000054
:100F700070B5FFF72DF905461448046894F844004D
:100F800000F00F0001281CD1D4E90510814218D0CF
:100F900004F11400FFF70BFE94F838200C4B03EB20
:100FA000C20004F11401086042684A60426811609E
:100FB000416000BF2846FFF70FF9FFF701FE002050
:100FC00070BD2846FFF708F90020F9E74800002027
:100FD000C40700200148006870470000500000204E
:100FE00010B50A480068401C08490860FFF75AFF1E
:100FF0000446606B401E6063606B18B9206B6063D1
:10100000FFF7B6FF00F004F810BD0000500000200C
:1010100070B5FFF7DFFF0546FFF7DAF8064628E070
:101020001B480068A0F11404A06A281A6FF0004160
:1010300088421DD22046FFF74FFDD4E907108847AC
:10104000FFF7C8FF0546607A00F0020058B1607AE9
:1010500000F0010038B1607A20F001006072204693
:1010600000F046F805E0607A20F00100607200E0D0
:1010700008E007480168814201D1012100E0002118
:101080000029CDD000BF3046FFF7A6F870BD0000A4
:1010900058000020034649B1012904D0022908D094
:1010A000032910D10AE0586A10600CE010685862F9
:1010B00009E0587A20F00200587204E0587A40F0B3
:1010C0000200587200BF00BF002070472DE9F843AE
:1010D0000646894614461D46DDE908783B462A4601
:1010E00021463046CDF80080FFF7D5FCBDE8F883F7
:1010F0002DE9F84305460024FFF76AF8074628461D
:10110000FFF7EAFC687A20F0010068723846FFF7C2
:1011100063F8FFF75FFF696A0844A862FFF758F8B1
:101120000746264E009600BF2AE019E05DF824200D
:101130001168142202EBC402881A826AAB6AD21ABE
:1011400000D108E0826AAB6AD21A6FF000439A427B
:1011500000D20CE000BF5DF8240000684DF82400C8
:101160005DF8240006EBC40149688842DED100BF67
:101170002CB15DF824000830611C4DF82100641C7E
:10118000002CD2D00E480068401C0D49086008466B
:10119000D0F8008005F11401009802680A604860E8
:1011A00002685160016000BF687A40F00100687217
:1011B0003846FFF711F80020BDE8F88358000020FA
:1011C0006000002070B50446607A00F0010010B99C
:1011D0004FF0FF3070BDFEF7FBFF05462046FFF7DE
:1011E0007BFC2846FEF7F8FF607A20F00100607271
:1011F0000020EFE770B5FFF713FA4FF4E13000F08D
:1012000005F9FEF7E5FF184800684FF47A72B0FB65
:10121000F2F1B1F1807F00D31DE021F07F40401E4C
:101220004FF0E022506150170F22002807DA130711
:101230001D0E0E4B00F00F04241F1D5503E0130775
:101240001C0E0B4B1C5400BF00204FF0E02290619D
:101250000720106100BFFFF785FDFFF74DFDFFF789
:101260002DFDFFF7ADFD70BD0400002018ED00E07E
:1012700000E400E01FB5FFF7BDFF04200221C2011A
:10128000114BCDE90032CDE9021000230F4A10A125
:101290001148FFF7B3FD1048FFF726FE0220032197
:1012A00002020E4BCDE90032CDE9021000230C4AB8
:1012B0000CA10E48FFF7A2FD0C48FFF715FEFFF743
:1012C00039FD002004B010BDC40100209D130008AA
:1012D000746573743100000068000020C4030020AE
:1012E000D51300087465737432000000DC00002020
:1012F00010B54FF0FF3420210648FFF713FB20B153
:101300000448FFF7B3FB044602E06420FFF73EFD0C
:10131000204610BD0038014034E0FFF7E9FF0446E5
:10132000002C00DA2EE0214617A0FEF7ABFF1B2CA5
:1013300007D1012016490968087016A0FEF7A2FF20
:1013400020E013480068007801280BD15B2C04D101
:1013500002200F490968087014E000200C49096850
:1013600008700EE00A4800680078022809D10020C1
:10137000074909680870412C03D107A0FEF782FFD6
:1013800000E000BFC9E7000063683D25640D0A0066
:1013900064000020310000007570000014E001209E
:1013A0000A49087001020A48FFF736F90120FFF7E1
:1013B000F3FC0020054908704FF480710448FFF7E2
:1013C00029F90120FFF7E8FCE9E700000000002010
:1013D000000C014015E001200A49087080210A48EC
:1013E000FFF71AF94FF4FA70FFF7D0FC0020054917
:1013F000087080210448FFF70DF94FF4FA70FFF7E9
:10140000C5FCE8E701000020000C014010B586B0E3
:101410000446012144F20400FFF73AF94FF400704A
:10142000ADF8140003208DF8160018208DF8170071
:1014300005A91248FFF763F84FF48060ADF8140077
:1014400004208DF8170005A90C48FFF758F80194FF
:101450000020ADF80800ADF80A00ADF80C00ADF8BA
:1014600010000C20ADF80E0001A90548FFF792FA14
:1014700001210348FFF74AFA06B010BD00080140F9
:1014800000380140A414000800000020680000009B
:10149000280100080C15000868000020A8150000AD
:1014A000440100080000000000A24A0400000000FF
:1014B0000000000001020304060708090000000004
:1014C00001020304010203040607080902040608D6
:1014D000000000000000000000000000000000000C
:1014E00000000000000000000000000000000000FC
:1014F00000000000000000000000000000000000EC
:0C150000000000000000000000000000DF
:04000005080000ED02
:00000001FF
