:020000040800F2
:10000000A0140020910100087506000805060008EC
:1000100071060008E1040008BB0A000800000000A7
:100020000000000000000000000000006D07000854
:10003000E5040008000000002F020008590800082D
:10004000AB010008AB010008AB010008AB010008E0
:10005000AB010008AB010008AB010008AB010008D0
:10006000AB010008AB010008AB010008AB010008C0
:10007000AB010008AB010008AB010008AB010008B0
:10008000AB010008AB010008AB010008AB010008A0
:10009000AB010008AB010008AB010008AB01000890
:1000A000AB010008AB010008AB010008AB01000880
:1000B000AB010008AB010008AB010008AB01000870
:1000C000AB010008AB010008AB010008AB01000860
:1000D000AB010008C9080008AB010008AB0100082B
:1000E000AB010008AB010008AB01000800F002F80A
:1000F00000F03FF80AA090E8000C82448344AAF183
:100100000107DA4501D100F034F8AFF2090EBAE880
:100110000F0013F0010F18BFFB1A43F0010318473B
:10012000E815000008160000103A24BF78C878C10E
:10013000FAD8520724BF30C830C144BF04680C60ED
:10014000704700000023002400250026103A28BF35
:1001500078C1FBD8520728BF30C148BF0B60704739
:10016000632900F02881002070471FB51FBD10B51E
:1001700010BD00F083F91146FFF7F7FF01F0A4F876
:1001800000F0A1F903B4FFF7F2FF03BC00F0DDFCBF
:100190000948804709480047FEE7FEE7FEE7FEE71B
:1001A000FEE7FEE7FEE7FEE7FEE7FEE70448054957
:1001B000054A064B7047000069080008ED0000087A
:1001C000A00E0020A0140020A0100020A0100020ED
:1001D000EFF3108072B6704780F3108870472349A0
:1001E000086023494FF00000086022494FF00100E9
:1001F000086021484FF47F01D0F8002041EA020155
:1002000001601E484FF08051016061B662B6194A24
:100210001368012B04D04FF001031360144A1060DF
:10022000124A116015484FF0805101607047EFF39A
:10023000108272B60F48016891B14FF00001016061
:100240000B48016829B1EFF3098121E9F00F00683B
:100250000160064909680968B1E8F00F81F309886F
:1002600082F310884EF0040E704700003800002022
:10027000340000203C00002020ED00E004ED00E010
:10028000704700000FB4044910B503AA029800F0AB
:100290009FF810BC5DF814FB2C0000202DE9F04104
:1002A0000E460446002020622046E168884730B3AD
:1002B000252805D0D4E901219047206A401CF2E7A7
:1002C000E168204600278847050018D0A5F14100C5
:1002D000192802D820354FF40067324629462046B7
:1002E0002760FFF73DFF40B1012804D0F61D26F03E
:1002F00007060836D8E7361DD6E72846DAE7206A2B
:10030000BDE8F08170B50C460546012A05D0287875
:10031000800600D5EA69002302E0012305E05B1CAA
:10032000934202D2E05C0028F9D1A869E618C01A0D
:10033000A861286A184428622846AFF3008004E0C8
:10034000D5E9012114F8010B9047B442F8D32846AF
:10035000AFF3008070BD4FF000020429C0F012809E
:1003600010F0030C00F04880CCF1040CBCF1020F3B
:1003700018BF00F8012BA8BF20F8022BA1EB0C013D
:1003800000F03AB85FEAC17C24BF00F8012B00F806
:10039000012B48BF00F8012B70477047704770472A
:1003A000704710B5436913B1AFF3008001E0FFF768
:1003B000A9FF012010BD127800F124010A7000226B
:1003C0004A700122EDE711684FF0FF32E9E70000C3
:1003D000074B70B50D467B4400F039F804462846BB
:1003E00000F048F810B14FF0FF3070BD204670BDEE
:1003F000770700004FF0000200B51346944696467A
:10040000203922BFA0E80C50A0E80C50B1F1200127
:10041000BFF4F7AF090728BFA0E80C5048BF0CC0D5
:100420005DF804EB890028BF40F8042B08BF704733
:1004300048BF20F8022B11F0804F18BF00F8012BA5
:100440007047000001694A1C02610878704700B5D6
:100450008FB0CDE901310021059105497944CDE9FD
:10046000031011466846FFF719FF0FB000BD0000EA
:10047000E5FFFFFF007B00F080007047754600F04D
:100480002BF8AE4605006946534620F00700854626
:1004900018B020B5FFF78AFEBDE820404FF00006F7
:1004A0004FF000074FF000084FF0000B21F007015C
:1004B000AC46ACE8C009ACE8C009ACE8C009ACE89F
:1004C000C0098D46704710B50446AFF30080204642
:1004D000BDE81040FFF756BE004870473C0E0020B4
:1004E00000BFFEE770472DE9F041024600250026D7
:1004F000002000230024002791F803C00CF00F0512
:1005000091F803C00CF0100CBCF1000F03D091F86F
:1005100002C04CEA050591F800C0BCF1000F31D0D3
:10052000146800202BE04FF0010C0CFA00F3B1F836
:1005300000C00CEA03069E4220D183004FF00F0C4E
:100540000CFA03F7BC4305FA03FC4CEA040491F8E7
:1005500003C0BCF1280F06D14FF0010C0CFA00FCCF
:10056000C2F814C00AE091F803C0BCF1480F05D1ED
:100570004FF0010C0CFA00FCC2F810C0401C082817
:10058000D1D31460B1F800C0BCF1FF0F34DD546862
:1005900000202EE000F1080C4FF0010808FA0CF3DF
:1005A000B1F800C00CEA03069E4221D183004FF04F
:1005B0000F0C0CFA03F7BC4305FA03FC4CEA0404E5
:1005C00091F803C0BCF1280F05D100F1080C08FA1E
:1005D0000CF8C2F8148091F803C0BCF1480F07D1A1
:1005E00000F1080C4FF0010808FA0CF8C2F810806E
:1005F000401C0828CED35460BDE8F08141617047AB
:100600000161704700BFFEE708B50121082000F036
:1006100033F84FF2C010ADF8000010208DF8030041
:1006200003208DF8020069460F48FFF75CFF4FF288
:10063000C0110D48FFF7E2FF0121042000F01CF873
:1006400040F67F70ADF8000010208DF80300032005
:100650008DF8020069460548FFF745FF40F67F71B7
:100660000248FFF7CBFF08BD000C01400008014025
:1006700000BFFEE77047000029B1064A92690243B5
:10068000044B9A6104E0034A92698243014B9A61E8
:10069000704700000010024030B500210022002405
:1006A00000232D4D6D6805F00C0121B1042905D002
:1006B000082923D105E0294D056022E0274D05607A
:1006C0001FE0254D6D6805F47012234D6D6805F42B
:1006D0008034022505EB92421CB9214D554305603B
:1006E0000BE01D4D6D6805F400351DB11C4D5543E3
:1006F000056002E0194D5543056002E0174D0560A5
:1007000000BF00BF144D6D6805F0F0010909154DDB
:100710006B5C0568DD4045600F4D6D6805F4E06178
:10072000090A104D6B5C4568DD4085600A4D6D68B7
:1007300005F46051C90A0B4D6B5C4568DD40C5602E
:10074000054D6D6805F44041890B074D6B5CC5682C
:10075000B5FBF3F5056130BD0010024000127A00D0
:1007600000093D001800002028000020704710B547
:1007700000F002F810BD00000CB5002001900090C0
:100780003348006840F480303149086000BF304889
:10079000006800F4003000900198401C019000981F
:1007A00018B90198B0F5A06FF1D12948006800F49C
:1007B000003010B10120009001E00020009000986E
:1007C000012843D12348006840F010002149086007
:1007D0000846006820F0030008600846006840F002
:1007E000020008601A484068194948600846406895
:1007F00048600846406840F48060486008464068A9
:1008000020F47C1048600846406840F4E8104860D6
:100810000846006840F08070086000BF0C4800681F
:1008200000F000700028F9D00948406820F003006B
:10083000074948600846406840F00200486000BF31
:100840000348406800F00C000828F9D10CBD0000F6
:10085000001002400020024010B500F0A7F900F09F
:10086000E1FB00F0B3F910BD10B51348006840F08B
:1008700001001149086008464068104908400E49C7
:100880004860084600680E4908400B490860084661
:10089000006820F4802008600846406820F4FE00CC
:1008A00048604FF41F008860FFF761FF4FF0006061
:1008B0000449086010BD0000001002400000FFF86D
:1008C000FFFFF6FE08ED00E010B540F225511D488F
:1008D00000F057F810B31B4800F0EAF8C4B21A4809
:1008E000008800F40040C8B91748008800F4804030
:1008F00060B10A2C03D000201349088020E0124880
:10090000008840F400401049088019E00D2C06D101
:100910000D48008840F480400B49088010E00A48E8
:100920000088C0F30D0009490C5407480088401C9A
:100930000549088008460088C72801DD0020088096
:1009400010BD00000038014030000020500500209C
:1009500021B1828942F40052828104E082894DF6FD
:10096000FF731A408281704702460020B1F5007F74
:1009700000D100BF13880B400BB1012000E0002024
:10098000704770B50246002400230025002040F681
:100990006A16B14200D100BFC1F3421501F01F0336
:1009A000012606FA03F3012D02D19689334006E0B1
:1009B000022D02D1168A334001E0968A33400C1290
:1009C000012606FA04F41688344013B10CB1012054
:1009D00000E0002070BD00002DE9F04786B005461C
:1009E0000E460024A24600BFA1460027B08900B1F0
:1009F00000BF2F462C8A4CF6FF700440F088044359
:100A00002C82AC894EF6F3100440B088318908433B
:100A1000718908430443AC81AC8A4FF6FF4004401F
:100A2000B0890443AC8201A8FFF736FE1F48874215
:100A300002D1DDF810A001E0DDF80CA0A88900F4D7
:100A4000004040B10AEBCA0000EB0A1031684900CF
:100A5000B0FBF1F807E00AEBCA0000EB0A103168BE
:100A60008900B0FBF1F86420B8FBF0F00401200924
:100A7000642101FB1089A88900F4004040B13220B4
:100A800000EBC900B0FBF1F000F00700044308E000
:100A9000322000EB09106421B0FBF1F000F00F00F0
:100AA00004432C8106B0BDE8F08700000038014007
:100AB00001468888C0F30800704700BFFEE7014682
:100AC00009B900207047002201E04910521C01F0D2
:100AD00001000028F9D01046F4E72DE9F04704465C
:100AE0000E4617469846DDF8209084F80990607A03
:100AF00020F001006072E66127620020A062C4F865
:100B00002480002506E004F1140101EBC50000F08B
:100B10006DF86D1C012DF6DBBDE8F08710B50246BF
:100B2000002001460EE002F1140303EBC100D0E9FE
:100B300000436360D0E9003423604060006000BF80
:100B4000481C01460129EEDB10BD014600BF70477D
:100B500000BF054A128802F04002002AF9D0C2B252
:100B6000014B1B1D1A8070470038014070B50346C9
:100B70000C461546681C20F007004038014600224C
:100B800003E0094E41F82260521C102AF9D30C628E
:100B900000264E628E62CE620E634E638B634FF010
:100BA0008076CE6370BD0000EFBEADDE10B5FFF7FE
:100BB0000FFB044604480078401C03490870204697
:100BC000FFF70AFB10BD00005400002010B5FFF72E
:100BD000FFFA044604480078401E03490870204686
:100BE000FFF7FAFA10BD00005400002040600060DA
:100BF0007047D0E900215160D0E9001211604060D7
:100C0000006070472DE9F041FFF7E2FA074611480E
:100C10000068FFF754FF05460F4850F83500A0F173
:100C200014040E48006884420ED00D490D700B4824
:100C30000668046004F11C0106F11C00FFF7E7FAE6
:100C40003846FFF7C9FA02E03846FFF7C5FABDE8B3
:100C5000F08100004000002018060020480000201D
:100C60004400002070B50446FFF7B2FA05460120A3
:100C700084F8440094F838200A4B03EBC20004F1D6
:100C80001401086042684A6042681160416000BF18
:100C90000549E06B09680843034908602846FFF7E7
:100CA0009BFA70BD180600204000002070B5044675
:100CB000FFF78EFA054604F11400D0E900215160D7
:100CC000D0E9001211604060006000BF94F8381055
:100CD000094A02EBC1000168814201D1012100E013
:100CE000002129B10548E16B006888430349086089
:100CF0002846FFF771FA70BD18060020400000205A
:100D00001FB50A204FF48062074BCDE90120009304
:100D100003900023054A06A1074800F091F8064811
:100D200000F004F91FBD0000000A0020391400087B
:100D30007368656C6C0000008C090020002001467F
:100D400007E0094A02EBC1004060006000BF481C98
:100D500001462029F5DB1F20044A10700020044AB8
:100D60001060044A106070471806002044000020FC
:100D7000480000204000002070B508480068FFF7D8
:100D80009EFE0546064850F83500A0F114040548BB
:100D9000046004F11C00FFF722FA70BD400000203F
:100DA000180600204800002010B5002405E0044982
:100DB00001EBC400FFF71AFF641C002CF7D010BD34
:100DC0005800002010B50446204600F093F810BDEE
:100DD00010B504462046FFF7F5FF10BD10B50446D8
:100DE0004FF47A7104FB01F0FFF7F2FF10BD000031
:100DF00000BF04E002490968491C014A1160F9E793
:100E00004C0000201FB502201F210202074BCDE934
:100E10000032CDE902100023054A06A1074800F080
:100E20000FF8064800F082F81FBD000018070020E8
:100E3000F10D000869646C650000000018090020CD
:100E40002DE9FC5F04468B4615461E46DDE90C9AEB
:100E5000DDE90E7804F114004060006000BF2562F7
:100E60006662C4F82890C4F82CA0D4E90A3C634414
:100E70001A1FD4E90801FFF779FEE06184F83970A0
:100E800084F838700020E063206484F84400C4F8DB
:100E90003080C4F8348000902346054A21460190F2
:100EA00004F1480000F034F90020BDE8FC9F000088
:100EB000930F000870B5044694F8440000F00F004A
:100EC000022802D04FF0FF3070BDFFF781F90546D0
:100ED00004F11400FFF78DFE2846FFF77DF9204648
:100EE000FFF7C0FE0020EFE70148006870470000F0
:100EF0004800002031B5FFF76BF905460A48046841
:100F0000204600F029F86A46002104F1480000F06C
:100F1000E3F804F1480000F00DF92846FFF75CF90A
:100F2000FFF770FE38BD00004800002010B50446F1
:100F30003834607820702178012088406060022079
:100F40002073383C2046FFF7B5FFFFF7CDFF08B10F
:100F5000FFF758FE002010BD70B5044694F8440019
:100F600000F00F00012802D04FF0FF3070BDFFF7F6
:100F70002FF90546022084F844002046FFF796FE2C
:100F800004F1480000F040F92846FFF725F9002059
:100F9000ECE770B5044625466FF00100286405F1C2
:100FA0001400FFF726FE2846FFF75CFEFFF72AFE37
:100FB00070BD000070B5FFF70BF9054614480468D2
:100FC00094F8440000F00F0001281CD1D4E905106A
:100FD000814218D004F11400FFF70BFE94F838207A
:100FE0000C4B03EBC20004F11401086042684A6034
:100FF00042681160416000BF2846FFF7EDF8FFF737
:1010000001FE002070BD2846FFF7E6F80020F9E752
:1010100048000020180600200148006870470000C2
:101020005000002010B50A480068401C08490860BC
:10103000FFF75AFF0446606B401E6063606B18B98F
:10104000206B6063FFF7B6FF00F004F810BD0000EE
:101050005000002070B5FFF7DFFF0546FFF7B8F836
:10106000064628E01B480068A0F11404A06A281A6C
:101070006FF0004188421DD22046FFF74FFDD4E9B2
:1010800007108847FFF7C8FF0546607A00F00200A6
:1010900058B1607A00F0010038B1607A20F00100A8
:1010A0006072204600F046F805E0607A20F001000A
:1010B000607200E008E007480168814201D1012127
:1010C00000E000210029CDD000BF3046FFF784F8B2
:1010D00070BD000058000020034649B1012904D02A
:1010E000022908D0032910D10AE0586A10600CE0E8
:1010F0001068586209E0587A20F00200587204E043
:10110000587A40F00200587200BF00BF00207047BC
:101110002DE9F8430646894614461D46DDE9087860
:101120003B462A4621463046CDF80080FFF7D5FCE5
:10113000BDE8F8832DE9F84305460024FFF748F899
:1011400007462846FFF7EAFC687A20F0010068723B
:101150003846FFF741F8FFF75FFF696A0844A86265
:10116000FFF736F80746264E009600BF2AE019E042
:101170005DF824201168142202EBC402881A826AE6
:10118000AB6AD21A00D108E0826AAB6AD21A6FF059
:1011900000439A4200D20CE000BF5DF824000068D2
:1011A0004DF824005DF8240006EBC401496888422C
:1011B000DED100BF2CB15DF824000830611C4DF871
:1011C0002100641C002CD2D00E480068401C0D4940
:1011D00008600846D0F8008005F114010098026804
:1011E0000A60486002685160016000BF687A40F0A0
:1011F000010068723846FEF7EFFF0020BDE8F88373
:10120000580000206000002070B50446607A00F0AD
:10121000010010B94FF0FF3070BDFEF7D9FF054651
:101220002046FFF77BFC2846FEF7D6FF607A20F0C9
:10123000010060720020EFE770B5FFF7E5F94FF4A9
:10124000E13000F025FA1BA0FFF71CF8FEF7C0FF05
:101250001A4800684FF47A72B0FBF2F1B1F1807F66
:1012600000D31DE021F07F40401E4FF0E02250618E
:1012700050170F22002807DA13071D0E104B00F03D
:101280000F04241F1D5503E013071C0E0D4B1C54A7
:1012900000BF00204FF0E02290610720106100BFE6
:1012A000FFF782FDFFF74AFDFFF72AFDFFF7AAFDD2
:1012B00070BD000068656C6C6F00000004000020C9
:1012C00018ED00E000E400E01FB5FFF7B5FF0420D3
:1012D0000221C201114BCDE90032CDE902100023F9
:1012E0000F4A10A11148FFF7ABFD1048FFF71EFE93
:1012F0000220032102020E4BCDE90032CDE902109B
:1013000000230C4A0CA10E48FFF79AFD0C48FFF78A
:101310000DFEFFF731FD002004B010BD500100208C
:101320002116000874657374310000006800002005
:1013300050030020591600087465737432000000D1
:10134000DC00002010B54FF0FF3420210A48FFF7E1
:101350000BFB20B10848FFF7ABFB04460AE008216D
:101360000548FFF701FB10B104A0FEF78BFF6420D6
:10137000FFF72EFD204610BD003801406572726FE8
:10138000720000002DE9FF4105460F461DA103C96B
:10139000CDE9020101261DA103C9CDE9000100200C
:1013A00006E0295C02AA125C914200D00026401C93
:1013B0000528F6DB012E07D116A0FEF763FF17A064
:1013C000FEF760FFBDE8FF81002412E0285D1DF8F4
:1013D000041088420CD013A0FEF754FF12A0FEF7B1
:1013E00051FF10A0FEF74EFF0CA0FEF74BFFE9E700
:1013F000641C062CEADB00F0BDF808A0FEF742FFF3
:1014000000BFDFE7636C6561720000007665727390
:10141000696F00001B5B324A1B5B48006B79202F11
:101420003E0000000D0A0000636D64206E6F7420A2
:10143000666F756E6421000046A0FEF723FF87E00B
:10144000FFF780FF0446002C00DA81E01B2C07D157
:10145000012042490968087041A0FEF713FF77E0B8
:101460003E480068007801280ED15B2C07D13DA0D2
:10147000FEF708FF022039490968087068E000207B
:101480003649096808700EE0344800680078022880
:1014900009D10020314909680870412C03D132A0DC
:1014A000FEF7F0FE54E0082C1ED12C480068806B3B
:1014B00000B94DE029480068406B401E2749096883
:1014C000486326480068806B401E24490968886389
:1014D00026A0FEF7D7FE002120480068826B1F4837
:1014E0000068401C815433E00D2C01D00A2C15D12A
:1014F0001A480068416B19480068401CFFF742FF1A
:10150000322116480068401CFEF725FF00201349D1
:101510000968486311490968886319E00F48006841
:10152000426B0E480068401C8454214610A0FEF710
:10153000A9FE0A480068406B401C084909684863D6
:1015400006480068806B401C04490968886300BF36
:1015500076E700006B79202F3E0000006400002039
:101560003100000032000000757000000820080003
:101570002563000010B50BA0FEF784FE0AA0FEF75D
:1015800081FE0FA0FEF77EFE13A0FEF77BFE18A0E3
:10159000FEF778FE1CA0FEF775FE03A0FEF772FEB4
:1015A00010BD00000D0A00002D2D2D2D2D2D2D2DEF
:1015B0002D2D2D2D2D2D2D2D2D2D2D2D0D0A0000F8
:1015C0007C20202020202077656C636F6D652020B3
:1015D0002020207C0D0A00007C20202020206B7918
:1015E0002D746872656164202020207C0D0A000043
:1015F0007C2020202076657273696F6E20206973CD
:101600002020207C0D0A00007C202020202020208B
:101610002056312E302020202020207C0D0A000072
:1016200014E001200A49087001020A48FEF7E8FFA9
:101630000120FFF7D3FB0020054908704FF48071AB
:101640000448FEF7DBFF0120FFF7C8FBE9E70000D5
:1016500000000020000C014015E001200A4908703C
:1016600080210A48FEF7CCFF4FF4FA70FFF7B0FB79
:1016700000200549087080210448FEF7BFFF4FF4A1
:10168000FA70FFF7A5FBE8E701000020000C01401D
:1016900010B586B00446012144F20400FEF7ECFFC9
:1016A0004FF40070ADF8140003208DF816001820D8
:1016B0008DF8170005A91248FEF715FF4FF480605A
:1016C000ADF8140004208DF8170005A90C48FEF7AA
:1016D0000AFF01940020ADF80800ADF80A00ADF84B
:1016E0000C00ADF810000C20ADF80E0001A9054863
:1016F000FFF772F901210348FFF72AF906B010BD80
:1017000000080140003801402817000800000020B0
:1017100068000000280100089017000868000020F9
:1017200038140000440100080000000000A24A0430
:101730000000000000000000010203040607080981
:101740000000000001020304010203040607080967
:101750000204060800000000000000000000000075
:101760000000000000000000000000000000000079
:101770000000000000000000000000000000000069
:10178000000000000000000000000000000E00202B
:04000005080000ED02
:00000001FF
