:020000040800F2
:10000000E82900209D010008F509000857090008AB
:10001000F1090008210800087B0E0008000000001C
:100020000000000000000000000000005D0B000860
:1000300025080008000000003B020008490C0008E9
:10004000B7010008B7010008B7010008B7010008B0
:10005000B7010008B7010008B7010008B7010008A0
:10006000B7010008B7010008B7010008B701000890
:10007000B7010008B7010008B7010008B701000880
:10008000B7010008B7010008B7010008B701000870
:10009000B7010008B7010008B7010008B701000860
:1000A000B7010008B7010008B7010008B701000850
:1000B000B7010008B7010008B7010008B701000840
:1000C000B7010008B7010008B7010008B701000830
:1000D000B7010008B90C0008B7010008B701000813
:1000E000B7010008B7010008B701000800F002F8E6
:1000F00000F045F80AA090E8000C82448344AAF17D
:100100000107DA4501D100F03AF8AFF2090EBAE87A
:100110000F0013F0010F18BFFB1A43F0010318473B
:100120007422000094220000103A24BF78C878C1DD
:10013000FAD8520724BF30C830C144BF04680C60ED
:10014000704700000023002400250026103A28BF35
:1001500078C1FBD8520728BF30C148BF0B60704739
:10016000642900F0F180632900F09482732900F083
:100170009982002070471FB51FBD10B510BD00F05B
:100180001DFB1146FFF7F7FF01F02AFD00F03BFBD6
:1001900003B4FFF7F2FF03BC00F0BEFE094880473E
:1001A00009480047FEE7FEE7FEE7FEE7FEE7FEE759
:1001B000FEE7FEE7FEE7FEE704480549054A064B71
:1001C00070470000590C0008ED000008E8230020EB
:1001D000E8290020E8250020E8250020EFF3108022
:1001E00072B6704780F3108870472349086023492E
:1001F0004FF00000086022494FF0010008602148DC
:100200004FF47F01D0F8002041EA020101601E484E
:100210004FF08051016061B662B6194A1368012B34
:1002200004D04FF001031360144A1060124A1160A9
:1002300015484FF0805101607047EFF3108272B69D
:100240000F48016891B14FF0000101600B4801684F
:1002500029B1EFF3098121E9F00F00680160064937
:1002600009680968B1E8F00F81F3098882F3108802
:100270004EF0040E704700003C00002038000020C3
:100280004000002020ED00E004ED00E07047000099
:100290000FB4044910B503AA029800F007FA10BC85
:1002A0005DF814FB3000002070B5044685690068D5
:1002B000C10601D5302600E02026C00707D070BD5A
:1002C000D4E9012130469047206A401C20626D1E0F
:1002D000F6D570BD70B5044685690078C00707D1B2
:1002E00070BDD4E9012120209047206A401C206283
:1002F0006D1EF6D570BD70B50C460546012A05D0B9
:100300002878800600D5EA69002302E0012305E091
:100310005B1C934202D2E05C0028F9D1A869E61880
:10032000C01AA861286A184428622846FFF7BCFF53
:1003300004E0D5E9012114F8010B9047B442F8D349
:100340002846FFF7C7FF70BD2DE9F041064600249F
:1003500010687529314616A510D0AFF3008000282B
:1003600002DA404213A507E031688A0701D512A5D9
:1003700002E0490704D511A5012401E0AFF3008094
:1003800000210A2206F1240709E0B0FBF2FCB0FBD1
:10039000F2F302FB1C00303078541846491C002848
:1003A000F3D123462A463046BDE8F04100F00FB9AC
:1003B000000000002D0000002B00000020000000C5
:1003C0002DE9F05F894604464FF0000ADFF824B1BA
:1003D000FB44C0F820A02046E168884700287DD073
:1003E000252806D0D4E901219047206A401C2062CC
:1003F000F1E700255F462046E16888472028064649
:1004000007DB312E05D2B81910F8200C08B10543CE
:10041000F1E7A80701D525F00405C4F81CA00027C2
:10042000C4F818A02A2E09D0304600F036FD38B3A3
:1004300004EB8708303EC8F8186019E059F8041B2F
:10044000204604EB87029161E1688847012F064648
:1004500018D1E069002820DA25F020051DE0D8F841
:10046000180000EB800006EB40003038C8F8180098
:100470002046E1688847064600F00FFD0028EED1CF
:10048000012F0AD02E2E08D12046E16888477F1C14
:100490000646022F45F02005C4DBA069002803DAD8
:1004A000404245F00105A061E80701D025F01005A4
:1004B000A6B1A6F14100192802D8203645F40065FE
:1004C0004A463146204625604D46FFF749FE60B159
:1004D000012807D0ED1D25F0070000E007E000F13E
:1004E000080978E705F1040975E730467AE7206ADC
:1004F000BDE8F09FAC1F0000032A40F2308010F0EE
:10050000030C00F0158011F8013BBCF1020F6244AE
:1005100098BF11F801CB00F8013B38BF11F8013B3F
:10052000A2F1040298BF00F801CB38BF00F8013BEC
:1005300011F0030300F0CC80083AC0F0088051F8B5
:10054000043B083A51F804CBA0E80810F5E7121D67
:100550005CBF51F8043B40F8043BAFF30080D20786
:1005600024BF11F8013B11F801CB48BF11F8012B52
:1005700024BF00F8013B00F801CB48BF00F8012B75
:1005800070474FF000020429C0F0128010F0030CF5
:1005900000F0D280CCF1040CBCF1020F18BF00F8BF
:1005A000012BA8BF20F8022BA1EB0C0100F0C4B86E
:1005B0005FEAC17C24BF00F8012B00F8012B48BF83
:1005C00000F8012B704770477047704770472DE95E
:1005D000F0470D4699469246044600F1240801680A
:1005E000880604D5E06921F01001216000E00120B7
:1005F000A84201DD471B00E00027A1697A1902EB40
:100600000900081AA0612078C00602D42046FFF72E
:100610004BFE002608E0D4E901211AF806009047B5
:10062000206A401C761C20624E45F4DB2078C00610
:100630000AD52046FFF738FE06E0D4E90121302034
:100640009047206A401C2062381EA7F10107F4DCA5
:1006500007E0D4E9012118F805009047206A401C02
:100660002062281EA5F10105F3DC2046FFF732FECB
:100670002078000602D50220BDE8F0870120FBE7C4
:1006800010B5436913B1AFF3008001E0FFF733FE0B
:10069000012010BD127800F124010A7000224A7076
:1006A0000122EDE711684FF0FF32E9E7074B70B523
:1006B0000D467B4400F06BF80446284600F07AF8BB
:1006C00010B14FF0FF3070BD204670BDF70A00003A
:1006D00010B5203AC0F00B80B1E81850203AA0E8DD
:1006E0001850B1E81850A0E81850BFF4F5AF5FEA11
:1006F000027C24BFB1E81850A0E8185044BF18C9C4
:1007000018C0BDE810405FEA827C24BF51F8043B6A
:1007100040F8043B08BF7047D20728BF31F8023BBE
:1007200048BF11F8012B28BF20F8023B48BF00F852
:10073000012B70474FF0000200B5134694469646D1
:10074000203922BFA0E80C50A0E80C50B1F12001E4
:10075000BFF4F7AF090728BFA0E80C5048BF0CC092
:100760005DF804EB890028BF40F8042B08BF7047F0
:1007700048BF20F8022B11F0804F18BF00F8012B62
:100780007047000001694A1C02610878704700B593
:100790008FB0CDE901310021059105497944CDE9BA
:1007A000031011466846FFF70BFE0FB000BD0000B6
:1007B000E5FFFFFF007B00F080007047754600F00A
:1007C0002BF8AE4605006946534620F007008546E3
:1007D00018B020B5FFF7F0FCBDE820404FF0000650
:1007E0004FF000074FF000084FF0000B21F0070119
:1007F000AC46ACE8C009ACE8C009ACE8C009ACE85C
:10080000C0098D46704710B50446AFF300802046FE
:10081000BDE81040FFF7BCBC0048704788230020AB
:1008200000BFFEE770472DE9F04102460025002693
:10083000002000230024002791F803C00CF00F05CE
:1008400091F803C00CF0100CBCF1000F03D091F82C
:1008500002C04CEA050591F800C0BCF1000F31D090
:10086000146800202BE04FF0010C0CFA00F3B1F8F3
:1008700000C00CEA03069E4220D183004FF00F0C0B
:100880000CFA03F7BC4305FA03FC4CEA040491F8A4
:1008900003C0BCF1280F06D14FF0010C0CFA00FC8C
:1008A000C2F814C00AE091F803C0BCF1480F05D1AA
:1008B0004FF0010C0CFA00FCC2F810C0401C0828D4
:1008C000D1D31460B1F800C0BCF1FF0F34DD54681F
:1008D00000202EE000F1080C4FF0010808FA0CF39C
:1008E000B1F800C00CEA03069E4221D183004FF00C
:1008F0000F0C0CFA03F7BC4305FA03FC4CEA0404A2
:1009000091F803C0BCF1280F05D100F1080C08FADA
:100910000CF8C2F8148091F803C0BCF1480F07D15D
:1009200000F1080C4FF0010808FA0CF8C2F810802A
:10093000401C0828CED35460BDE8F0810246002058
:1009400093680B400BB1012000E00020704741612B
:1009500070470161704700BFFEE7000008B5012144
:10096000082000F081F840F60200ADF800004820B1
:100970008DF8030003208DF8020069460148FFF757
:1009800052FF08BD000C014008B50121082000F00D
:100990006BF84FF2C010ADF8000010208DF8030086
:1009A00003208DF8020069460F48FFF73CFF4FF225
:1009B000C0110D48FFF7CBFF0121042000F054F8CF
:1009C00040F67F70ADF8000010208DF80300032082
:1009D0008DF8020069460548FFF725FF40F67F7154
:1009E0000248FFF7B4FF08BD000C014000080140B9
:1009F00000BFFEE77047000070B5002100230F2202
:100A0000C47804B3154C246804F4E064C4F5E064CD
:100A1000210AC1F10403CA40447804FA03F184783E
:100A20001440214309010E4C0678A155047804F0C6
:100A30001F050124AC4005786D11AD0005F1E025DE
:100A4000C5F8004109E0047804F01F050124AC401A
:100A5000044D0678761145F8264070BD0CED00E097
:100A600000E400E080E100E029B1064A9269024317
:100A7000044B9A6104E0034A92698243014B9A61F4
:100A8000704700000010024030B500210022002411
:100A900000232D4D6D6805F00C0121B1042905D00E
:100AA000082923D105E0294D056022E0274D056086
:100AB0001FE0254D6D6805F47012234D6D6805F437
:100AC0008034022505EB92421CB9214D5543056047
:100AD0000BE01D4D6D6805F400351DB11C4D5543EF
:100AE000056002E0194D5543056002E0174D0560B1
:100AF00000BF00BF144D6D6805F0F0010909154DE8
:100B00006B5C0568DD4045600F4D6D6805F4E06184
:100B1000090A104D6B5C4568DD4085600A4D6D68C3
:100B200005F46051C90A0B4D6B5C4568DD40C5603A
:100B3000054D6D6805F44041890B074D6B5CC56838
:100B4000B5FBF3F5056130BD0010024000127A00DC
:100B500000093D001C0000202C000020704710B54B
:100B600000F002F810BD00000CB5002001900090CC
:100B70003348006840F480303149086000BF304895
:100B8000006800F4003000900198401C019000982B
:100B900018B90198B0F5A06FF1D12948006800F4A8
:100BA000003010B10120009001E00020009000987A
:100BB000012843D12348006840F010002149086013
:100BC0000846006820F0030008600846006840F00E
:100BD000020008601A4840681949486008464068A1
:100BE00048600846406840F48060486008464068B5
:100BF00020F47C1048600846406840F4E8104860E3
:100C00000846006840F08070086000BF0C4800682B
:100C100000F000700028F9D00948406820F0030077
:100C2000074948600846406840F00200486000BF3D
:100C30000348406800F00C000828F9D10CBD000002
:100C4000001002400020024010B500F0DDFA00F074
:100C500071FE00F0E9FA10BD10B51348006840F0CD
:100C600001001149086008464068104908400E49D3
:100C70004860084600680E4908400B49086008466D
:100C8000006820F4802008600846406820F4FE00D8
:100C900048604FF41F008860FFF761FF4FF000606D
:100CA0000449086010BD0000001002400000FFF879
:100CB000FFFFF6FE08ED00E010B540F225510648B2
:100CC00000F01AF838B1044800F0D2F8C4B2214656
:100CD000024800F026FB10BD00380140B42200207D
:100CE00021B1828942F40052828104E082894DF66A
:100CF000FF731A408281704770B5024600240023BA
:100D00000025002040F66A16B14200D100BFC1F3B1
:100D1000421501F01F03012606FA03F3012D02D14B
:100D20009689334006E0022D02D1168A334001E055
:100D3000968A33400C12012606FA04F416883440D1
:100D400013B10CB1012000E0002070BDF0B50346E6
:100D5000002400260025002040F66A17B94200D181
:100D600000BF1846C1F3421401F01F06012707FA1D
:100D700006F5012C01D10C3004E0022C01D1103019
:100D800000E014301AB107682F43076002E00768DB
:100D9000AF430760F0BD00002DE9F04786B005467F
:100DA0000E460024A24600BFA1460027B08900B12C
:100DB00000BF2F462C8A4CF6FF700440F088044395
:100DC0002C82AC894EF6F3100440B0883189084378
:100DD000718908430443AC81AC8A4FF6FF4004405C
:100DE000B0890443AC8201A8FFF74EFE1F4887423A
:100DF00002D1DDF810A001E0DDF80CA0A88900F414
:100E0000004040B10AEBCA0000EB0A10316849000B
:100E1000B0FBF1F807E00AEBCA0000EB0A103168FA
:100E20008900B0FBF1F86420B8FBF0F00401200960
:100E3000642101FB1089A88900F4004040B13220F0
:100E400000EBC900B0FBF1F000F00700044308E03C
:100E5000322000EB09106421B0FBF1F000F00F002C
:100E600004432C8106B0BDE8F08700000038014043
:100E700001468888C0F30800704700BFFEE70146BE
:100E800009B900207047002201E04910521C01F00E
:100E900001000028F9D01046F4E730380A2801D2C2
:100EA00001207047002070472DE9F04704460E46A8
:100EB00017469846DDF8209084F80990607A20F073
:100EC00001006072E66127620020A062C4F82480FD
:100ED000002506E004F1140101EBC50000F0B4F9AF
:100EE0006D1C012DF6DBBDE8F08710B50246002031
:100EF00001460EE002F1140303EBC100D0E9004308
:100F00006360D0E9003423604060006000BF481C8B
:100F100001460129EEDB10BD014600BF704700000D
:100F200010B5044601A0FFF7B3F910BD1B5B324AB0
:100F30001B5B480010B5044606A0FFF7A9F911A0F5
:100F4000FFF7A6F91DA0FFF7A3F928A0FFF7A0F966
:100F500010BD0000707320202020202020202020A1
:100F600020202020092D4C697374207468726561FB
:100F7000647320696E207468652073797374656D7D
:100F80000D0A000076657273696F6E2020202020A4
:100F900020202020092D73686F77204B592D54682D
:100FA000726561642076657273696F6E20696E6622
:100FB0006F726D6174696F6E0D0A0000636C65611C
:100FC0007220202020202020202009092D636C651C
:100FD000617220746865207465726D696E616C2041
:100FE00073637265656E0D0A000000007265626FC2
:100FF0006F7420202020202020202009092D5265F8
:10100000626F6F742053797374656D0D0A00000070
:1010100030B50F4C0F4D2D6804EB051420600C4CBF
:101020000C4D2D6804EB05146160094C094D2D68C9
:1010300004EB0514A260064C064D2D6804EB051464
:10104000E360044C2468641C024D2C6030BD000039
:10105000781500207000002070B5054627A0FFF726
:1010600017F92CA0FFF714F9002441E02F4850F89D
:10107000240090F838202D4850F8240001682CA056
:10108000FFF706F9294850F8240090F84400012899
:1010900003D12AA0FFF7FCF829E0244850F82400E7
:1010A00090F84400032803D126A0FFF7F1F81EE0D2
:1010B0001E4850F8240090F84400022803D124A0D0
:1010C000FFF7E6F813E0194850F8240090F84400C0
:1010D00018B922A0FFF7DCF809E0144850F8240002
:1010E00090F84400042802D11EA0FFF7D1F8641C38
:1010F0001E4800688442B9D370BD000074687265F0
:1011000061642020202070726920207374617475DE
:10111000730D0A002D2D2D2D2D2D2D2D20202D2D43
:101120002D20202D2D2D2D2D2D0D0A00480A0020BB
:10113000252D38732020252D3564000072656164EB
:10114000790D0A0072756E6E696E670D0A000000F7
:1011500073757370656E640D0A000000696E6974C2
:101160000D0A0000636C6F73650D0A0044000020D7
:10117000012080F3138800BF00BF0748006800F417
:10118000E06006490843001D03490860BFF34F8F24
:1011900000BF00BFFEE700000CED00E00000FA0514
:1011A00010B5044600F082FF10BD000000BF054AE4
:1011B000128802F04002002AF9D0C2B2014B1B1D76
:1011C0001A8070470038014070B503460C4615463A
:1011D000681C20F0070040380146002203E0094E59
:1011E00041F82260521C102AF9D30C6200264E628C
:1011F0008E62CE620E634E638B634FF08076CE6359
:1012000070BD0000EFBEADDE10B5FEF7E7FF04468F
:1012100004480078401C034908702046FEF7E2FFAE
:1012200010BD00005C00002010B5FEF7D7FF04469B
:1012300004480078401E034908702046FEF7D2FF9C
:1012400010BD00005C000020406000607047D0E9E5
:1012500000215160D0E900121160406000607047C9
:1012600070B50C46014623468B4210D29D188D4224
:101270000DD91144134405E05D1E2B462E784D1EFA
:1012800029462E70151EA2F10102F5D108E003E0F7
:1012900013F8015B01F8015B151EA2F10102F7D101
:1012A00070BD02469388106800EB53000078087008
:1012B000B2F90800401E9388B0EB530F05D100230C
:1012C000908863F34F00908007E09088012303EB40
:1012D0005000938860F34F0393800120704710B54E
:1012E000838823F001038380C38823F00103C38034
:1012F0000024838864F34F038380C38864F34F031F
:10130000C380016022F00303038110BD0146C88839
:1013100040088A88B0EB520F01D1012070470020AD
:10132000FCE70246D388106800EB53000170B2F965
:101330000800401ED388B0EB530F05D10023D0889E
:1013400063F34F00D08007E0D088012303EB500007
:10135000D38860F34F03D380012070472DE9F0411B
:10136000FEF73CFF074611480068FFF788FD054679
:101370000F4850F83500A0F110040E480068844270
:101380000ED00D490D700B480668046004F1180179
:1013900006F11800FEF741FF3846FEF723FF02E092
:1013A0003846FEF71FFFBDE8F0810000480000202E
:1013B000700A0020500000204C00002070B5044648
:1013C000FEF70CFF0546012084F8440094F838200D
:1013D0000A4B03EBC20004F11001086042684A6046
:1013E00042681160416000BF0549E06B096808432D
:1013F000034908602846FEF7F5FE70BD700A00201C
:101400004800002070B50446FEF7E8FE054604F1EA
:101410001000D0E900215160D0E900121160406055
:10142000006000BF94F83810094A02EBC10001685F
:10143000814201D1012100E0002129B10548E16B81
:1014400000688843034908602846FEF7CBFE70BD5C
:10145000700A00204800002070B504460B46084979
:101460000D680968491C064E3160064901EB0510FC
:10147000011D4960096000BF8381027070BD0000DA
:101480006C000020E40D00202DE9F0410446002608
:10149000FEF7A4FE0546201D0168814201D101210D
:1014A00000E0002149B900BF6068A0F1100738468C
:1014B00000F088F900BF012602E0A089401CA0814D
:1014C0002846FEF78FFE012E01D1FFF747FF0020CF
:1014D000BDE8F0812DE9F3470646FEF77FFE814621
:1014E000B089002806DDB089401EB0814846FEF76D
:1014F00079FE3EE0019830B94846FEF773FE6FF082
:101500000100BDE8FC8700F077F904460020206464
:10151000351D274696F80080384600F0A5F9B8F149
:10152000000F03D0B8F1010F0BD109E007F1100053
:1015300005606968416069680860686000BF00E034
:1015400000BF00BF00BF0198002809DD01AA0021EB
:1015500004F1480000F048FA04F1480000F072FA83
:101560004846FEF73FFEFFF7F9FE206C08B1206CFD
:10157000C7E70020C5E700001FB500F0E7FDC8225F
:101580000A490B48FFF7ABFE0A204FF48062094B73
:10159000CDE90120009303900023074A07A10948E1
:1015A00000F0C6F8074800F049F91FBDC02200202E
:1015B000B422002078110020851E00087368656C35
:1015C0006C00000004110020024605E0521C491C7A
:1015D000107808B90120704710780B789842F5D040
:1015E0000020F8E70146002000E0401C11F8013B14
:1015F000002BFAD1704770B50346A2B118460C46CD
:1016000000BF14F8016B00F8016B3EB902E0002541
:1016100000F8015B551E2A1EF9D102E0551E2A1E54
:10162000EFD100BF00BF184670BD0000002001468A
:1016300007E0094A02EBC1004060006000BF481C9F
:1016400001462029F5DB1F20044A10700020044ABF
:101650001060044A10607047700A00204C0000209F
:10166000500000204800002070B508480068FFF7CF
:1016700006FC0546064850F83500A0F11004054860
:10168000046004F11800FEF7B0FD70BD48000020B2
:10169000700A00205000002010B5002405E0044925
:1016A00001EBC400FFF7D0FD641C002CF7D010BD87
:1016B0006000002010B50446204600F0A3F810BDDD
:1016C00010B504462046FFF7F5FF10BD10B50446DF
:1016D0004FF47A7104FB01F0FFF7F2FF10BD000038
:1016E00000BF04E002490968491C014A1160F9E79A
:1016F000540000201FB502201F210202074BCDE934
:101700000032CDE902100023054A06A1074800F087
:101710000FF8064800F092F81FBD0000700B002083
:10172000E116000869646C6500000000700D00207F
:101730002DE9FC5F04460D4616461F46DDE90CAB5D
:10174000DDE90E891C481D49096840F821401B4805
:101750000068401C1949086004F1100040600060F6
:1017600000BF2560E6612762C4F824A0C4F828B051
:10177000D4E9093C63441A1FD4E90701FFF724FDAB
:10178000A06184F8398084F838800020E063206408
:1017900084F84400C4F82C90C4F830906063009042
:1017A00001902346064A04F14800216800F038F908
:1017B0000020BDE8FC9F0000480A002044000020F3
:1017C000A318000870B5044694F8440000F00F0018
:1017D000022802D04FF0FF3070BDFEF7FFFC054637
:1017E00004F11000FFF733FD2846FEF7FBFC20460E
:1017F000FFF7E4FD0020EFE70148006870470000B4
:101800005000002031B5FEF7E9FC05460A4804689F
:10181000204600F029F86A46002104F1480000F053
:10182000E3F804F1480000F00DF92846FEF7DAFC71
:10183000FFF794FD38BD00005000002010B50446AD
:101840003834607820702178012088406060022060
:101850002073383C2046FFF7B5FFFFF7CDFF08B1F6
:10186000FFF77CFD002010BD70B5044694F84400DD
:1018700000F00F00012802D04FF0FF3070BDFEF7DE
:10188000ADFC0546022084F844002046FFF7BAFD6F
:1018900004F1480000F040F92846FEF7A3FC0020C0
:1018A000ECE770B5044625466FF00100286405F1A9
:1018B0001000FFF7CCFC2846FFF780FDFFF74EFD38
:1018C00070BD000070B5FEF789FC05461448046839
:1018D00094F8440000F00F0001281CD1D4E9041052
:1018E000814218D004F11000FFF7B1FC94F83820C1
:1018F0000C4B03EBC20004F11001086042684A601F
:1019000042681160416000BF2846FEF76BFCFFF79C
:1019100025FD002070BD2846FEF764FC0020F9E795
:1019200050000020700A0020014800687047000045
:101930005800002010B50A480068401C084908609B
:10194000FFF75AFF0446206B401E2063206B18B936
:10195000E06A2063FFF7B6FF00F004F810BD000056
:101960005800002070B5FFF7DFFF0546FEF736FC94
:10197000064628E01B480068A0F11404A06A281A53
:101980006FF0004188421DD22046FFF7AEFAD4E93D
:1019900007108847FFF7C8FF0546607A00F002008D
:1019A00058B1607A00F0010038B1607A20F001008F
:1019B0006072204600F046F805E0607A20F00100F1
:1019C000607200E008E007480168814201D101210E
:1019D00000E000210029CDD000BF3046FEF702FC18
:1019E00070BD000060000020034649B1012904D009
:1019F000022908D0032910D10AE0586A10600CE0CF
:101A00001068586209E0587A20F00200587204E029
:101A1000587A40F00200587200BF00BF00207047A3
:101A20002DE9F8430646894614461D46DDE9087847
:101A30003B462A4621463046CDF80080FFF734FA6F
:101A4000BDE8F8832DE9F84305460024FEF7C6FB00
:101A500007462846FFF749FA687A20F001006872C5
:101A60003846FEF7BFFBFFF75FFF696A0844A862CC
:101A7000FEF7B4FB0746264E009600BF2AE019E0A9
:101A80005DF824201168142202EBC402881A826ACD
:101A9000AB6AD21A00D108E0826AAB6AD21A6FF040
:101AA00000439A4200D20CE000BF5DF824000068B9
:101AB0004DF824005DF8240006EBC4014968884213
:101AC000DED100BF2CB15DF824000830611C4DF858
:101AD0002100641C002CD2D00E480068401C0D4927
:101AE00008600846D0F8008005F1140100980268EB
:101AF0000A60486002685160016000BF687A40F087
:101B0000010068723846FEF76DFB0020BDE8F883DF
:101B1000600000206800002070B50446607A00F084
:101B2000010010B94FF0FF3070BDFEF757FB0546BE
:101B30002046FFF7DAF92846FEF754FB607A20F0DA
:101B4000010060720020EFE770B5FEF71DFFFEF7A1
:101B500005FF4FF4165000F0C3FB1CA0FEF798FBE6
:101B600000F0A4FAFEF73AFB1A4800684FF47A72C4
:101B7000B0FBF2F1B1F1807F00D31DE021F07F4096
:101B8000401E4FF0E022506150170F22002807DA64
:101B900013071D0E104B00F00F04241F1D5503E00A
:101BA00013071C0E0D4B1C5400BF00204FF0E02209
:101BB00090610720106100BFFFF76EFDFFF736FD53
:101BC000FFF7DAFCFFF796FD70BD00001B5B324AA1
:101BD0001B5B48000800002018ED00E000E400E076
:101BE0001FB5FFF7B1FF0022052127A0FFF734FC46
:101BF0002849086004200221C201274BCDE90032A8
:101C0000CDE902100023254A25A12748FFF790FDC2
:101C10002548FFF713FE022003210202234BCDE9E2
:101C20000032CDE902100023214A22A12348FFF708
:101C30007FFD2248FFF702FE022004210202204B12
:101C4000CDE90032CDE9021000231E4A1EA1204832
:101C5000FFF76EFD1E48FFF7F1FD0220052102028D
:101C60001C4BCDE90032CDE9021000231A4A1BA11A
:101C70001C48FFF75DFD1B48FFF7E0FDFFF7F4FC94
:101C8000002004B010BD0000746573745F73656D4F
:101C9000000000000400002048020020C5210008C8
:101CA000746573743100000078000020480400203F
:101CB000FD2100087465737432000000EC00002000
:101CC0004806002035220008746573743300000054
:101CD00060010020480800208922000874657374A0
:101CE00034000000D40100202DE9F0438BB0814680
:101CF0008846002600250027002411E02D4800EB2F
:101D0000041001684846FFF75FFC40B1761C254689
:101D10000A2F04DA38467F1C01A941F82040641CD0
:101D2000254800688442E9D31EB900200BB0BDE805
:101D3000F083012E24D1002403E020A0FEF7A8FAAE
:101D4000641C4445F9D31B4800EB051001681CA036
:101D5000FEF79EFA174800EB05104268154800EBA5
:101D60000510016817480068401CFFF744FC114843
:101D700000EB0510406813490968C1F8B40017E08A
:101D800011A0FEF785FA00240AE001A850F824000B
:101D9000084A02EB001001680CA0FEF779FA641CF7
:101DA000BC42F2DB08A0FEF773FA09A0FEF770FA56
:101DB00000BFBBE778150020700000200820080055
:101DC00025730000740000200D0A00002573200018
:101DD0006B79202F3E00000008B5FF2000900748D7
:101DE000FFF794FA20B969460448FFF75AFA02E06F
:101DF0000A20FFF765FC9DF8000008BDB422002012
:101E000070B506460D4600241BE0154800EB041093
:101E10004068A84214D1124800EB04100168304613
:101E2000FFF7D2FB60B10E4A02EB0412D0680C4AF5
:101E300002EB0412916888470AA0FEF729FA70BDE8
:101E4000641C0A4800688442DFD309A0FEF720FA28
:101E50000BA0FEF71DFA03A0FEF71AFA00BFEEE78B
:101E6000781500206B79202F3E00000070000020C4
:101E7000636D64206E6F7420666F756E6421000060
:101E80000D0A0000002081490968C1F8B0007F49AF
:101E90000968C1F8AC007EA0FEF7FAF9F5E0FFF79B
:101EA0009BFF0446FF2C00D1EFE0092C09D17748B5
:101EB0000068D0F8B41075480068401CFFF714FFA4
:101EC000E3E0082C24D171480068D0F8B80000B9CC
:101ED000DBE06E480068D0F8B400401E6B4909682A
:101EE000C1F8B40069480068D0F8B800401E6749DE
:101EF0000968C1F8B80068A0FEF7CAF90021634874
:101F00000068D0F8B82061480068401C8154BCE0EB
:101F10000D2C01D00A2C50D160A0FEF7B9F95B4816
:101F20000068D0F8B40028B158480068D0F8B40070
:101F3000322803D356A0FEF7ABF9A6E05348006859
:101F4000401CFFF74FFB054650490968D1F8B02007
:101F50004E490968343101EB82002A464B49096831
:101F6000491CFEF7C9FA49480068D0F8AC00401C8B
:101F700046490968C1F8AC0044480068D0F8AC0094
:101F800042490968C1F8B00040480068D0F8B41070
:101F90003E480068401CFFF733FF32213B48006891
:101FA000401CFEF7EEFA002038490968C1F8B40079
:101FB00036490968C1F8B80067E034480068D0F8CD
:101FC000B80032490968D1F8B41088423ED22F4B8C
:101FD0001B68D3F8B4302D4D2D68D5F8B8505A1B76
:101FE0002A4B1B68D3F8B850284B1B685B1CE918B8
:101FF000264B1B68D3F8B8305B1C244D2D686D1C34
:102000005819FFF72DF921480068D0F8B8101F487B
:102010000068401C44541D480068D0F8B8201B4894
:102020000068401C11181EA0FEF732F9174800681E
:10203000D0F8B85003E01BA0FEF72AF96D1C134836
:102040000068D0F8B400A842F5D81DE00F48006839
:10205000D0F8B4200D480068401C8454214612A0DA
:10206000FEF716F909480068D0F8B400401C07498B
:102070000968C1F8B40005480068D0F8B800401CF1
:1020800002490968C1F8B80000BF08E774000020E1
:102090006B79202F3E000000082008000D0A000088
:1020A00025730000080000002563000010B509A09A
:1020B000FEF7EEF80DA0FEF7EBF812A0FEF7E8F839
:1020C00016A0FEF7E5F81BA0FEF7E2F801A0FEF768
:1020D000DFF810BD2D2D2D2D2D2D2D2D2D2D2D2D40
:1020E0002D2D2D2D2D2D2D2D0D0A00007C20202095
:1020F00020202077656C636F6D6520202020207C78
:102100000D0A00007C20202020206B792D7468723D
:10211000656164202020207C0D0A00007C202020A6
:102120002076657273696F6E202069732020207C91
:102130000D0A00007C202020202020202056312E57
:10214000302020202020207C0D0A000000B5002334
:102150000E4A07210EA0FEF75BFF00230E4A052161
:102160000EA0FEF755FF00230E4A02210EA0FEF737
:102170004FFF00230D4A06210DA0FEF749FF002363
:102180000D4A04210DA0FEF743FF00BDA111000878
:1021900076657273696F6E00210F0008636C65616C
:1021A00072000000591000087073000071110008DF
:1021B0007265626F6F740000350F000868656C709F
:1021C0000000000014E001200A49087001020A48DA
:1021D000FEF7BFFB0120FFF779FA002005490870E0
:1021E0004FF480710448FEF7B2FB0120FFF76EFA4E
:1021F000E9E7000000000020000C014015E001208C
:102200000A49087080210A48FEF7A3FB4FF4FA70D0
:10221000FFF756FA00200549087080210448FEF7B0
:1022200096FB4FF4FA70FFF74BFAE8E70100002045
:10223000000C0140002415E002210B48FEF77EFB54
:1022400068B9002109480068FFF744F904461CB941
:1022500007A0FEF71DF802E008A0FEF719F8C82055
:10226000FFF72EFAE8E70000000C01400400002010
:10227000737563636573730D0A0000006661696CB2
:1022800065640D0A00000000002415E04FF40061B1
:102290000A48FEF753FB60B909480068FFF7F4F8F5
:1022A00004461CB907A0FDF7F3FF02E008A0FDF704
:1022B000EFFFC820FFF704FAE8E70000000C014038
:1022C0000400002072656C656173650D0A000000F2
:1022D00063616E742072656C656173650D0A000040
:1022E00010B586B00446012144F20400FEF7BCFBA1
:1022F0004FF40070ADF8140003208DF8160018207C
:102300008DF8170005A91C48FEF78DFA4FF4806080
:10231000ADF8140004208DF8170005A91648FEF743
:1023200082FA25208DF8000003208DF801008DF839
:10233000020001208DF803006846FEF75DFB019462
:102340000020ADF80800ADF80A00ADF80C00ADF8BB
:1023500010000C20ADF80E0001A90848FEF71CFD86
:10236000012240F225510548FEF7F0FC0121034807
:10237000FEF7B6FC06B010BD000801400038014071
:10238000040000080000000000000002000100003E
:1023900010000000B42300080000002078000000B6
:1023A000280100082C240008780000207029000073
:1023B00044010008000000000000000000A24A04E0
:1023C00000000000000000000102030406070809E5
:1023D00000000000010203040102030406070809CB
:1023E00002040608000000000000000000000000D9
:1023F00000000000000000000000000000000000DD
:1024000000000000000000000000000000000000CC
:1024100000000000000000000000000000000000BC
:0C2420000000000000000000F821002077
:04000005080000ED02
:00000001FF
