:020000040800F2
:10000000580F0020890100087D0400080D04000835
:1000100079040008E9020008E30600080000000077
:10002000000000000000000000000000A104000823
:10003000ED02000800000000270200088D050008FE
:10004000A3010008A3010008A3010008A301000800
:10005000A3010008A3010008A3010008A3010008F0
:10006000A3010008A3010008A3010008A3010008E0
:10007000A3010008A3010008A3010008A3010008D0
:10008000A3010008A3010008A3010008A3010008C0
:10009000A3010008A3010008A3010008A3010008B0
:1000A000A3010008A3010008A3010008A3010008A0
:1000B000A3010008A3010008A3010008A301000890
:1000C000A3010008A3010008A3010008A301000880
:1000D000A3010008FD050008A3010008A301000812
:1000E000A3010008A3010008A301000800F002F822
:1000F00000F03AF80AA090E8000C82448344AAF188
:100100000107DA4501D100F02FF8AFF2090EBAE885
:100110000F0013F0010F18BFFB1A43F0010318473B
:10012000E00A0000000B0000103A24BF78C878C134
:10013000FAD8520724BF30C830C144BF04680C60ED
:10014000704700000023002400250026103A28BF35
:1001500078C1FBD8520728BF30C148BF0B60704739
:100160001FB51FBD10B510BD00F08BF81146FFF78D
:10017000F7FF00F0B7FC00F0A9F803B4FFF7F2FFB7
:1001800003BC00F0BEFA0000094880470948004758
:10019000FEE7FEE7FEE7FEE7FEE7FEE7FEE7FEE737
:1001A000FEE7FEE704480549054A064B7047000094
:1001B0009D050008ED00000858090020580F002098
:1001C000580B0020580B0020EFF3108072B67047D8
:1001D00080F3108870472349086023494FF00000DE
:1001E000086022494FF00100086021484FF47F0168
:1001F000D0F8002041EA020101601E484FF0805112
:10020000016061B662B6194A1368012B04D04FF041
:1002100001031360144A1060124A116015484FF030
:10022000805101607047EFF3108272B60F48016889
:1002300091B14FF0000101600B48016829B1EFF363
:10024000098121E9F00F0068016006490968096821
:10025000B1E8F00F81F3098882F310884EF0040EA4
:10026000704700002400002020000020280000200B
:1002700020ED00E004ED00E07047704770477047E4
:100280007047754600F02CF8AE46050069465346A7
:1002900020F00700854618B020B5FFF783FFBDE8C2
:1002A00020404FF000064FF000074FF000084FF0DD
:1002B000000B21F00701AC46ACE8C009ACE8C0096E
:1002C000ACE8C009ACE8C0098D46704710B50446DB
:1002D000AFF300802046BDE81040FFF74EBF00009E
:1002E00000487047F808002000BFFEE770472DE97E
:1002F000F0410246002500260020002300240027AC
:1003000091F803C00CF00F0591F803C00CF0100C2D
:10031000BCF1000F03D091F802C04CEA050591F83A
:1003200000C0BCF1000F31D0146800202BE04FF06A
:10033000010C0CFA00F3B1F800C00CEA03069E426F
:1003400020D183004FF00F0C0CFA03F7BC4305FAE1
:1003500003FC4CEA040491F803C0BCF1280F06D159
:100360004FF0010C0CFA00FCC2F814C00AE091F83E
:1003700003C0BCF1480F05D14FF0010C0CFA00FC92
:10038000C2F810C0401C0828D1D31460B1F800C0D6
:10039000BCF1FF0F34DD546800202EE000F1080CA2
:1003A0004FF0010808FA0CF3B1F800C00CEA03069C
:1003B0009E4221D183004FF00F0C0CFA03F7BC438F
:1003C00005FA03FC4CEA040491F803C0BCF1280FC1
:1003D00005D100F1080C08FA0CF8C2F8148091F865
:1003E00003C0BCF1480F07D100F1080C4FF0010821
:1003F00008FA0CF8C2F81080401C0828CED35460CC
:10040000BDE8F081416170470161704700BFFEE7C0
:1004100008B50121082000F033F84FF2C010ADF804
:10042000000010208DF8030003208DF802006946BB
:100430000F48FFF75CFF4FF2C0110D48FFF7E2FFD6
:100440000121042000F01CF840F67F70ADF8000098
:1004500010208DF8030003208DF80200694605483E
:10046000FFF745FF40F67F710248FFF7CBFF08BD5D
:10047000000C01400008014000BFFEE7704700008B
:1004800029B1064A92690243044B9A6104E0034A87
:1004900092698243014B9A6170470000001002404C
:1004A000704710B500F002F810BD00000CB5002038
:1004B000019000903348006840F480303149086072
:1004C00000BF3048006800F4003000900198401CE4
:1004D0000190009818B90198B0F5A06FF1D12948A2
:1004E000006800F4003010B10120009001E000200D
:1004F00000900098012843D12348006840F0100084
:10050000214908600846006820F00300086008469A
:10051000006840F0020008601A48406819494860C5
:100520000846406848600846406840F4806048607B
:100530000846406820F47C1048600846406840F453
:10054000E81048600846006840F08070086000BF0E
:100550000C48006800F000700028F9D00948406895
:1005600020F00300074948600846406840F0020058
:10057000486000BF0348406800F00C000828F9D12B
:100580000CBD0000001002400020024010B500F039
:10059000DBF800F081FA00F0E7F810BD10B5134861
:1005A000006840F0010011490860084640681049A1
:1005B00008400E494860084600680E4908400B494B
:1005C00008600846006820F48020086008464068FB
:1005D00020F4FE0048604FF41F008860FFF761FFC1
:1005E0004FF000600449086010BD00000010024098
:1005F0000000FFF8FFFFF6FE08ED00E010B540F246
:1006000025511D4800F03EF810B31B4800F064F877
:10061000C4B21A48008800F40040C8B917480088DE
:1006200000F4804060B10A2C03D0002013490880F8
:1006300020E01248008840F400401049088019E08A
:100640000D2C06D10D48008840F480400B490880ED
:1006500010E00A480088C0F30D0009490C5407480F
:100660000088401C0549088008460088C72801DD2D
:100670000020088010BD0000003801401C00002050
:10068000EC04002070B50246002400230025002061
:1006900040F66A16B14200D100BFC1F3421501F025
:1006A0001F03012606FA03F3012D02D19689334078
:1006B00006E0022D02D1168A334001E0968A3340CB
:1006C0000C12012606FA04F41688344013B10CB15A
:1006D000012000E0002070BD01468888C0F30800BA
:1006E000704700BFFEE7014609B9002070470022AD
:1006F00001E04910521C01F001000028F9D0104619
:10070000F4E7014600BF704770B503460C46154636
:10071000681C20F0070040380146002203E0094E23
:1007200041F82260521C102AF9D30C6200264E6256
:100730008E62CE620E634E638B634FF08076CE6323
:1007400070BD0000EFBEADDE10B5FFF73DFD044605
:1007500004480078401C034908702046FFF738FD24
:1007600010BD00006000002010B5FFF72DFD04460D
:1007700004480078401E034908702046FFF728FD12
:1007800010BD000060000020024600210AE007487A
:1007900000EB01100078904203D1044800EB0110F7
:1007A0007047491C0B29F2DB0020F9E738000020D4
:1007B0002DE9F04104460D4616462846FFF7E4FFB2
:1007C000074645F08000207208223146204600F09E
:1007D00065F8FFF7F9FC8046381D04F10C0102684A
:1007E0000A60486002685160016000BF4046FFF740
:1007F000EFFCBDE8F08100002DE9F041FFF7E4FCDB
:10080000074611480068FFF76EFF05460F4850F88D
:100810003500A0F128040E48006884420ED00D492E
:100820000D700B480668046004F1140106F1140011
:10083000FFF7E9FC3846FFF7CBFC02E03846FFF74C
:10084000C7FCBDE8F08100002C000020B4050020AA
:10085000340000203000002070B50446FFF7B4FCDF
:10086000054694F834200B4B03EBC20004F1280139
:10087000086042684A6042681160416000BF0649F2
:10088000A06B09680843044908602846FFF7A0FCEC
:1008900070BD0000B40500202C00002070B5034698
:1008A000A2B118460C4600BF14F8016B00F8016BAA
:1008B0003EB902E0002500F8015B551E2A1EF9D161
:1008C00002E0551E2A1EEFD100BF00BF184670BDC2
:1008D0000020014607E0094A02EBC10040600060C9
:1008E00000BF481C01462029F5DB1F20044A107078
:1008F0000020044A1060044A10607047B4050020CC
:1009000030000020340000202C00002070B5084882
:100910000068FFF7E8FE0546064850F83500A0F1EC
:1009200028040548046004F11400FFF754FC70BD6E
:100930002C000020B40500203400002070B50546CE
:10094000FFF742FC0646094804682563022084F844
:1009500040000748A16B006888430549086030469D
:10096000FFF736FCFFF748FF70BD000034000020A1
:100970002C00002000BF04E002490968491C014A1C
:100980001160F9E7580000200EB51F204FF40071E8
:10099000064A0023CDE900210290054A05A1074837
:1009A00000F00EF8054800F061F80EBDB406002016
:1009B0007509000869646C6500000000B408002037
:1009C0002DE9F04704460D4616461F46DDE9089A14
:1009D000DDF828802A4600212046FFF7E9FE04F1D1
:1009E00028004060006000BFA661E761C4F8209065
:1009F000C4F824A0D4E9083C63441A1FD4E90601D2
:100A0000FFF782FE606184F8358084F8348000202E
:100A1000A063E06384F84000BDE8F08770B5044649
:100A200094F8400000F00F00022802D04FF0FF3091
:100A300070BDFFF7C9FB054604F12800D0E900218D
:100A40005160D0E9001211604060006000BF28468C
:100A5000FFF7BEFB2046FFF7FFFE0020E8E700009F
:100A600001480068704700003400002010B50446BB
:100A70003434607820702178012088406060022042
:100A80002073343C2046FFF7C9FFFFF7E9FF08B1A8
:100A9000FFF7B2FE002010BD10B50F480068401CE3
:100AA0000D490860002012E00C4951F83010A1F106
:100AB0002804216B51B1216B491E2163216B29B997
:100AC000074AA16B12681143054A1160401C202897
:100AD000EADBFFF791FE10BD5C000020B4050020AA
:100AE0002C0000203EB5FFF793FCFFF76DFB274875
:100AF00000686422B0FBF2F1B1F1807F00D31DE009
:100B000021F07F40401E4FF0E022506150170F222D
:100B1000002807DA13071D0E1D4B00F00F04241FD9
:100B20001D5503E013071C0E1A4B1C5400BF002078
:100B30004FF0E02290610720106100BFFFF7C8FE70
:100B4000FFF722FF02200102134A0023CDE9002112
:100B50000290124A12A11448FFF732FF1248FFF721
:100B600085FF03204FF40071104A0023CDE90021D6
:100B700002900F4A0FA11148FFF722FF0F48FFF71D
:100B800075FFFFF7C3FE00203EBD000004000020FB
:100B900018ED00E000E400E0EC000020C10B0008CC
:100BA000746573743100000064000020EC020020C2
:100BB000E10B00087465737432000000A800002087
:100BC00009E001200449087001020448FFF71CFCF9
:100BD0000220FFF7B3FEF4E700000020000C014004
:100BE00009E001200449087001020448FFF70AFCEB
:100BF0000220FFF7A3FEF4E701000020000C0140F3
:100C0000200C0008000000206400000028010008FB
:100C1000840C000864000020F40E00004401000869
:100C20000000000000A24A040000000000000000D4
:100C3000010203040607080900000000000000008C
:100C400000000000000000000000000000000000A4
:100C50000000000000000000000000003C00002038
:100C60003C000020440000000000000000000000E4
:100C70000000000000000000000000000000000074
:040C80000000000070
:04000005080000ED02
:00000001FF
