:020000040800F2
:1000000098110020910100088D0600081D060008C7
:1000100089060008F9040008CB0A00080000000067
:10002000000000000000000000000000F5070008CC
:10003000FD040008000000002F020008E10800088D
:10004000AB010008AB010008AB010008AB010008E0
:10005000AB010008AB010008AB010008AB010008D0
:10006000AB010008AB010008AB010008AB010008C0
:10007000AB010008AB010008AB010008AB010008B0
:10008000AB010008AB010008AB010008AB010008A0
:10009000AB010008AB010008AB010008AB01000890
:1000A000AB010008AB010008AB010008AB01000880
:1000B000AB010008AB010008AB010008AB01000870
:1000C000AB010008AB010008AB010008AB01000860
:1000D000AB01000851090008AB010008AB010008A2
:1000E000AB010008AB010008AB01000800F002F80A
:1000F00000F03FF80AA090E8000C82448344AAF183
:100100000107DA4501D100F034F8AFF2090EBAE880
:100110000F0013F0010F18BFFB1A43F0010318473B
:10012000E812000008130000103A24BF78C878C114
:10013000FAD8520724BF30C830C144BF04680C60ED
:10014000704700000023002400250026103A28BF35
:1001500078C1FBD8520728BF30C148BF0B60704739
:10016000642900F0CF80002070471FB51FBD10B577
:1001700010BD00F08FF91146FFF7F7FF01F084F88A
:1001800000F0ADF903B4FFF7F2FF03BC00F0E5FCAB
:100190000948804709480047FEE7FEE7FEE7FEE71B
:1001A000FEE7FEE7FEE7FEE7FEE7FEE70448054957
:1001B000054A064B70470000F1080008ED000008F2
:1001C000980B002098110020980D0020980D002019
:1001D000EFF3108072B6704780F3108870472349A0
:1001E000086023494FF00000086022494FF00100E9
:1001F000086021484FF47F01D0F8002041EA020155
:1002000001601E484FF08051016061B662B6194A24
:100210001368012B04D04FF001031360144A1060DF
:10022000124A116015484FF0805101607047EFF39A
:10023000108272B60F48016891B14FF00001016061
:100240000B48016829B1EFF3098121E9F00F00683B
:100250000160064909680968B1E8F00F81F309886F
:1002600082F310884EF0040E704700003800002022
:10027000340000203C00002020ED00E004ED00E010
:10028000704700000FB4044910B503AA029800F0AB
:10029000D3F810BC5DF814FB2C0000202DE9F041D0
:1002A0000E460446002020622046E168884730B3AD
:1002B000252805D0D4E901219047206A401CF2E7A7
:1002C000E168204600278847050018D0A5F14100C5
:1002D000192802D820354FF40067324629462046B7
:1002E0002760FFF73DFF40B1012804D0F61D26F03E
:1002F00007060836D8E7361DD6E72846DAE7206A2B
:10030000BDE8F0812DE9F04106460024106875290A
:10031000314616A510D0AFF30080002802DA404223
:1003200013A507E031688A0701D512A502E0490745
:1003300004D511A5012401E0AFF3008000210A22B9
:1003400006F1240709E0B0FBF2FCB0FBF2F302FB7C
:100350001C00303078541846491C0028F3D123463D
:100360002A463046BDE8F04100F00CB8000000001D
:100370002D0000002B000000200000007047704797
:10038000704770472DE9F0470D469946924604465E
:1003900000F124080168880604D5E06921F0100105
:1003A000216000E00120A84201DD471B00E000279A
:1003B000A1697A1902EB0900081AA0612078C00629
:1003C00002D42046AFF30080002608E0D4E90121E2
:1003D0001AF806009047206A401C761C20624E45A1
:1003E000F4DB2078C0060AD52046AFF3008006E093
:1003F000D4E9012130209047206A401C2062381E39
:10040000A7F10107F4DC07E0D4E9012118F80500A1
:100410009047206A401C2062281EA5F10105F3DCEC
:100420002046AFF300802078000602D50220BDE808
:10043000F0870120FBE70000074B70B50D467B44B9
:1004400000F011F80446284600F020F810B14FF0F3
:10045000FF3070BD204670BD1F07000001694A1CB7
:1004600002610878704700B58FB0CDE901310021F5
:10047000059105497944CDE9031011466846FFF717
:100480000DFF0FB000BD0000E5FFFFFF007B00F097
:1004900080007047754600F02BF8AE4605006946AF
:1004A000534620F00700854618B020B5FFF77EFEC2
:1004B000BDE820404FF000064FF000074FF0000865
:1004C0004FF0000B21F00701AC46ACE8C009ACE8E6
:1004D000C009ACE8C009ACE8C0098D46704710B54A
:1004E0000446AFF300802046BDE81040FFF74ABE47
:1004F00000487047340B002000BFFEE770472DE92D
:10050000F041024600250026002000230024002799
:1005100091F803C00CF00F0591F803C00CF0100C1B
:10052000BCF1000F03D091F802C04CEA050591F828
:1005300000C0BCF1000F31D0146800202BE04FF058
:10054000010C0CFA00F3B1F800C00CEA03069E425D
:1005500020D183004FF00F0C0CFA03F7BC4305FACF
:1005600003FC4CEA040491F803C0BCF1280F06D147
:100570004FF0010C0CFA00FCC2F814C00AE091F82C
:1005800003C0BCF1480F05D14FF0010C0CFA00FC80
:10059000C2F810C0401C0828D1D31460B1F800C0C4
:1005A000BCF1FF0F34DD546800202EE000F1080C90
:1005B0004FF0010808FA0CF3B1F800C00CEA03068A
:1005C0009E4221D183004FF00F0C0CFA03F7BC437D
:1005D00005FA03FC4CEA040491F803C0BCF1280FAF
:1005E00005D100F1080C08FA0CF8C2F8148091F853
:1005F00003C0BCF1480F07D100F1080C4FF001080F
:1006000008FA0CF8C2F81080401C0828CED35460B9
:10061000BDE8F081416170470161704700BFFEE7AE
:1006200008B50121082000F06BF84FF2C010ADF8BA
:10063000000010208DF8030003208DF802006946A9
:100640000F48FFF75CFF4FF2C0110D48FFF7E2FFC4
:100650000121042000F054F840F67F70ADF800004E
:1006600010208DF8030003208DF80200694605482C
:10067000FFF745FF40F67F710248FFF7CBFF08BD4B
:10068000000C01400008014000BFFEE77047000079
:1006900070B5002100230F22C47804B3154C2468E0
:1006A00004F4E064C4F5E064210AC1F10403CA4023
:1006B000447804FA03F184781440214309010E4C74
:1006C0000678A155047804F01F050124AC40057894
:1006D0006D11AD0005F1E025C5F8004109E0047891
:1006E00004F01F050124AC40044D0678761145F84E
:1006F000264070BD0CED00E000E400E080E100E089
:1007000029B1064A92690243044B9A6104E0034A04
:1007100092698243014B9A617047000000100240C9
:1007200030B500210022002400232D4D6D6805F016
:100730000C0121B1042905D0082923D105E0294D58
:10074000056022E0274D05601FE0254D6D6805F42A
:100750007012234D6D6805F48034022505EB92423A
:100760001CB9214D554305600BE01D4D6D6805F426
:1007700000351DB11C4D5543056002E0194D554330
:10078000056002E0174D056000BF00BF144D6D68A5
:1007900005F0F0010909154D6B5C0568DD40456009
:1007A0000F4D6D6805F4E061090A104D6B5C4568FA
:1007B000DD4085600A4D6D6805F46051C90A0B4D36
:1007C0006B5C4568DD40C560054D6D6805F44041D2
:1007D000890B074D6B5CC568B5FBF3F5056130BD52
:1007E0000010024000127A0000093D0018000020AD
:1007F00028000020704710B500F002F810BD00007E
:100800000CB50020019000903348006840F480301F
:100810003149086000BF3048006800F400300090A3
:100820000198401C0190009818B90198B0F5A06F8C
:10083000F1D12948006800F4003010B10120009087
:1008400001E0002000900098012843D1234800686F
:1008500040F01000214908600846006820F00300BD
:1008600008600846006840F0020008601A484068C6
:10087000194948600846406848600846406840F4A6
:10088000806048600846406820F47C104860084654
:10089000406840F4E81048600846006840F0807006
:1008A000086000BF0C48006800F000700028F9D014
:1008B0000948406820F0030007494860084640683E
:1008C00040F00200486000BF0348406800F00C00A0
:1008D0000828F9D10CBD00000010024000200240A1
:1008E00010B500F06BF900F087FB00F077F910BD50
:1008F00010B51348006840F001001149086008462F
:100900004068104908400E494860084600680E4992
:1009100008400B4908600846006820F48020086001
:100920000846406820F4FE0048604FF41F008860CD
:10093000FFF761FF4FF000600449086010BD000040
:10094000001002400000FFF8FFFFF6FE08ED00E097
:1009500010B540F22551074800F01CF848B1054891
:1009600000F0AEF8C4B2312C03D1214602A0FFF74B
:1009700089FC10BD003801402564000021B1828946
:1009800042F40052828104E082894DF6FF731A40DE
:100990008281704770B502460024002300250020A4
:1009A00040F66A16B14200D100BFC1F3421501F012
:1009B0001F03012606FA03F3012D02D19689334065
:1009C00006E0022D02D1168A334001E0968A3340B8
:1009D0000C12012606FA04F41688344013B10CB147
:1009E000012000E0002070BD2DE9F04786B00546EB
:1009F0000E460024A24600BFA1460027B08900B1E0
:100A000000BF2F462C8A4CF6FF700440F088044348
:100A10002C82AC894EF6F3100440B088318908432B
:100A2000718908430443AC81AC8A4FF6FF4004400F
:100A3000B0890443AC8201A8FFF772FE1F488742C9
:100A400002D1DDF810A001E0DDF80CA0A88900F4C7
:100A5000004040B10AEBCA0000EB0A1031684900BF
:100A6000B0FBF1F807E00AEBCA0000EB0A103168AE
:100A70008900B0FBF1F86420B8FBF0F00401200914
:100A8000642101FB1089A88900F4004040B13220A4
:100A900000EBC900B0FBF1F000F00700044308E0F0
:100AA000322000EB09106421B0FBF1F000F00F00E0
:100AB00004432C8106B0BDE8F087000000380140F7
:100AC00001468888C0F30800704700BFFEE7014672
:100AD00009B900207047002201E04910521C01F0C2
:100AE00001000028F9D01046F4E72DE9F04704464C
:100AF0000E4617469846DDF8209084F80990607AF3
:100B000020F001006072E66127620020A062C4F854
:100B10002480002506E004F1140101EBC50000F07B
:100B20006DF86D1C012DF6DBBDE8F08710B50246AF
:100B3000002001460EE002F1140303EBC100D0E9EE
:100B400000436360D0E9003423604060006000BF70
:100B5000481C01460129EEDB10BD014600BF70476D
:100B600000BF054A128802F04002002AF9D0C2B242
:100B7000014B1B1D1A8070470038014070B50346B9
:100B80000C461546681C20F007004038014600223C
:100B900003E0094E41F82260521C102AF9D30C627E
:100BA00000264E628E62CE620E634E638B634FF000
:100BB0008076CE6370BD0000EFBEADDE10B5FFF7EE
:100BC00007FB044604480078401C0349087020468F
:100BD000FFF702FB10BD00005400002010B5FFF726
:100BE000F7FA044604480078401E0349087020467E
:100BF000FFF7F2FA10BD00005400002040600060D2
:100C00007047D0E900215160D0E9001211604060C6
:100C1000006070472DE9F041FFF7DAFA0746114806
:100C20000068FFF754FF05460F4850F83500A0F163
:100C300014040E48006884420ED00D490D700B4814
:100C40000668046004F11C0106F11C00FFF7DFFADE
:100C50003846FFF7C1FA02E03846FFF7BDFABDE8B3
:100C6000F081000040000020C00700204800002064
:100C70004400002070B50446FFF7AAFA054601209B
:100C800084F8440094F838200A4B03EBC20004F1C6
:100C90001401086042684A6042681160416000BF08
:100CA0000549E06B09680843034908602846FFF7D7
:100CB00093FA70BDC00700204000002070B50446C4
:100CC000FFF786FA054604F11400D0E900215160CF
:100CD000D0E9001211604060006000BF94F8381045
:100CE000094A02EBC1000168814201D1012100E003
:100CF000002129B10548E16B006888430349086079
:100D00002846FFF769FA70BDC007002040000020A8
:100D10000020014607E0094A02EBC1004060006084
:100D200000BF481C01462029F5DB1F20044A107033
:100D30000020044A1060044A10607047C007002079
:100D400044000020480000204000002070B5084802
:100D50000068FFF7BCFE0546064850F83500A0F1D4
:100D600014040548046004F11C00FFF738FA70BD54
:100D700040000020C00700204800002010B50024DB
:100D800005E0044901EBC400FFF738FF641C002CA8
:100D9000F7D010BD5800002010B50446204600F0E2
:100DA00093F810BD10B504462046FFF7F5FF10BDBF
:100DB00010B504464FF47A7104FB01F0FFF7F2FF1F
:100DC00010BD000000BF04E002490968491C014A47
:100DD0001160F9E74C0000201FB502201F2102021C
:100DE000074BCDE90032CDE902100023054A06A1E8
:100DF000074800F00FF8064800F082F81FBD000019
:100E0000C0080020C50D000869646C650000000082
:100E1000C00A00202DE9FC5F04468B4615461E469D
:100E2000DDE90C9ADDE90E7804F114004060006001
:100E300000BF25626662C4F82890C4F82CA0D4E9EB
:100E40000A3C63441A1FD4E90801FFF797FEE061EA
:100E500084F8397084F838700020E063206484F8E6
:100E60004400C4F83080C4F8348000902346054A1A
:100E70002146019004F1480000F034F90020BDE85B
:100E8000FC9F0000670F000870B5044694F844000A
:100E900000F00F00022802D04FF0FF3070BDFFF7C6
:100EA00097F9054604F11400FFF7ABFE2846FFF75B
:100EB00093F92046FFF7DEFE0020EFE701480068C7
:100EC000704700004800002031B5FFF781F9054662
:100ED0000A480468204600F029F86A46002104F117
:100EE000480000F0E3F804F1480000F00DF928464E
:100EF000FFF772F9FFF78EFE38BD000048000020B2
:100F000010B504463834607820702178012088407C
:100F1000606002202073383C2046FFF7B5FFFFF7E2
:100F2000CDFF08B1FFF776FE002010BD70B5044676
:100F300094F8440000F00F00012802D04FF0FF3079
:100F400070BDFFF745F90546022084F844002046AD
:100F5000FFF7B4FE04F1480000F040F92846FFF71F
:100F60003BF90020ECE770B5044625466FF0010020
:100F7000286405F11400FFF744FE2846FFF77AFEC7
:100F8000FFF748FE70BD000070B5FFF721F9054678
:100F90001448046894F8440000F00F0001281CD1A4
:100FA000D4E90510814218D004F11400FFF729FE9E
:100FB00094F838200C4B03EBC20004F114010860D4
:100FC00042684A6042681160416000BF2846FFF7EE
:100FD00003F9FFF71FFE002070BD2846FFF7FCF85D
:100FE0000020F9E748000020C00700200148006801
:100FF000704700005000002010B50A480068401CEF
:1010000008490860FFF75AFF0446606B401E6063A2
:10101000606B18B9206B6063FFF7B6FF00F004F84F
:1010200010BD00005000002070B5FFF7DFFF05463F
:10103000FFF7CEF8064628E01B480068A0F114042C
:10104000A06A281A6FF0004188421DD22046FFF79F
:101050006DFDD4E907108847FFF7C8FF0546607AA1
:1010600000F0020058B1607A00F0010038B1607AF7
:1010700020F001006072204600F046F805E0607A3A
:1010800020F00100607200E008E00748016881423A
:1010900001D1012100E000210029CDD000BF304660
:1010A000FFF79AF870BD000058000020034649B1D0
:1010B000012904D0022908D0032910D10AE0586A76
:1010C00010600CE01068586209E0587A20F00200C5
:1010D000587204E0587A40F00200587200BF00BF16
:1010E000002070472DE9F8430646894614461D4600
:1010F000DDE908783B462A4621463046CDF8008097
:10110000FFF7F3FCBDE8F8832DE9F843054600241A
:10111000FFF75EF807462846FFF708FD687A20F0DB
:10112000010068723846FFF757F8FFF75FFF696AFA
:101130000844A862FFF74CF80746264E009600BF09
:101140002AE019E05DF824201168142202EBC402A1
:10115000881A826AAB6AD21A00D108E0826AAB6A46
:10116000D21A6FF000439A4200D20CE000BF5DF843
:10117000240000684DF824005DF8240006EBC4014B
:1011800049688842DED100BF2CB15DF824000830E8
:10119000611C4DF82100641C002CD2D00E48006860
:1011A000401C0D4908600846D0F8008005F1140184
:1011B000009802680A60486002685160016000BFE0
:1011C000687A40F0010068723846FFF705F80020A1
:1011D000BDE8F883580000206000002070B5044688
:1011E000607A00F0010010B94FF0FF3070BDFEF7DB
:1011F000EFFF05462046FFF799FC2846FEF7ECFF77
:10120000607A20F0010060720020EFE770B5FFF710
:1012100007FA4FF4E13000F0ADF8FEF7D9FF1748B8
:1012200000684FF47A72B0FBF2F1B1F1807F00D325
:101230001DE021F07F40401E4FF0E022506150172A
:101240000F22002807DA13071D0E0D4B00F00F04C4
:10125000241F1D5503E013071C0E0A4B1C5400BF2E
:1012600000204FF0E02290610720106100BFFFF7DF
:1012700085FDFFF74DFDFFF7AFFD70BD04000020B9
:1012800018ED00E000E400E01FB5FFF7BFFF042009
:101290000221C201114BCDE90032CDE90210002339
:1012A0000F4A10A11148FFF7B5FD1048FFF728FEBF
:1012B0000220032102020E4BCDE90032CDE90210DB
:1012C00000230C4A0CA10E48FFF7A4FD0C48FFF7C1
:1012D00017FEFFF73BFD002004B010BDC001002049
:1012E0000513000874657374310000006400002069
:1012F000C00300203D1300087465737432000000C1
:10130000D800002014E001200A49087001020A48B0
:10131000FFF782F90120FFF74BFD00200549087017
:101320004FF480710448FFF775F90120FFF740FD85
:10133000E9E7000000000020000C014015E001205A
:101340000A49087080210A48FFF766F94FF4FA70DD
:10135000FFF728FD00200549087080210448FFF7A9
:1013600059F94FF4FA70FFF71DFDE8E7010000207E
:10137000000C014010B586B00446012144F204007F
:10138000FFF7BEF94FF40070ADF8140003208DF89C
:10139000160018208DF8170005A91948FFF7AFF8B7
:1013A0004FF48060ADF8140004208DF8170005A9F3
:1013B0001348FFF7A4F825208DF8000003208DF8CE
:1013C00001008DF8020001208DF803006846FFF748
:1013D0005FF901940020ADF80800ADF80A00ADF8FF
:1013E0000C00ADF810000C20ADF80E0001A9054866
:1013F000FFF7FAFA01210348FFF7C0FA06B010BD63
:1014000000080140003801402814000800000020B6
:1014100064000000280100088C140008640000200B
:1014200034110000440100080000000000A24A043A
:101430000000000000000000010203040607080984
:10144000000000000102030401020304060708096A
:101450000204060800000000000000000000000078
:10146000000000000000000000000000000000007C
:10147000000000000000000000000000000000006C
:0C14800000000000000000000000000060
:04000005080000ED02
:00000001FF
