:020000040800F2
:10000000180F002089010008F7020008EF0200081D
:10001000F3020008E902000857050008000000008C
:10002000000000000000000000000000F9020008CD
:10003000ED02000800000000270200080D0400087F
:10004000A3010008A3010008A3010008A301000800
:10005000A3010008A3010008A3010008A3010008F0
:10006000A3010008A3010008A3010008A3010008E0
:10007000A3010008A3010008A3010008A3010008D0
:10008000A3010008A3010008A3010008A3010008C0
:10009000A3010008A3010008A3010008A3010008B0
:1000A000A3010008A3010008A3010008A3010008A0
:1000B000A3010008A3010008A3010008A301000890
:1000C000A3010008A3010008A3010008A301000880
:1000D000A301000871040008A3010008A30100089F
:1000E000A3010008A3010008A301000800F002F822
:1000F00000F03AF80AA090E8000C82448344AAF188
:100100000107DA4501D100F02FF8AFF2090EBAE885
:100110000F0013F0010F18BFFB1A43F0010318473B
:100120002C0800004C080000103A24BF78C878C1A1
:10013000FAD8520724BF30C830C144BF04680C60ED
:10014000704700000023002400250026103A28BF35
:1001500078C1FBD8520728BF30C148BF0B60704739
:100160001FB51FBD10B510BD00F08BF81146FFF78D
:10017000F7FF00F057FB00F0A9F803B4FFF7F2FF18
:1001800003BC00F0EAF9000009488047094800472D
:10019000FEE7FEE7FEE7FEE7FEE7FEE7FEE7FEE737
:1001A000FEE7FEE704480549054A064B7047000094
:1001B00011040008ED00000818090020180F0020A5
:1001C000180B0020180B0020EFF3108072B6704758
:1001D00080F3108870472349086023494FF00000DE
:1001E000086022494FF00100086021484FF47F0168
:1001F000D0F8002041EA020101601E484FF0805112
:10020000016061B662B6194A1368012B04D04FF041
:1002100001031360144A1060124A116015484FF030
:10022000805101607047EFF3108272B60F48016889
:1002300091B14FF0000101600B48016829B1EFF363
:10024000098121E9F00F0068016006490968096821
:10025000B1E8F00F81F3098882F310884EF0040EA4
:100260007047000028000020240000202C000020FF
:1002700020ED00E004ED00E07047704770477047E4
:100280007047754600F02CF8AE46050069465346A7
:1002900020F00700854618B020B5FFF783FFBDE8C2
:1002A00020404FF000064FF000074FF000084FF0DD
:1002B000000B21F00701AC46ACE8C009ACE8C0096E
:1002C000ACE8C009ACE8C0098D46704710B50446DB
:1002D000AFF300802046BDE81040FFF74EBF00009E
:1002E00000487047B808002000BFFEE7704700BF15
:1002F000FEE700BFFEE77047704710B500F002F858
:1003000010BD00000CB5002001900090334800683B
:1003100040F480303149086000BF3048006800F484
:10032000003000900198401C0190009818B9019885
:10033000B0F5A06FF1D12948006800F4003010B189
:100340000120009001E0002000900098012843D196
:100350002348006840F01000214908600846006802
:1003600020F0030008600846006840F002000860C2
:100370001A4840681949486008464068486008467D
:10038000406840F4806048600846406820F47C1073
:1003900048600846406840F4E81048600846006835
:1003A00040F08070086000BF0C48006800F00070EA
:1003B0000028F9D00948406820F003000749486048
:1003C0000846406840F00200486000BF03484068AB
:1003D00000F00C000828F9D10CBD0000001002400C
:1003E00000200240042808D14FF0E021096941F0C3
:1003F00004014FF0E022116107E04FF0E0210969AC
:1004000021F004014FF0E0221161704770470000B5
:1004100010B51348006840F0010011490860084613
:100420004068104908400E494860084600680E4977
:1004300008400B4908600846006820F480200860E6
:100440000846406820F4FE0048604FF41F008860B2
:10045000FFF753FF4FF000600449086010BD000033
:10046000001002400000FFF8FFFFF6FE08ED00E07C
:1004700010B540F225511D4800F03EF810B31B485E
:1004800000F064F8C4B21A48008800F40040C8B90B
:100490001748008800F4804060B10A2C03D0002087
:1004A0001349088020E01248008840F400401049B9
:1004B000088019E00D2C06D10D48008840F48040DA
:1004C0000B49088010E00A480088C0F30D00094974
:1004D0000C5407480088401C0549088008460088DD
:1004E000C72801DD0020088010BD00000038014051
:1004F00020000020BC04002070B502460024002328
:100500000025002040F66A16B14200D100BFC1F3B9
:10051000421501F01F03012606FA03F3012D02D153
:100520009689334006E0022D02D1168A334001E05D
:10053000968A33400C12012606FA04F416883440D9
:1005400013B10CB1012000E0002070BD0146888885
:10055000C0F30800704700BFFEE7014600BF7047C8
:1005600010B56FF00400FFF73DFF0A4800680A4924
:10057000B0FBF1F0094908700846007800EB400133
:10058000C1EBC0104FF6FF7101EAC00004490880BA
:1005900010BD00000400002000127A0018000020A6
:1005A0001A0000200146114A12884A434FF0E02306
:1005B0005A6100229A611A46126942F001021A61D8
:1005C00000BF4FF0E022106900F001021AB100F400
:1005D0008032002AF5D04FF0E022126922F00102A9
:1005E0004FF0E0231A6100229A6170471A00002040
:1005F00070B503460C461546681C20F007004038CD
:100600000146002203E0094E41F82260521C102AE4
:10061000F9D30C6200264E628E62CE620E634E6388
:100620008B634FF08076CE6370BD0000EFBEADDE11
:10063000086042684A60426811604160704700008B
:10064000024600210AE0074800EB011000789042C2
:1006500003D1044800EB01107047491C0B29F2DB61
:100660000020F9E7340000202DE9F04104460D4652
:1006700016462846FFF7E4FF074645F08000207243
:1006800008223146204600F069F8FFF79DFD8046BC
:10069000381D04F10C0102680A604860026851606C
:1006A000016000BF4046FFF793FDBDE8F081000008
:1006B00070B5264800682649884210D12548006B4D
:1006C00020B922480568234C046036E02248006BBC
:1006D00020B91E480568204C04602EE070BD1B4800
:1006E00000681C49884211D11B48006B20B1174893
:1006F0000568194C046020E014480068006B20B1C4
:1007000012480568124C046017E0E7E70F480068DC
:100710001149884211D10F48006B20B10B48056880
:100720000C4C046009E009480068006B20B10748E0
:100730000568074C046000E0D0E704F1140105F1FE
:100740001400FFF760FD00BFC8E700003000002084
:1007500084080020540000208800002070B5034663
:10076000A2B118460C4600BF14F8016B00F8016BEB
:100770003EB902E0002500F8015B551E2A1EF9D1A2
:1007800002E0551E2A1EEFD100BF00BF184670BD03
:100790000020014607E0074A02EBC100406000600C
:1007A00000BF481C01462029F5DB0020024A1060EA
:1007B00070470000840500203000002010B5054877
:1007C0000068A0F128040448046004F11400FFF755
:1007D00002FD10BD84050020300000202DE9F04707
:1007E00004460D4616461F46DDE908892A460021C3
:1007F0002046FFF739FF04F128004060006000BF89
:10080000A661E761C4F82080C4F82490D4E9083CCC
:1008100063441A1FD4E90601FFF7EAFE6061002075
:10082000BDE8F0877CB5FFF7CFFC2848006864225C
:10083000B0FBF2F1B1F1807F00D31DE021F07F40E9
:10084000401E4FF0E022506150170F22002807DAB7
:1008500013071D0E1E4B00F00F04241F1D5503E04F
:1008600013071C0E1B4B1C5400BF00204FF0E0224E
:1008700090610720106100BFFFF772FEFFF788FF4D
:100880004FF4007014490023144ACDE9001014A15C
:100890001548FFF7A3FF144928311448FFF7C8FE95
:1008A0004FF4007012490023124ACDE9001012A142
:1008B0001348FFF793FF124928310C480830FFF71F
:1008C000B7FEFFF77BFF00207CBD00000400002086
:1008D00018ED00E000E400E0BC000020050900087D
:1008E00074657374310000005400002084050020FA
:1008F000BC020020290900087465737432000000EE
:10090000880000200DE00120064908706420FFF7F0
:1009100049FE0020034908706420FFF743FEFFF7FB
:10092000C7FEF0E7000000200DE001200649087036
:100930006420FFF737FE0020034908706420FFF7AA
:1009400031FEFFF7B5FEF0E7010000206C0900085A
:10095000000000205400000028010008C009000821
:1009600054000020C40E00004401000800000000F4
:1009700000A24A040000000000000000010203047D
:100980000607080900000000000000000000000049
:100990000000000000000000000000000000000057
:1009A0000000000038000020380000203400000063
:1009B0000000000000000000000000000000000037
:04000005080000ED02
:00000001FF
