:020000040800F2
:10000000200F002089010008F7020008EF02000815
:10001000F3020008E90200083B05000800000000A8
:10002000000000000000000000000000F9020008CD
:10003000ED0200080000000027020008E5030008A8
:10004000A3010008A3010008A3010008A301000800
:10005000A3010008A3010008A3010008A3010008F0
:10006000A3010008A3010008A3010008A3010008E0
:10007000A3010008A3010008A3010008A3010008D0
:10008000A3010008A3010008A3010008A3010008C0
:10009000A3010008A3010008A3010008A3010008B0
:1000A000A3010008A3010008A3010008A3010008A0
:1000B000A3010008A3010008A3010008A301000890
:1000C000A3010008A3010008A3010008A301000880
:1000D000A301000855040008A3010008A3010008BB
:1000E000A3010008A3010008A301000800F002F822
:1000F00000F03AF80AA090E8000C82448344AAF188
:100100000107DA4501D100F02FF8AFF2090EBAE885
:100110000F0013F0010F18BFFB1A43F0010318473B
:100120006008000080080000103A24BF78C878C139
:10013000FAD8520724BF30C830C144BF04680C60ED
:10014000704700000023002400250026103A28BF35
:1001500078C1FBD8520728BF30C148BF0B60704739
:100160001FB51FBD10B510BD00F08BF81146FFF78D
:10017000F7FF00F075FB00F0A9F803B4FFF7F2FFFA
:1001800003BC00F0DCF9000009488047094800473B
:10019000FEE7FEE7FEE7FEE7FEE7FEE7FEE7FEE737
:1001A000FEE7FEE704480549054A064B7047000094
:1001B000F5030008ED00000820090020200F0020B2
:1001C000200B0020200B0020EFF3108072B6704748
:1001D00080F3108870472349086023494FF00000DE
:1001E000086022494FF00100086021484FF47F0168
:1001F000D0F8002041EA020101601E484FF0805112
:10020000016061B662B6194A1368012B04D04FF041
:1002100001031360144A1060124A116015484FF030
:10022000805101607047EFF3108272B60F48016889
:1002300091B14FF0000101600B48016829B1EFF363
:10024000098121E9F00F0068016006490968096821
:10025000B1E8F00F81F3098882F310884EF0040EA4
:10026000704700002400002020000020280000200B
:1002700020ED00E004ED00E07047704770477047E4
:100280007047754600F02CF8AE46050069465346A7
:1002900020F00700854618B020B5FFF783FFBDE8C2
:1002A00020404FF000064FF000074FF000084FF0DD
:1002B000000B21F00701AC46ACE8C009ACE8C0096E
:1002C000ACE8C009ACE8C0098D46704710B50446DB
:1002D000AFF300802046BDE81040FFF74EBF00009E
:1002E00000487047C008002000BFFEE7704700BF0D
:1002F000FEE700BFFEE77047704710B500F002F858
:1003000010BD00000CB5002001900090334800683B
:1003100040F480303149086000BF3048006800F484
:10032000003000900198401C0190009818B9019885
:10033000B0F5A06FF1D12948006800F4003010B189
:100340000120009001E0002000900098012843D196
:100350002348006840F01000214908600846006802
:1003600020F0030008600846006840F002000860C2
:100370001A4840681949486008464068486008467D
:10038000406840F4806048600846406820F47C1073
:1003900048600846406840F4E81048600846006835
:1003A00040F08070086000BF0C48006800F00070EA
:1003B0000028F9D00948406820F003000749486048
:1003C0000846406840F00200486000BF03484068AB
:1003D00000F00C000828F9D10CBD0000001002400C
:1003E0000020024010B500F0CDF800F01DFA00F03A
:1003F000D9F810BD10B51348006840F0010011494C
:10040000086008464068104908400E4948600846A0
:1004100000680E4908400B4908600846006820F44F
:10042000802008600846406820F4FE0048604FF4D1
:100430001F008860FFF761FF4FF00060044908600B
:1004400010BD0000001002400000FFF8FFFFF6FEA4
:1004500008ED00E010B540F225511D4800F03EF8CF
:1004600010B31B4800F064F8C4B21A48008800F4C6
:100470000040C8B91748008800F4804060B10A2CD9
:1004800003D000201349088020E01248008840F47F
:1004900000401049088019E00D2C06D10D48008855
:1004A00040F480400B49088010E00A480088C0F3FF
:1004B0000D0009490C5407480088401C0549088074
:1004C00008460088C72801DD0020088010BD000014
:1004D000003801401C000020C404002070B5024612
:1004E000002400230025002040F66A16B14200D106
:1004F00000BFC1F3421501F01F03012606FA03F302
:10050000012D02D19689334006E0022D02D1168AD0
:10051000334001E0968A33400C12012606FA04F4B7
:100520001688344013B10CB1012000E0002070BDEA
:1005300001468888C0F30800704700BFFEE7014607
:1005400000BF704770B503460C461546681C20F086
:10055000070040380146002203E0094E41F82260BE
:10056000521C102AF9D30C6200264E628E62CE62B3
:100570000E634E638B634FF08076CE6370BD0000D8
:10058000EFBEADDE10B5FFF71FFE0446044800784D
:10059000401C034908702046FFF71AFE10BD0000FA
:1005A0005800002010B5FFF70FFE044604480078FD
:1005B000401E034908702046FFF70AFE10BD0000E8
:1005C00058000020086042684A604268116041603B
:1005D00070470000024600210AE0074800EB0110C6
:1005E0000078904203D1044800EB01107047491C89
:1005F0000B29F2DB0020F9E7300000202DE9F04163
:1006000004460D4616462846FFF7E4FF074645F028
:100610008000207208223146204600F069F8FFF77A
:10062000D3FD8046381D04F10C0102680A60486061
:1006300002685160016000BF4046FFF7C9FDBDE898
:10064000F081000070B5264800682649884210D124
:100650002548006B20B922480568234C046036E029
:100660002248006B20B91E480568204C04602EE02B
:1006700070BD1B4800681C49884211D11B48006BA3
:1006800020B117480568194C046020E01448006840
:10069000006B20B112480568124C046017E0E7E7D0
:1006A0000F4800681149884211D10F48006B20B1F2
:1006B0000B4805680C4C046009E009480068006BB1
:1006C00020B107480568074C046000E0D0E704F15A
:1006D000140105F11400FFF796FD00BFC8E7000004
:1006E0002C0000208C0800205C00002090000020DE
:1006F00070B50346A2B118460C4600BF14F8016B52
:1007000000F8016B3EB902E0002500F8015B551EC0
:100710002A1EF9D102E0551E2A1EEFD100BF00BFEC
:10072000184670BD0020014607E0074A02EBC100F1
:100730004060006000BF481C01462029F5DB002016
:10074000024A1060704700008C0500202C00002039
:1007500010B505480068A0F128040448046004F1BD
:100760001400FFF738FD10BD8C0500202C00002080
:1007700070B50446024805682C63FFF763FF70BD3F
:100780002C00002000BF04E002490968491C014A0E
:100790001160F9E7500000201CB54FF400700A49C1
:1007A00000230A4ACDE9001009A10B4800F018F80F
:1007B0000A490948283001604A6842604A68106066
:1007C000486000BF1CBD00008C06002085070008A3
:1007D00069646C65000000008C080020840600201D
:1007E0002DE9F04704460D4616461F46DDE9088907
:1007F0002A4600212046FFF701FF04F1280040604F
:10080000006000BFA661E761C4F82080C4F82490AE
:10081000D4E9083C63441A1FD4E90601FFF792FEAD
:1008200060610020BDE8F08710B50B480068401CEF
:100830000949086000200AE0084951F83010A1F188
:100840002804216B11B1216B491E2163401C202813
:10085000F2D3FFF7F7FE10BD540000208C050020F6
:100860007CB5FFF7B1FC284800686422B0FBF2F1C8
:10087000B1F1807F00D31DE021F07F40401E4FF09A
:10088000E022506150170F22002807DA13071D0ECF
:100890001E4B00F00F04241F1D5503E013071C0E10
:1008A0001B4B1C5400BF00204FF0E022906107203A
:1008B000106100BFFFF736FFFFF76EFF4FF40070C7
:1008C00014490023144ACDE9001014A11548FFF77C
:1008D00087FF144928311448FFF774FE4FF4007065
:1008E00012490023124ACDE9001012A11348FFF764
:1008F00077FF124928310C480830FFF763FEFFF7F5
:1009000027FF00207CBD00000400002018ED00E05F
:1009100000E400E0C400002041090008746573741D
:10092000310000005C0000208C050020C402002083
:1009300061090008746573743200000090000020A3
:100940000BE00120054908700220FFF711FF00208D
:10095000024908700220FFF70BFFF2E700000020B9
:100960000BE00120054908700220FFF701FF00207D
:10097000024908700220FFF7FBFEF2E701000020A9
:10098000A0090008000000205C0000002801000809
:10099000FC0900085C000020C40E000044010008AF
:1009A0000000000000A24A04000000000000000057
:1009B000010203040607080900000000000000000F
:1009C0000000000000000000000000000000000027
:1009D000000000003400002034000020340000003B
:1009E0000000000000000000000000000000000007
:0C09F000000000000000000000000000FB
:04000005080000ED02
:00000001FF
