:020000040800F2
:10000000C00C002089010008E7020008DF02000898
:10001000E3020008D90200084705000800000000BC
:10002000000000000000000000000000E9020008DD
:10003000DD0200080000000019020008FD030008AE
:10004000A3010008A3010008A3010008A301000800
:10005000A3010008A3010008A3010008A3010008F0
:10006000A3010008A3010008A3010008A3010008E0
:10007000A3010008A3010008A3010008A3010008D0
:10008000A3010008A3010008A3010008A3010008C0
:10009000A3010008A3010008A3010008A3010008B0
:1000A000A3010008A3010008A3010008A3010008A0
:1000B000A3010008A3010008A3010008A301000890
:1000C000A3010008A3010008A3010008A301000880
:1000D000A301000861040008A3010008A3010008AF
:1000E000A3010008A3010008A301000800F002F822
:1000F00000F03AF80AA090E8000C82448344AAF188
:100100000107DA4501D100F02FF8AFF2090EBAE885
:100110000F0013F0010F18BFFB1A43F0010318473B
:10012000A8060000C8060000103A24BF78C878C1AD
:10013000FAD8520724BF30C830C144BF04680C60ED
:10014000704700000023002400250026103A28BF35
:1001500078C1FBD8520728BF30C148BF0B60704739
:100160001FB51FBD10B510BD00F083F81146FFF795
:10017000F7FF00F0C5FA00F0A1F803B4FFF7F2FFB3
:1001800003BC00F0E2F90000094880470948004735
:10019000FEE7FEE7FEE7FEE7FEE7FEE7FEE7FEE737
:1001A000FEE7FEE704480549054A064B7047000094
:1001B00001040008ED000008C0060020C00C00206B
:1001C000C0080020C00800202249086022494FF0E2
:1001D0000000086021494FF00100086020484FF4FA
:1001E0007F01D0F8002041EA020101601D484FF074
:1001F0008051016061B662B6184A1368012B04D0C1
:100200004FF001031360144A1060124A1160154840
:100210004FF0805101607047EFF3108272B60F48C3
:10022000016891B14FF0000101600B48016829B1EC
:10023000EFF3098121E9F00F0068016005490968C1
:100240000968B1E8F00F81F3098882F310884EF055
:10025000040E704728000020240000202C000020FD
:1002600020ED00E004ED00E07047704770477047F4
:100270007047754600F02CF8AE46050069465346B7
:1002800020F00700854618B020B5FFF78BFFBDE8CA
:1002900020404FF000064FF000074FF000084FF0ED
:1002A000000B21F00701AC46ACE8C009ACE8C0097E
:1002B000ACE8C009ACE8C0098D46704710B50446EB
:1002C000AFF300802046BDE81040FFF756BF0000A6
:1002D000004870475C06002000BFFEE7704700BF83
:1002E000FEE700BFFEE77047704710B500F002F868
:1002F00010BD00000CB5002001900090334800684C
:1003000040F480303149086000BF3048006800F494
:10031000003000900198401C0190009818B9019895
:10032000B0F5A06FF1D12948006800F4003010B199
:100330000120009001E0002000900098012843D1A6
:100340002348006840F01000214908600846006812
:1003500020F0030008600846006840F002000860D2
:100360001A4840681949486008464068486008468D
:10037000406840F4806048600846406820F47C1083
:1003800048600846406840F4E81048600846006845
:1003900040F08070086000BF0C48006800F00070FA
:1003A0000028F9D00948406820F003000749486058
:1003B0000846406840F00200486000BF03484068BB
:1003C00000F00C000828F9D10CBD0000001002401C
:1003D00000200240042808D14FF0E021096941F0D3
:1003E00004014FF0E022116107E04FF0E0210969BC
:1003F00021F004014FF0E0221161704770470000C6
:1004000010B51348006840F0010011490860084623
:100410004068104908400E494860084600680E4987
:1004200008400B4908600846006820F480200860F6
:100430000846406820F4FE0048604FF41F008860C2
:10044000FFF753FF4FF000600449086010BD000043
:10045000001002400000FFF8FFFFF6FE08ED00E08C
:1004600010B540F225511D4800F03EF810B31B486E
:1004700000F064F8C4B21A48008800F40040C8B91B
:100480001748008800F4804060B10A2C03D0002097
:100490001349088020E01248008840F400401049C9
:1004A000088019E00D2C06D10D48008840F48040EA
:1004B0000B49088010E00A480088C0F30D00094984
:1004C0000C5407480088401C0549088008460088ED
:1004D000C72801DD0020088010BD00000038014061
:1004E000200000209404002070B502460024002360
:1004F0000025002040F66A16B14200D100BFC1F3CA
:10050000421501F01F03012606FA03F3012D02D163
:100510009689334006E0022D02D1168A334001E06D
:10052000968A33400C12012606FA04F416883440E9
:1005300013B10CB1012000E0002070BD0146888895
:10054000C0F30800704700BFFEE7014600BF7047D8
:1005500010B56FF00400FFF73DFF0A4800680A4934
:10056000B0FBF1F0094908700846007800EB400143
:10057000C1EBC0104FF6FF7101EAC00004490880CA
:1005800010BD00000400002000127A0018000020B6
:100590001A0000200146114A12884A434FF0E02316
:1005A0005A6100229A611A46126942F001021A61E8
:1005B00000BF4FF0E022106900F001021AB100F410
:1005C0008032002AF5D04FF0E022126922F00102B9
:1005D0004FF0E0231A6100229A6170471A00002050
:1005E00070B503460C461546681C20F007004038DD
:1005F0000146002203E0094E41F82260521C102AF5
:10060000F9D30C6200264E628E62CE620E634E6398
:100610008B634FF08076CE6370BD0000EFBEADDE21
:10062000086042684A60426811604160704700009B
:1006300070B50F48006828380E490968884208D10B
:100640000C4805680A488068A0F12804094804603D
:1006500007E00848056806480068A0F12804054836
:10066000046004F1140105F11400FFF7C5FD70BD2D
:100670005C050020300000200020014607E0074A0A
:1006800002EBC1004060006000BF481C0146202909
:10069000F5DB0020024A1060704700005C05002076
:1006A0003000002010B505480068A0F12804044877
:1006B000046004F11400FFF787FD10BD5C05002005
:1006C000300000202DE9F0470446894615461E46B5
:1006D000DDE9087804F128004060006000BFA561F2
:1006E000E6612762C4F82480D4E9083C63441A1FF9
:1006F000D4E90601FFF774FF60610020BDE8F087D0
:100700001CB5FFF725FFFFF7B7FF4FF40070114945
:100710000023114ACDE9001010A11248FFF7D2FFC3
:10072000104928311048FFF77BFF4FF400700F4944
:1007300000230F4ACDE900100EA11048FFF7C2FFB9
:100740000E49283108480830FFF76AFFFFF7AAFF73
:1007500000201CBD9400002081070008746573749C
:1007600031000000340000205C05002094020020CD
:10077000A50700087465737432000000640000204F
:100780000DE00120064908706420FFF703FF0020F8
:10079000034908706420FFF7FDFEFFF749FFF0E70B
:1007A000000000200DE00120064908706420FFF7DA
:1007B000F1FE0020034908706420FFF7EBFEFFF70D
:1007C00037FFF0E701000020E807000800000020E4
:1007D00034000000280100081C0800083400002034
:1007E0008C0C0000440100080000000000A24A0434
:1007F00000000000000000000102030406070809D1
:1008000000000000000000000000000000000000E8
:0C081000000000000000000000000000DC
:04000005080000ED02
:00000001FF
