:020000040800F2
:10000000581200208901000879040008090400083A
:1000100075040008E9020008DF060008000000007F
:100020000000000000000000000000009D04000827
:10003000ED02000800000000270200088905000802
:10004000A3010008A3010008A3010008A301000800
:10005000A3010008A3010008A3010008A3010008F0
:10006000A3010008A3010008A3010008A3010008E0
:10007000A3010008A3010008A3010008A3010008D0
:10008000A3010008A3010008A3010008A3010008C0
:10009000A3010008A3010008A3010008A3010008B0
:1000A000A3010008A3010008A3010008A3010008A0
:1000B000A3010008A3010008A3010008A301000890
:1000C000A3010008A3010008A3010008A301000880
:1000D000A3010008F9050008A3010008A301000816
:1000E000A3010008A3010008A301000800F002F822
:1000F00000F03AF80AA090E8000C82448344AAF188
:100100000107DA4501D100F02FF8AFF2090EBAE885
:100110000F0013F0010F18BFFB1A43F0010318473B
:10012000440E0000640E0000103A24BF78C878C165
:10013000FAD8520724BF30C830C144BF04680C60ED
:10014000704700000023002400250026103A28BF35
:1001500078C1FBD8520728BF30C148BF0B60704739
:100160001FB51FBD10B510BD00F08BF81146FFF78D
:10017000F7FF00F041FE00F0A9F803B4FFF7F2FF2B
:1001800003BC00F0F4FA0000094880470948004722
:10019000FEE7FEE7FEE7FEE7FEE7FEE7FEE7FEE737
:1001A000FEE7FEE704480549054A064B7047000094
:1001B00099050008ED000008580C00205812002096
:1001C000580E0020580E0020EFF3108072B67047D2
:1001D00080F3108870472349086023494FF00000DE
:1001E000086022494FF00100086021484FF47F0168
:1001F000D0F8002041EA020101601E484FF0805112
:10020000016061B662B6194A1368012B04D04FF041
:1002100001031360144A1060124A116015484FF030
:10022000805101607047EFF3108272B60F48016889
:1002300091B14FF0000101600B48016829B1EFF363
:10024000098121E9F00F0068016006490968096821
:10025000B1E8F00F81F3098882F310884EF0040EA4
:10026000704700002400002020000020280000200B
:1002700020ED00E004ED00E07047704770477047E4
:100280007047754600F02CF8AE46050069465346A7
:1002900020F00700854618B020B5FFF783FFBDE8C2
:1002A00020404FF000064FF000074FF000084FF0DD
:1002B000000B21F00701AC46ACE8C009ACE8C0096E
:1002C000ACE8C009ACE8C0098D46704710B50446DB
:1002D000AFF300802046BDE81040FFF74EBF00009E
:1002E00000487047F80B002000BFFEE770472DE97B
:1002F000F0410246002500260020002300240027AC
:1003000091F803C00CF00F0591F803C00CF0100C2D
:10031000BCF1000F03D091F802C04CEA050591F83A
:1003200000C0BCF1000F31D0146800202BE04FF06A
:10033000010C0CFA00F3B1F800C00CEA03069E426F
:1003400020D183004FF00F0C0CFA03F7BC4305FAE1
:1003500003FC4CEA040491F803C0BCF1280F06D159
:100360004FF0010C0CFA00FCC2F814C00AE091F83E
:1003700003C0BCF1480F05D14FF0010C0CFA00FC92
:10038000C2F810C0401C0828D1D31460B1F800C0D6
:10039000BCF1FF0F34DD546800202EE000F1080CA2
:1003A0004FF0010808FA0CF3B1F800C00CEA03069C
:1003B0009E4221D183004FF00F0C0CFA03F7BC438F
:1003C00005FA03FC4CEA040491F803C0BCF1280FC1
:1003D00005D100F1080C08FA0CF8C2F8148091F865
:1003E00003C0BCF1480F07D100F1080C4FF0010821
:1003F00008FA0CF8C2F81080401C0828CED35460CC
:10040000BDE8F0814161704700BFFEE708B50121FA
:10041000082000F033F84FF2C010ADF800001020B3
:100420008DF8030003208DF8020069460F48FFF79E
:100430005EFF4FF2C0110D48FFF7E4FF01210420D9
:1004400000F01CF840F67F70ADF8000010208DF829
:10045000030003208DF8020069460548FFF747FFB7
:1004600040F67F710248FFF7CDFF08BD000C014048
:100470000008014000BFFEE77047000029B1064AAE
:1004800092690243044B9A6104E0034A92698243F1
:10049000014B9A617047000000100240704710B590
:1004A00000F002F810BD00000CB500200190009093
:1004B0003348006840F480303149086000BF30485C
:1004C000006800F4003000900198401C01900098F2
:1004D00018B90198B0F5A06FF1D12948006800F46F
:1004E000003010B10120009001E000200090009841
:1004F000012843D12348006840F0100021490860DA
:100500000846006820F0030008600846006840F0D4
:10051000020008601A484068194948600846406867
:1005200048600846406840F480604860084640687B
:1005300020F47C1048600846406840F4E8104860A9
:100540000846006840F08070086000BF0C480068F2
:1005500000F000700028F9D00948406820F003003E
:10056000074948600846406840F00200486000BF04
:100570000348406800F00C000828F9D10CBD0000C9
:10058000001002400020024010B500F013F900F006
:100590002FFB00F01FF910BD10B51348006840F0A4
:1005A00001001149086008464068104908400E499A
:1005B0004860084600680E4908400B490860084634
:1005C000006820F4802008600846406820F4FE009F
:1005D00048604FF41F008860FFF761FF4FF0006034
:1005E0000449086010BD0000001002400000FFF840
:1005F000FFFFF6FE08ED00E010B540F225511D4862
:1006000000F03EF810B31B4800F064F8C4B21A487A
:10061000008800F40040C8B91748008800F4804002
:1006200060B10A2C03D000201349088020E0124852
:10063000008840F400401049088019E00D2C06D1D4
:100640000D48008840F480400B49088010E00A48BB
:100650000088C0F30D0009490C5407480088401C6D
:100660000549088008460088C72801DD0020088069
:1006700010BD0000003801401C000020C007002011
:1006800070B50246002400230025002040F66A16BB
:10069000B14200D100BFC1F3421501F01F03012692
:1006A00006FA03F3012D02D19689334006E0022DAC
:1006B00002D1168A334001E0968A33400C1201269B
:1006C00006FA04F41688344013B10CB1012000E09E
:1006D000002070BD01468888C0F30800704700BF45
:1006E000FEE7014609B900207047002201E04910E9
:1006F000521C01F001000028F9D01046F4E72DE962
:10070000F04704460E4617469846DDF8209084F8D8
:100710000990607A20F001006072E6612762002093
:10072000A062C4F82480002506E004F1140101EB66
:10073000C50000F05FF86D1C012DF6DBBDE8F08709
:1007400010B50246002001460EE002F1140303EB4F
:10075000C100D0E900436360D0E900342360406009
:10076000006000BF481C01460129EEDB10BD0146B8
:1007700000BF704770B503460C461546681C20F054
:10078000070040380146002203E0094E41F822608C
:10079000521C102AF9D30C6200264E628E62CE6281
:1007A0000E634E638B634FF08076CE6370BD0000A6
:1007B000EFBEADDE10B5FFF707FD04460448007834
:1007C000401C034908702046FFF702FD10BD0000E1
:1007D0006000002010B5FFF7F7FC044604480078DD
:1007E000401E034908702046FFF7F2FC10BD0000D0
:1007F00060000020406000607047D0E90021516037
:10080000D0E900121160406000607047024600218C
:100810000AE0074800EB01100078904203D1044839
:1008200000EB01107047491C0B29F2DB0020F9E7AF
:10083000380000202DE9F04104460D4616462846B2
:10084000FFF7E4FF074645F080002072082231469A
:10085000204600F091F8FFF7B7FC8046381D04F100
:100860000C0102680A60486002685160016000BFC4
:100870004046FFF7ADFCBDE8F08100002DE9F041F6
:10088000FFF7A2FC074611480068FFF72AFF05465C
:100890000F4850F83500A0F114040E480068844257
:1008A0000ED00D490D700B480668046004F11C0160
:1008B00006F11C00FFF7A7FC3846FFF789FC02E0B1
:1008C0003846FFF785FCBDE8F08100002C000020D1
:1008D00088080020340000203000002070B5044655
:1008E000FFF772FC0546012084F8400094F834209C
:1008F0000A4B03EBC20004F11401086042684A602D
:1009000042681160416000BF0549A06B0968084357
:10091000034908602846FFF75BFC70BD880800208B
:100920002C00002070B50446FFF74EFC054604F18C
:100930001400D0E900215160D0E90012116040603C
:10094000006000BF94F83410094A02EBC10001684E
:10095000814201D1012100E0002129B10548A16BAC
:1009600000688843034908602846FFF731FC70BDE2
:10097000880800202C00002070B50346A2B118465C
:100980000C4600BF14F8016B00F8016B3EB902E0A1
:10099000002500F8015B551E2A1EF9D102E0551E04
:1009A0002A1EEFD100BF00BF184670BD00200146CF
:1009B00007E0094A02EBC1004060006000BF481C2C
:1009C00001462029F5DB1F20044A10700020044A4C
:1009D0001060044A10607047880800203000002032
:1009E000340000202C00002070B508480068FFF794
:1009F00078FE0546064850F83500A0F11404054875
:100A0000046004F11C00FFF7E6FB70BD2C00002021
:100A1000880800203400002010B50446204600F06D
:100A200081F810BD00BF04E002490968491C014A71
:100A30001160F9E7580000200EB51F204FF4007137
:100A4000064A0023CDE900210290054A05A1074886
:100A500000F00EF8054800F081F80EBD880900206E
:100A6000250A000869646C6500000000880B0020FE
:100A70002DE9FC4704460D4616461F46DDE90A9A55
:100A8000DDF830802A4600212046FFF7D3FE04F12E
:100A900014004060006000BF26626762C4F82890BE
:100AA000C4F82CA0D4E90A3C63441A1FD4E9080115
:100AB000FFF760FEE06184F8358084F83480002020
:100AC000A063E06384F8400000902346044A214676
:100AD000019004F1440000F0F5F80020BDE8FC8727
:100AE000C30B000870B5044694F8400000F00F00F6
:100AF000022802D04FF0FF3070BDFFF765FB0546BE
:100B000004F11400FFF779FE2846FFF761FB204649
:100B1000FFF7E4FE0020EFE701480068704700009F
:100B20003400002031B5FFF74FFB05460A48046842
:100B3000204600F029F86A46002104F1440000F044
:100B4000A5F804F1440000F0D5F82846FFF740FB73
:100B5000FFF794FE38BD00003400002010B50446B5
:100B60003434607820702178012088406060022051
:100B70002073343C2046FFF7B5FFFFF7CDFF08B1E7
:100B8000FFF77CFE002010BD70B5044694F84000CD
:100B900000F00F00012802D04FF0FF3070BDFFF7CA
:100BA00013FB0546022084F840002046FFF7BAFEFA
:100BB00004F1440000F008F92846FFF709FB002083
:100BC000ECE770B5044625466FF00100E86305F1D7
:100BD0001400FFF712FE2846FFF780FEFFF74EFED7
:100BE00070BD000001480068704700005C000020F4
:100BF00010B504480068401C0249086000F004F881
:100C000010BD00005C00002070B5FFF7EBFF05464B
:100C1000FFF7DAFA064628E01B480068A0F1140442
:100C2000A06A281A6FF0004188421DD22046FFF7C3
:100C300087FDD4E907108847FFF7D4FF0546607A9F
:100C400000F0020058B1607A00F0010038B1607A1B
:100C500020F001006072204600F04CF805E0607A58
:100C600020F00100607200E008E00748016881425E
:100C700001D1012100E000210029CDD000BF304684
:100C8000FFF7A6FA70BD000064000020034649B1DA
:100C9000012904D0022908D0032910D10AE0586A9A
:100CA00010600CE01068586209E0587A20F00200E9
:100CB000587204E0587A40F00200587200BF00BF3A
:100CC000002070472DE9F84307460C4615461E469E
:100CD000DDE90889224609213846FFF7ABFD434686
:100CE000324629463846CDF80090FFF708FDBDE8AA
:100CF000F88300002DE9F84305460024FFF764FA65
:100D000007462846FFF71CFD687A20F0010068724C
:100D10003846FFF75DFAFFF765FF696A0844A86285
:100D2000FFF752FA0746264E009600BF2AE019E068
:100D30005DF824201168142202EBC402881A826A2A
:100D4000AB6AD21A00D108E0826AAB6AD21A6FF09D
:100D500000439A4200D20CE000BF5DF82400006816
:100D60004DF824005DF8240006EBC4014968884270
:100D7000DED100BF2CB15DF824000830611C4DF8B5
:100D80002100641C002CD2D00E480068401C0D4984
:100D900008600846D0F8008005F114010098026848
:100DA0000A60486002685160016000BF687A40F0E4
:100DB000010068723846FFF70BFA0020BDE8F8839F
:100DC000640000206C00002070B50446607A00F0DA
:100DD000010010B94FF0FF3070BDFFF7F5F905467F
:100DE0002046FFF7ADFC2846FFF7F2F9607A20F0C5
:100DF000010060720020EFE73EB5FFF707FBFFF749
:100E0000E3F92E4800686422B0FBF2F1B1F1807F73
:100E100000D31DE021F07F40401E4FF0E0225061E2
:100E200050170F22002807DA13071D0E244B00F07D
:100E30000F04241F1D5503E013071C0E214B1C54E7
:100E400000BF00204FF0E02290610720106100BF3A
:100E5000FFF7ACFDFFF7F0FD022001021A4A002364
:100E6000CDE900210290194A19A11B48FFF700FEA5
:100E70001948FFF773FE03204FF40071174A00234F
:100E8000CDE900210290164A16A11848FFF7F0FD9F
:100E90001648FFF763FE0420C101154A0023CDE97F
:100EA00000210290134A14A11548FFF7E1FD1448F0
:100EB000FFF754FEFFF798FD00203EBD0400002020
:100EC00018ED00E000E400E0C0010020050F00087C
:100ED000746573743100000070000020C0030020AE
:100EE000250F00087465737432000000E0000020D4
:100EF000C0050020450F00087465737433000000BE
:100F0000500100200BE00120054908700420FFF784
:100F100083FD0020024908700420FFF77DFDF2E701
:100F2000000000200BE00120054908700220FFF7B7
:100F300073FD0020024908700220FFF76DFDF2E703
:100F4000010000200BE00120054908700320FFF795
:100F500063FD0020024908700320FFF75DFDF2E702
:100F600002000020840F0008000000207000000034
:100F700028010008F40F000870000020E8110000AC
:100F8000440100080000000000A24A040000000024
:100F90000000000001020304060708090000000029
:100FA0000000000000000000000000000000000041
:100FB0000000000000000000000000000000000031
:100FC0003C0000203C0000207000000000000000F9
:100FD0000000000000000000000000000000000011
:100FE0000000000000000000000000000000000001
:040FF00000000000FD
:04000005080000ED02
:00000001FF
