:020000040800F2
:10000000102100209D010008AD0700083D070008F1
:10001000A907000819060008F30B000800000000FB
:10002000000000000000000000000000A50800081B
:100030001D060008000000003B02000891090008AE
:10004000B7010008B7010008B7010008B7010008B0
:10005000B7010008B7010008B7010008B7010008A0
:10006000B7010008B7010008B7010008B701000890
:10007000B7010008B7010008B7010008B701000880
:10008000B7010008B7010008B7010008B701000870
:10009000B7010008B7010008B7010008B701000860
:1000A000B7010008B7010008B7010008B701000850
:1000B000B7010008B7010008B7010008B701000840
:1000C000B7010008B7010008B7010008B701000830
:1000D000B7010008010A0008B7010008B7010008CD
:1000E000B7010008B7010008B701000800F002F8E6
:1000F00000F045F80AA090E8000C82448344AAF17D
:100100000107DA4501D100F03AF8AFF2090EBAE87A
:100110000F0013F0010F18BFFB1A43F0010318473B
:100120007418000094180000103A24BF78C878C1F1
:10013000FAD8520724BF30C830C144BF04680C60ED
:10014000704700000023002400250026103A28BF35
:1001500078C1FBD8520728BF30C148BF0B60704739
:10016000642900F0FF80632900F0C181732900F049
:10017000C681002070471FB51FBD10B510BD00F02F
:1001800019FA1146FFF7F7FF01F0A8F900F037FA66
:1001900003B4FFF7F2FF03BC00F073FD094880478A
:1001A00009480047FEE7FEE7FEE7FEE7FEE7FEE759
:1001B000FEE7FEE7FEE7FEE704480549054A064B71
:1001C00070470000A1090008ED000008101B002086
:1001D00010210020101D0020101D0020EFF31080C2
:1001E00072B6704780F3108870472349086023492E
:1001F0004FF00000086022494FF0010008602148DC
:100200004FF47F01D0F8002041EA020101601E484E
:100210004FF08051016061B662B6194A1368012B34
:1002200004D04FF001031360144A1060124A1160A9
:1002300015484FF0805101607047EFF3108272B69D
:100240000F48016891B14FF0000101600B4801684F
:1002500029B1EFF3098121E9F00F00680160064937
:1002600009680968B1E8F00F81F3098882F3108802
:100270004EF0040E704700003800002034000020CB
:100280003C00002020ED00E004ED00E0704700009D
:100290000FB4044910B503AA029800F035F910BC58
:1002A0005DF814FB2C0000202DE9F0410E460446B9
:1002B000002020622046E168884730B3252805D019
:1002C000D4E901219047206A401CF2E7E16820460A
:1002D00000278847050018D0A5F14100192802D849
:1002E00020354FF400673246294620462760FFF745
:1002F00037FF40B1012804D0F61D26F00706083666
:10030000D8E7361DD6E72846DAE7206ABDE8F0814F
:1003100070B50C460546012A05D02878800600D520
:10032000EA69002302E0012305E05B1C934202D24C
:10033000E05C0028F9D1A869E618C01AA861286A0B
:10034000184428622846AFF3008004E0D5E9012173
:1003500014F8010B9047B442F8D32846AFF300805D
:1003600070BD00002DE9F041064600241068752993
:10037000314616A510D0AFF30080002802DA4042C3
:1003800013A507E031688A0701D512A502E04907E5
:1003900004D511A5012401E0AFF3008000210A2259
:1003A00006F1240709E0B0FBF2FCB0FBF2F302FB1C
:1003B0001C00303078541846491C0028F3D12346DD
:1003C0002A463046BDE8F04100F02EB8000000009B
:1003D0002D0000002B000000200000004FF0000264
:1003E0000429C0F0128010F0030C00F0A180CCF1C1
:1003F000040CBCF1020F18BF00F8012BA8BF20F8B5
:10040000022BA1EB0C0100F093B85FEAC17C24BF82
:1004100000F8012B00F8012B48BF00F8012B7047B2
:1004200070477047704770472DE9F0470D46994671
:100430009246044600F124080168880604D5E06964
:1004400021F01001216000E00120A84201DD471BDE
:1004500000E00027A1697A1902EB0900081AA061DF
:100460002078C00602D42046AFF30080002608E0C2
:10047000D4E901211AF806009047206A401C761C36
:1004800020624E45F4DB2078C0060AD52046AFF343
:10049000008006E0D4E9012130209047206A401C0A
:1004A0002062381EA7F10107F4DC07E0D4E901213E
:1004B00018F805009047206A401C2062281EA5F10C
:1004C0000105F3DC2046AFF300802078000602D55A
:1004D0000220BDE8F0870120FBE710B5436913B1A6
:1004E000AFF3008001E0FFF713FF012010BD127889
:1004F00000F124010A7000224A700122EDE7116820
:100500004FF0FF32E9E70000074B70B50D467B4422
:1005100000F039F80446284600F048F810B14FF0D2
:10052000FF3070BD204670BD5B0800004FF0000238
:1005300000B5134694469646203922BFA0E80C50D9
:10054000A0E80C50B1F12001BFF4F7AF090728BFB4
:10055000A0E80C5048BF0CC05DF804EB890028BF30
:1005600040F8042B08BF704748BF20F8022B11F059
:10057000804F18BF00F8012B7047000001694A1C2A
:1005800002610878704700B58FB0CDE901310021D4
:10059000059105497944CDE9031011466846FFF7F6
:1005A00083FE0FB000BD0000E5FFFFFF007B00F001
:1005B00080007047754600F02BF8AE46050069468E
:1005C000534620F00700854618B020B5FFF7F4FD2C
:1005D000BDE820404FF000064FF000074FF0000844
:1005E0004FF0000B21F00701AC46ACE8C009ACE8C5
:1005F000C009ACE8C009ACE8C0098D46704710B529
:100600000446AFF300802046BDE81040FFF7C0BDB0
:1006100000487047B01A002000BFFEE770472DE980
:10062000F041024600250026002000230024002778
:1006300091F803C00CF00F0591F803C00CF0100CFA
:10064000BCF1000F03D091F802C04CEA050591F807
:1006500000C0BCF1000F31D0146800202BE04FF037
:10066000010C0CFA00F3B1F800C00CEA03069E423C
:1006700020D183004FF00F0C0CFA03F7BC4305FAAE
:1006800003FC4CEA040491F803C0BCF1280F06D126
:100690004FF0010C0CFA00FCC2F814C00AE091F80B
:1006A00003C0BCF1480F05D14FF0010C0CFA00FC5F
:1006B000C2F810C0401C0828D1D31460B1F800C0A3
:1006C000BCF1FF0F34DD546800202EE000F1080C6F
:1006D0004FF0010808FA0CF3B1F800C00CEA030669
:1006E0009E4221D183004FF00F0C0CFA03F7BC435C
:1006F00005FA03FC4CEA040491F803C0BCF1280F8E
:1007000005D100F1080C08FA0CF8C2F8148091F831
:1007100003C0BCF1480F07D100F1080C4FF00108ED
:1007200008FA0CF8C2F81080401C0828CED3546098
:10073000BDE8F081416170470161704700BFFEE78D
:1007400008B50121082000F033F84FF2C010ADF8D1
:10075000000010208DF8030003208DF80200694688
:100760000F48FFF75CFF4FF2C0110D48FFF7E2FFA3
:100770000121042000F01CF840F67F70ADF8000065
:1007800010208DF8030003208DF80200694605480B
:10079000FFF745FF40F67F710248FFF7CBFF08BD2A
:1007A000000C01400008014000BFFEE77047000058
:1007B00029B1064A92690243044B9A6104E0034A54
:1007C00092698243014B9A61704700000010024019
:1007D00030B500210022002400232D4D6D6805F066
:1007E0000C0121B1042905D0082923D105E0294DA8
:1007F000056022E0274D05601FE0254D6D6805F47A
:100800007012234D6D6805F48034022505EB924289
:100810001CB9214D554305600BE01D4D6D6805F475
:1008200000351DB11C4D5543056002E0194D55437F
:10083000056002E0174D056000BF00BF144D6D68F4
:1008400005F0F0010909154D6B5C0568DD40456058
:100850000F4D6D6805F4E061090A104D6B5C456849
:10086000DD4085600A4D6D6805F46051C90A0B4D85
:100870006B5C4568DD40C560054D6D6805F4404121
:10088000890B074D6B5CC568B5FBF3F5056130BDA1
:100890000010024000127A0000093D0018000020FC
:1008A00028000020704710B500F002F810BD0000CD
:1008B0000CB50020019000903348006840F480306F
:1008C0003149086000BF3048006800F400300090F3
:1008D0000198401C0190009818B90198B0F5A06FDC
:1008E000F1D12948006800F4003010B101200090D7
:1008F00001E0002000900098012843D123480068BF
:1009000040F01000214908600846006820F003000C
:1009100008600846006840F0020008601A48406815
:10092000194948600846406848600846406840F4F5
:10093000806048600846406820F47C1048600846A3
:10094000406840F4E81048600846006840F0807055
:10095000086000BF0C48006800F000700028F9D063
:100960000948406820F0030007494860084640688D
:1009700040F00200486000BF0348406800F00C00EF
:100980000828F9D10CBD00000010024000200240F0
:1009900010B500F019FA00F055FC00F025FA10BD72
:1009A00010B51348006840F001001149086008467E
:1009B0004068104908400E494860084600680E49E2
:1009C00008400B4908600846006820F48020086051
:1009D0000846406820F4FE0048604FF41F0088601D
:1009E000FFF761FF4FF000600449086010BD000090
:1009F000001002400000FFF8FFFFF6FE08ED00E0E7
:100A000010B540F225511D4800F057F810B31B48AF
:100A100000F0EAF8C4B21A48008800F40040C8B9EF
:100A20001748008800F4804060B10A2C03D00020F1
:100A30001349088020E01248008840F40040104923
:100A4000088019E00D2C06D10D48008840F4804044
:100A50000B49088010E00A480088C0F30D000949DE
:100A60000C5407480088401C054908800846008847
:100A7000C72801DD0020088010BD000000380140BB
:100A8000300000204C05002021B1828942F4005240
:100A9000828104E082894DF6FF731A40828170479B
:100AA00002460020B1F5007F00D100BF13880B4043
:100AB0000BB1012000E00020704770B50246002411
:100AC00000230025002040F66A16B14200D100BF85
:100AD000C1F3421501F01F03012606FA03F3012DAD
:100AE00002D19689334006E0022D02D1168A3340A6
:100AF00001E0968A33400C12012606FA04F41688A7
:100B0000344013B10CB1012000E0002070BD0000A2
:100B10002DE9F04786B005460E460024A24600BFE8
:100B2000A1460027B08900B100BF2F462C8A4CF6A1
:100B3000FF700440F08804432C82AC894EF6F31019
:100B40000440B08831890843718908430443AC816B
:100B5000AC8A4FF6FF400440B0890443AC8201A840
:100B6000FFF736FE1F48874202D1DDF810A001E0F2
:100B7000DDF80CA0A88900F4004040B10AEBCA00DF
:100B800000EB0A1031684900B0FBF1F807E00AEB0E
:100B9000CA0000EB0A1031688900B0FBF1F864204C
:100BA000B8FBF0F004012009642101FB1089A88939
:100BB00000F4004040B1322000EBC900B0FBF1F07E
:100BC00000F00700044308E0322000EB0910642124
:100BD000B0FBF1F000F00F0004432C8106B0BDE83B
:100BE000F08700000038014001468888C0F3080003
:100BF000704700BFFEE7014609B900207047002298
:100C000001E04910521C01F001000028F9D0104603
:100C1000F4E72DE9F04704460E4617469846DDF8FE
:100C2000209084F80990607A20F001006072E661FB
:100C300027620020A062C4F82480002506E004F1A9
:100C4000140101EBC50000F0DFF86D1C012DF6DB8F
:100C5000BDE8F08710B50246002001460EE002F123
:100C6000140303EBC100D0E900436360D0E9003412
:100C700023604060006000BF481C01460129EEDB94
:100C800010BD014600BF704710B5044601A0FFF734
:100C9000FFFA10BD1B5B324A1B5B480070B506466D
:100CA0000D4800680D490968B0FBF1F0C0F101047E
:100CB000204600F05BFE05460748016808A0FFF7E4
:100CC000E7FA0648016806A0FFF7E2FA00200249A9
:100CD00008600249086070BD4C00002050000020F0
:100CE00025640D0A0000000030B50F4C0F4D2D6833
:100CF00004EB051420600C4C0C4D2D6804EB05141E
:100D00006160094C094D2D6804EB0514A260064C86
:100D1000064D2D6804EB0514E360044C2468641C44
:100D2000024D2C6030BD0000F40D00206400002056
:100D300070B50646002409E0064850F83400A0F1DA
:100D4000100505A02968FFF7A3FA641C202CF3DB2B
:100D500070BD00001406002025730D0A000000007D
:100D600010B5044600F00AFD10BD000000BF054AA2
:100D7000128802F04002002AF9D0C2B2014B1B1DBA
:100D80001A8070470038014070B503460C4615467E
:100D9000681C20F0070040380146002203E0094E9D
:100DA00041F82260521C102AF9D30C6200264E62D0
:100DB0008E62CE620E634E638B634FF08076CE639D
:100DC00070BD0000EFBEADDE10B5FFF707FA0446B8
:100DD00004480078401C034908702046FFF702FAD7
:100DE00010BD00005400002010B5FFF7F7F90446CD
:100DF00004480078401E034908702046FFF7F2F9C6
:100E000010BD000054000020406000607047D0E931
:100E100000215160D0E9001211604060006070470D
:100E20002DE9F041FFF7DAF9074611480068FFF7AE
:100E3000E2FE05460F4850F83500A0F110040E48B8
:100E4000006884420ED00D490D700B48066804609E
:100E500004F1180106F11800FFF7DFF93846FFF733
:100E6000C1F902E03846FFF7BDF9BDE8F0810000A6
:100E7000400000201406002048000020440000200C
:100E800070B50446FFF7AAF90546012084F8400032
:100E900094F834200A4B03EBC20004F110010860FF
:100EA00042684A6042681160416000BF0549A06B1A
:100EB00009680843034908602846FFF793F970BDA5
:100EC000140600204000002070B50446FFF786F9A4
:100ED000054604F11000D0E900215160D0E900126C
:100EE00011604060006000BF94F83410094A02EBC2
:100EF000C1000168814201D1012100E0002129B136
:100F00000548A16B00688843034908602846FFF73D
:100F100069F970BD14060020400000201FB500F0E4
:100F200083FC0A204FF48062074BCDE90120009337
:100F300003900023054A06A1074800F091F80648EF
:100F400000F004F91FBD0000F4090020411600085C
:100F50007368656C6C000000840900200020014665
:100F600007E0094A02EBC1004060006000BF481C76
:100F700001462029F5DB1F20044A10700020044A96
:100F80001060044A106070471406002044000020DE
:100F9000480000204000002070B508480068FFF7B6
:100FA0002AFE0546064850F83500A0F11004054811
:100FB000046004F11800FFF718F970BD400000202C
:100FC000140600204800002010B5002405E0044964
:100FD00001EBC400FFF718FF641C002CF7D010BD14
:100FE0005800002010B50446204600F093F810BDCC
:100FF00010B504462046FFF7F5FF10BD10B50446B6
:101000004FF47A7104FB01F0FFF7F2FF10BD00000E
:1010100000BF04E002490968491C014A1160F9E770
:101020004C0000201FB502201F210202074BCDE912
:101030000032CDE902100023054A06A1074800F05E
:101040000FF8064800F082F81FBD000014070020CA
:101050001110000869646C6500000000140900208C
:101060002DE9FC5F04460D4616461F46DDE90CAB34
:10107000DDE90E8904F110004060006000BF2560CA
:10108000E6612762C4F824A0C4F828B0D4E9093C7A
:1010900063441A1FD4E90701FFF776FEA06184F8C4
:1010A000358084F834800020A063E06384F8400039
:1010B000C4F82C90C4F83090009001902346044A64
:1010C00004F14400216800F033F90020BDE8FC9FE2
:1010D000B311000870B5044694F8400000F00F000A
:1010E000022802D04FF0FF3070BDFFF777F80546B9
:1010F00004F11000FFF78BFE2846FFF773F8204637
:10110000FFF7BEFE0020EFE70148006870470000CF
:101110004800002031B5FFF761F805460A48046829
:10112000204600F029F86A46002104F1440000F04E
:10113000E3F804F1440000F00DF92846FFF752F8F7
:10114000FFF76EFE38BD00004800002010B50446D1
:10115000343460782070217801208840606002205B
:101160002073343C2046FFF7B5FFFFF7CDFF08B1F1
:10117000FFF756FE002010BD70B5044694F84000FD
:1011800000F00F00012802D04FF0FF3070BDFFF7D4
:1011900025F80546022084F840002046FFF794FE1B
:1011A00004F1440000F040F92846FFF71BF8002046
:1011B000ECE770B5044625466FF00100E86305F1E1
:1011C0001000FFF724FE2846FFF75AFEFFF728FE1F
:1011D00070BD000070B5FFF701F8054614480468BB
:1011E00094F8400000F00F0001281CD1D4E904104D
:1011F000814218D004F11000FFF709FE94F8342062
:101200000C4B03EBC20004F11001086042684A6015
:1012100042681160416000BF2846FEF7E3FFFFF718
:10122000FFFD002070BD2846FEF7DCFF0020F9E737
:1012300048000020140600200148006870470000A4
:101240005000002010B50A480068401C084908609A
:10125000FFF75AFF0446206B401E2063206B18B92D
:10126000E06A2063FFF7B6FF00F004F810BD00004D
:101270005000002070B5FFF7DFFF0546FEF7AEFF18
:10128000064628E01B480068A0F11404A06A281A4A
:101290006FF0004188421DD22046FFF7DBFCD4E905
:1012A00007108847FFF7C8FF0546607A00F0020084
:1012B00058B1607A00F0010038B1607A20F0010086
:1012C0006072204600F046F805E0607A20F00100E8
:1012D000607200E008E007480168814201D1012105
:1012E00000E000210029CDD000BF3046FEF77AFF94
:1012F00070BD000058000020034649B1012904D008
:10130000022908D0032910D10AE0586A10600CE0C5
:101310001068586209E0587A20F00200587204E020
:10132000587A40F00200587200BF00BF002070479A
:101330002DE9F8430646894614461D46DDE908783E
:101340003B462A4621463046CDF80080FFF761FC37
:10135000BDE8F8832DE9F84305460024FEF73EFF7B
:1013600007462846FFF776FC687A20F0010068728D
:101370003846FEF737FFFFF75FFF696A0844A86247
:10138000FEF72CFF0746264E009600BF2AE019E024
:101390005DF824201168142202EBC402881A826AC4
:1013A000AB6AD21A00D108E0826AAB6AD21A6FF037
:1013B00000439A4200D20CE000BF5DF824000068B0
:1013C0004DF824005DF8240006EBC401496888420A
:1013D000DED100BF2CB15DF824000830611C4DF84F
:1013E0002100641C002CD2D00E480068401C0D491E
:1013F00008600846D0F8008005F1140100980268E2
:101400000A60486002685160016000BF687A40F07D
:10141000010068723846FEF7E5FE0020BDE8F8835B
:10142000580000206000002070B50446607A00F08B
:10143000010010B94FF0FF3070BDFEF7CFFE05463A
:101440002046FFF707FC2846FEF7CCFE607A20F026
:10145000010060720020EFE770B5FFF771F94FF4FB
:10146000E13000F047FA00F089F9FEF7B7FE1848BE
:1014700000684FF47A72B0FBF2F1B1F1807F00D3D3
:101480001DE021F07F40401E4FF0E02250615017D8
:101490000F22002807DA13071D0E0E4B00F00F0471
:1014A000241F1D5503E013071C0E0B4B1C5400BFDB
:1014B00000204FF0E02290610720106100BFFFF78D
:1014C00083FDFFF74BFDFFF729FDFFF7ABFD70BD77
:1014D0000400002018ED00E000E400E01FB5FFF775
:1014E000BBFF04200221C201114BCDE90032CDE93E
:1014F000021000230F4A10A11148FFF7B1FD104858
:10150000FFF724FE0220032102020E4BCDE9003238
:10151000CDE9021000230C4A0CA10E48FFF7A0FDF4
:101520000C48FFF713FEFFF737FD002004B010BD95
:101530004C010020851800087465737431000000A8
:101540006C0000204C030020BD1800087465737403
:1015500032000000DC000020024605E0107808B9E7
:1015600001207047521C491C10780B789842F5D026
:101570000020F6E710B54FF0FF3420210A48FFF7AE
:101580008FFA20B10848FFF72FFB04460AE0082134
:101590000548FFF785FA10B104A0FEF779FE642034
:1015A000FFF726FD204610BD003801406572726FBE
:1015B0007200000070B506460D4600241BE0174877
:1015C00000EB04104068A84214D1144800EB04104A
:1015D00001683046FFF7C0FF60B1104A02EB041209
:1015E000D0680E4A02EB0412916888470CA0FEF7FF
:1015F0004FFE70BD641C0C4800688442DFD30BA012
:10160000FEF746FE0AA0FEF743FE08A0FEF740FEE6
:1016100003A0FEF73DFE00BFEBE70000F40D002045
:101620006B79202F3E000000640000200D0A0000AE
:10163000636D64206E6F7420666F756E64210000A8
:1016400046A0FEF725FE87E0FFF794FF0446002C36
:1016500000DA81E01B2C07D101204249096808709B
:1016600041A0FEF715FE77E03E48006800780128AB
:101670000ED15B2C07D13DA0FEF70AFE02203949AE
:101680000968087068E000203649096808700EE0B3
:10169000344800680078022809D1002031490968DF
:1016A0000870412C03D132A0FEF7F2FD54E0082C63
:1016B0001ED12C480068806B00B94DE029480068B5
:1016C000406B401E27490968486326480068806BC4
:1016D000401E24490968886326A0FEF7D9FD002131
:1016E00020480068826B1F480068401C815433E02A
:1016F0000D2C01D00A2C15D11A480068416B1948ED
:101700000068401CFFF756FF322116480068401C55
:10171000FEF764FE0020134909684863114909680F
:10172000886319E00F480068426B0E480068401C4F
:101730008454214610A0FEF7ABFD0A480068406BB8
:10174000401C08490968486306480068806B401CD3
:1017500004490968886300BF76E700006B79202F91
:101760003E00000068000020310000003200000050
:1017700075700000082008002563000010B50BA05C
:10178000FEF786FD0AA0FEF783FD0FA0FEF780FDA1
:1017900013A0FEF77DFD18A0FEF77AFD1CA0FEF752
:1017A00077FD03A0FEF774FD10BD00000D0A0000D8
:1017B0002D2D2D2D2D2D2D2D2D2D2D2D2D2D2D2D59
:1017C0002D2D2D2D0D0A00007C202020202020779B
:1017D000656C636F6D6520202020207C0D0A000061
:1017E0007C20202020206B792D7468726561642034
:1017F0002020207C0D0A00007C20202020766572AD
:1018000073696F6E202069732020207C0D0A000010
:101810007C202020202020202056312E3020202007
:101820002020207C0D0A000000B500230B4A072170
:101830000BA0FFF759FA00230B4A05210BA0FFF775
:1018400053FA00230B4A03210BA0FFF74DFA0023A4
:101850000A4A02210AA0FFF747FA00BD610D0008FD
:1018600076657273696F6E00890C0008636C656140
:10187000720000009D0C000863707500310D0008B7
:101880007073000014E001200A49087001020A4840
:10189000FEF752FF0120FFF7B1FB00200549087059
:1018A0004FF480710448FEF745FF0120FFF7A6FBC7
:1018B000E9E7000000000020000C014015E00120D5
:1018C0000A49087080210A48FEF736FF4FF4FA7083
:1018D000FFF78EFB00200549087080210448FEF7C1
:1018E00029FF4FF4FA70FFF783FBE8E701000020BF
:1018F000000C014010B586B00446012144F20400FA
:10190000FEF756FF4FF40070ADF8140003208DF879
:10191000160018208DF8170005A91248FEF77FFE63
:101920004FF48060ADF8140004208DF8170005A96D
:101930000C48FEF774FE01940020ADF80800ADF8E5
:101940000A00ADF80C00ADF810000C20ADF80E0048
:1019500001A90548FFF7DCF801210348FFF794F8D7
:1019600006B010BD0008014000380140B0FA80F315
:1019700010FA03F2C3F19D030AD0D90501EB12203E
:10198000530638BF704700F1010008BF20F0010086
:1019900070470000B4190008000000206C0000002F
:1019A00028010008201A00086C000020A420000074
:1019B000440100080000000000A24A0400000000EA
:1019C00000000000010203040607080900000000EF
:1019D00001020304010203040607080902040608C1
:1019E00000000000000000000000000000000000F7
:1019F00000000000000000000000000000000000E7
:101A000000000000000000000000000000000000D6
:101A1000000000000000000000000000741A002018
:04000005080000ED02
:00000001FF
