:020000040800F2
:10000000D02100209D010008C908000859080008F7
:10001000C5080008350700080F0D000800000000A3
:10002000000000000000000000000000C1090008FE
:1000300039070008000000003B020008AD0A000874
:10004000B7010008B7010008B7010008B7010008B0
:10005000B7010008B7010008B7010008B7010008A0
:10006000B7010008B7010008B7010008B701000890
:10007000B7010008B7010008B7010008B701000880
:10008000B7010008B7010008B7010008B701000870
:10009000B7010008B7010008B7010008B701000860
:1000A000B7010008B7010008B7010008B701000850
:1000B000B7010008B7010008B7010008B701000840
:1000C000B7010008B7010008B7010008B701000830
:1000D000B70100081D0B0008B7010008B7010008B0
:1000E000B7010008B7010008B701000800F002F8E6
:1000F00000F045F80AA090E8000C82448344AAF17D
:100100000107DA4501D100F03AF8AFF2090EBAE87A
:100110000F0013F0010F18BFFB1A43F0010318473B
:10012000381D0000581D0000103A24BF78C878C15F
:10013000FAD8520724BF30C830C144BF04680C60ED
:10014000704700000023002400250026103A28BF35
:1001500078C1FBD8520728BF30C148BF0B60704739
:10016000642900F0F180632900F04F82732900F0C8
:100170005482002070471FB51FBD10B510BD00F0A0
:10018000A7FA1146FFF7F7FF01F04AFB00F0C5FAA6
:1001900003B4FFF7F2FF03BC00F008FE09488047F4
:1001A00009480047FEE7FEE7FEE7FEE7FEE7FEE759
:1001B000FEE7FEE7FEE7FEE704480549054A064B71
:1001C00070470000BD0A0008ED000008D01B0020A9
:1001D000D0210020D01D0020D01D0020EFF3108082
:1001E00072B6704780F3108870472349086023492E
:1001F0004FF00000086022494FF0010008602148DC
:100200004FF47F01D0F8002041EA020101601E484E
:100210004FF08051016061B662B6194A1368012B34
:1002200004D04FF001031360144A1060124A1160A9
:1002300015484FF0805101607047EFF3108272B69D
:100240000F48016891B14FF0000101600B4801684F
:1002500029B1EFF3098121E9F00F00680160064937
:1002600009680968B1E8F00F81F3098882F3108802
:100270004EF0040E704700003800002034000020CB
:100280003C00002020ED00E004ED00E0704700009D
:100290000FB4044910B503AA029800F0C3F910BCCA
:1002A0005DF814FB2C00002070B5044685690068D9
:1002B000C10601D5302600E02026C00707D070BD5A
:1002C000D4E9012130469047206A401C20626D1E0F
:1002D000F6D570BD70B5044685690078C00707D1B2
:1002E00070BDD4E9012120209047206A401C206283
:1002F0006D1EF6D570BD70B50C460546012A05D0B9
:100300002878800600D5EA69002302E0012305E091
:100310005B1C934202D2E05C0028F9D1A869E61880
:10032000C01AA861286A184428622846FFF7BCFF53
:1003300004E0D5E9012114F8010B9047B442F8D349
:100340002846FFF7C7FF70BD2DE9F041064600249F
:1003500010687529314616A510D0AFF3008000282B
:1003600002DA404213A507E031688A0701D512A5D9
:1003700002E0490704D511A5012401E0AFF3008094
:1003800000210A2206F1240709E0B0FBF2FCB0FBD1
:10039000F2F302FB1C00303078541846491C002848
:1003A000F3D123462A463046BDE8F04100F0CAB8F2
:1003B000000000002D0000002B00000020000000C5
:1003C0002DE9F05F894604464FF0000ADFF824B1BA
:1003D000FB44C0F820A02046E168884700287DD073
:1003E000252806D0D4E901219047206A401C2062CC
:1003F000F1E700255F462046E16888472028064649
:1004000007DB312E05D2B81910F8200C08B10543CE
:10041000F1E7A80701D525F00405C4F81CA00027C2
:10042000C4F818A02A2E09D0304600F080FC38B35A
:1004300004EB8708303EC8F8186019E059F8041B2F
:10044000204604EB87029161E1688847012F064648
:1004500018D1E069002820DA25F020051DE0D8F841
:10046000180000EB800006EB40003038C8F8180098
:100470002046E1688847064600F059FC0028EED186
:10048000012F0AD02E2E08D12046E16888477F1C14
:100490000646022F45F02005C4DBA069002803DAD8
:1004A000404245F00105A061E80701D025F01005A4
:1004B000A6B1A6F14100192802D8203645F40065FE
:1004C0004A463146204625604D46FFF749FE60B159
:1004D000012807D0ED1D25F0070000E007E000F13E
:1004E000080978E705F1040975E730467AE7206ADC
:1004F000BDE8F09F701A00004FF000020429C0F020
:10050000128010F0030C00F0A180CCF1040CBCF1BF
:10051000020F18BF00F8012BA8BF20F8022BA1EB97
:100520000C0100F093B85FEAC17C24BF00F8012BF6
:1005300000F8012B48BF00F8012B70477047704747
:10054000704770472DE9F0470D469946924604469C
:1005500000F124080168880604D5E06921F0100143
:10056000216000E00120A84201DD471B00E00027D8
:10057000A1697A1902EB0900081AA0612078C00667
:1005800002D42046FFF790FE002608E0D4E90121BE
:100590001AF806009047206A401C761C20624E45DF
:1005A000F4DB2078C0060AD52046FFF77DFE06E082
:1005B000D4E9012130209047206A401C2062381E77
:1005C000A7F10107F4DC07E0D4E9012118F80500E0
:1005D0009047206A401C2062281EA5F10105F3DC2B
:1005E0002046FFF777FE2078000602D50220BDE8FE
:1005F000F0870120FBE710B5436913B1AFF300802A
:1006000001E0FFF778FE012010BD127800F124010F
:100610000A7000224A700122EDE711684FF0FF32A4
:10062000E9E70000074B70B50D467B4400F039F850
:100630000446284600F048F810B14FF0FF3070BD76
:10064000204670BD130A00004FF0000200B51346AB
:1006500094469646203922BFA0E80C50A0E80C50E2
:10066000B1F12001BFF4F7AF090728BFA0E80C5093
:1006700048BF0CC05DF804EB890028BF40F8042B8C
:1006800008BF704748BF20F8022B11F0804F18BFF9
:1006900000F8012B7047000001694A1C02610878CC
:1006A000704700B58FB0CDE90131002105910549B2
:1006B0007944CDE9031011466846FFF781FE0FB07B
:1006C00000BD0000E5FFFFFF007B00F080007047E9
:1006D000754600F02BF8AE4605006946534620F0FB
:1006E0000700854618B020B5FFF766FDBDE820403D
:1006F0004FF000064FF000074FF000084FF0000BDE
:1007000021F00701AC46ACE8C009ACE8C009ACE890
:10071000C009ACE8C0098D46704710B50446AFF378
:1007200000802046BDE81040FFF732BD004870470A
:100730006C1B002000BFFEE770472DE9F041024628
:1007400000250026002000230024002791F803C084
:100750000CF00F0591F803C00CF0100CBCF1000F69
:1007600003D091F802C04CEA050591F800C0BCF135
:10077000000F31D0146800202BE04FF0010C0CFA70
:1007800000F3B1F800C00CEA03069E4220D18300BA
:100790004FF00F0C0CFA03F7BC4305FA03FC4CEACC
:1007A000040491F803C0BCF1280F06D14FF0010CEE
:1007B0000CFA00FCC2F814C00AE091F803C0BCF1C6
:1007C000480F05D14FF0010C0CFA00FCC2F810C024
:1007D000401C0828D1D31460B1F800C0BCF1FF0F51
:1007E00034DD546800202EE000F1080C4FF00108C1
:1007F00008FA0CF3B1F800C00CEA03069E4221D1BE
:1008000083004FF00F0C0CFA03F7BC4305FA03FC0E
:100810004CEA040491F803C0BCF1280F05D100F1A3
:10082000080C08FA0CF8C2F8148091F803C0BCF167
:10083000480F07D100F1080C4FF0010808FA0CF836
:10084000C2F81080401C0828CED35460BDE8F08167
:10085000416170470161704700BFFEE708B50121A3
:10086000082000F033F84FF2C010ADF8000010205F
:100870008DF8030003208DF8020069460F48FFF74A
:100880005CFF4FF2C0110D48FFF7E2FF0121042089
:1008900000F01CF840F67F70ADF8000010208DF8D5
:1008A000030003208DF8020069460548FFF745FF65
:1008B00040F67F710248FFF7CBFF08BD000C0140F6
:1008C0000008014000BFFEE77047000029B1064A5A
:1008D00092690243044B9A6104E0034A926982439D
:1008E000014B9A61704700000010024030B50021B2
:1008F0000022002400232D4D6D6805F00C0121B16C
:10090000042905D0082923D105E0294D056022E0FE
:10091000274D05601FE0254D6D6805F47012234DCD
:100920006D6805F48034022505EB92421CB9214D17
:10093000554305600BE01D4D6D6805F400351DB194
:100940001C4D5543056002E0194D5543056002E01A
:10095000174D056000BF00BF144D6D6805F0F00134
:100960000909154D6B5C0568DD4045600F4D6D68EC
:1009700005F4E061090A104D6B5C4568DD40856057
:100980000A4D6D6805F46051C90A0B4D6B5C4568F2
:10099000DD40C560054D6D6805F44041890B074D8C
:1009A0006B5CC568B5FBF3F5056130BD0010024016
:1009B00000127A0000093D001800002028000020E5
:1009C000704710B500F002F810BD00000CB5002013
:1009D000019000903348006840F48030314908604D
:1009E00000BF3048006800F4003000900198401CBF
:1009F0000190009818B90198B0F5A06FF1D129487D
:100A0000006800F4003010B10120009001E00020E7
:100A100000900098012843D12348006840F010005E
:100A2000214908600846006820F003000860084675
:100A3000006840F0020008601A48406819494860A0
:100A40000846406848600846406840F48060486056
:100A50000846406820F47C1048600846406840F42E
:100A6000E81048600846006840F08070086000BFE9
:100A70000C48006800F000700028F9D00948406870
:100A800020F00300074948600846406840F0020033
:100A9000486000BF0348406800F00C000828F9D106
:100AA0000CBD0000001002400020024010B500F014
:100AB000F5FA00F069FD00F001FB10BD10B5134818
:100AC000006840F00100114908600846406810497C
:100AD00008400E494860084600680E4908400B4926
:100AE00008600846006820F48020086008464068D6
:100AF00020F4FE0048604FF41F008860FFF761FF9C
:100B00004FF000600449086010BD00000010024072
:100B10000000FFF8FFFFF6FE08ED00E010B540F220
:100B200025511D4800F057F810B31B4800F0EAF8B3
:100B3000C4B21A48008800F40040C8B917480088B9
:100B400000F4804060B10A2C03D0002013490880D3
:100B500020E01248008840F400401049088019E065
:100B60000D2C06D10D48008840F480400B490880C8
:100B700010E00A480088C0F30D0009490C540748EA
:100B80000088401C0549088008460088C72801DD08
:100B90000020088010BD0000003801403000002017
:100BA0005805002021B1828942F40052828104E07C
:100BB00082894DF6FF731A408281704702460020F9
:100BC000B1F5007F00D100BF13880B400BB10120AD
:100BD00000E00020704770B5024600240023002585
:100BE000002040F66A16B14200D100BFC1F34215A1
:100BF00001F01F03012606FA03F3012D02D19689A5
:100C0000334006E0022D02D1168A334001E0968A75
:100C100033400C12012606FA04F41688344013B14E
:100C20000CB1012000E0002070BD00002DE9F0476C
:100C300086B005460E460024A24600BFA146002706
:100C4000B08900B100BF2F462C8A4CF6FF700440DB
:100C5000F08804432C82AC894EF6F3100440B0882F
:100C600031890843718908430443AC81AC8A4FF64B
:100C7000FF400440B0890443AC8201A8FFF736FE70
:100C80001F48874202D1DDF810A001E0DDF80CA07A
:100C9000A88900F4004040B10AEBCA0000EB0A103A
:100CA00031684900B0FBF1F807E00AEBCA0000EB3D
:100CB0000A1031688900B0FBF1F86420B8FBF0F04D
:100CC00004012009642101FB1089A88900F4004077
:100CD00040B1322000EBC900B0FBF1F000F007009A
:100CE000044308E0322000EB09106421B0FBF1F06E
:100CF00000F00F0004432C8106B0BDE8F08700002F
:100D00000038014001468888C0F30800704700BFE2
:100D1000FEE7014609B900207047002201E04910B2
:100D2000521C01F001000028F9D01046F4E73038D9
:100D30000A2801D201207047002070472DE9F047B2
:100D400004460E4617469846DDF8209084F8099030
:100D5000607A20F001006072E66127620020A062E4
:100D6000C4F82480002506E004F1140101EBC5005D
:100D700000F0B4F96D1C012DF6DBBDE8F08710B56D
:100D80000246002001460EE002F1140303EBC1000D
:100D9000D0E900436360D0E9003423604060006024
:100DA00000BF481C01460129EEDB10BD014600BF13
:100DB0007047000010B5044601A0FFF769FA10BDA6
:100DC0001B5B324A1B5B480010B5044606A0FFF7C8
:100DD0005FFA11A0FFF75CFA1DA0FFF759FA28A0EF
:100DE000FFF756FA10BD000070732020202020204D
:100DF0002020202020202020092D4C69737420748D
:100E000068726561647320696E2074686520737907
:100E10007374656D0D0A000076657273696F6E20DC
:100E20002020202020202020092D73686F77204B60
:100E3000592D5468726561642076657273696F6EAE
:100E400020696E666F726D6174696F6E0D0A0000C5
:100E5000636C656172202020202020202020090959
:100E60002D636C65617220746865207465726D69AC
:100E70006E616C2073637265656E0D0A0000000080
:100E80007265626F6F7420202020202020202009AE
:100E9000092D5265626F6F742053797374656D0DFF
:100EA0000A00000030B50F4C0F4D2D6804EB0514FF
:100EB00020600C4C0C4D2D6804EB05146160094C4E
:100EC000094D2D6804EB0514A260064C064D2D68F3
:100ED00004EB0514E360044C2468641C024D2C6090
:100EE00030BD0000300E00206800002070B50546BF
:100EF00027A0FFF7CDF92CA0FFF7CAF9002441E0A5
:100F00002F4850F8240090F838202D4850F824003D
:100F100001682CA0FFF7BCF9294850F8240090F88C
:100F20004400012803D12AA0FFF7B2F929E02448A0
:100F300050F8240090F84400032803D126A0FFF7BE
:100F4000A7F91EE01E4850F8240090F8440002283B
:100F500003D124A0FFF79CF913E0194850F82400AE
:100F600090F8440018B922A0FFF792F909E014485C
:100F700050F8240090F84400042802D11EA0FFF786
:100F800087F9641C1E4800688442B9D370BD000014
:100F9000746872656164202020207072692020735B
:100FA00074617475730D0A002D2D2D2D2D2D2D2D91
:100FB00020202D2D2D20202D2D2D2D2D2D0D0A0005
:100FC00020060020252D38732020252D35640000B3
:100FD00072656164790D0A0072756E6E696E670DD7
:100FE0000A00000073757370656E640D0A000000DE
:100FF000696E69740D0A0000636C6F73650D0A00F9
:1010000040000020012080F3138800BF00BF074884
:10101000006800F4E06006490843001D03490860C9
:10102000BFF34F8F00BF00BFFEE700000CED00E0F4
:101030000000FA0510B5044600F004FE10BD0000E3
:1010400000BF054A128802F04002002AF9D0C2B25D
:10105000014B1B1D1A8070470038014070B50346D4
:101060000C461546681C20F0070040380146002257
:1010700003E0094E41F82260521C102AF9D30C6299
:1010800000264E628E62CE620E634E638B634FF01B
:101090008076CE6370BD0000EFBEADDE10B5FFF709
:1010A0009DF8044604480078401C03490870204617
:1010B000FFF798F810BD00005800002010B5FFF7AA
:1010C0008DF8044604480078401E03490870204605
:1010D000FFF788F810BD0000580000204060006055
:1010E0007047D0E900215160D0E9001211604060E2
:1010F000006070472DE9F041FFF770F8074611488E
:101100000068FFF706FE05460F4850F83500A0F1CD
:1011100010040E48006884420ED00D490D700B4833
:101120000668046004F1180106F11800FFF775F86D
:101130003846FFF757F802E03846FFF753F8BDE8A6
:10114000F081000044000020480600204C000020F0
:101150004800002070B50446FFF740F8054601201E
:1011600084F8440094F838200A4B03EBC20004F1E1
:101170001001086042684A6042681160416000BF27
:101180000549E06B09680843034908602846FFF7F2
:1011900029F870BD480600204400002070B50446C0
:1011A000FFF71CF8054604F11000D0E9002151605A
:1011B000D0E9001211604060006000BF94F8381060
:1011C000094A02EBC1000168814201D1012100E01E
:1011D000002129B10548E16B006888430349086094
:1011E0002846FEF7FFFF70BD48060020440000209F
:1011F0001FB500F077FD0A204FF48062074BCDE960
:101200000120009303900023054A06A1074800F03F
:10121000B9F8064800F03CF91FBD0000300A002074
:10122000F51900087368656C6C000000BC090020AB
:10123000024605E0521C491C107808B9012070478D
:1012400010780B789842F5D00020F8E770B5034687
:10125000A2B118460C4600BF14F8016B00F8016BF0
:101260003EB902E0002500F8015B551E2A1EF9D1A7
:1012700002E0551E2A1EEFD100BF00BF184670BD08
:101280000020014607E0094A02EBC100406000600F
:1012900000BF481C01462029F5DB1F20044A1070BE
:1012A0000020044A1060044A10607047480600207D
:1012B000480000204C0000204400002070B5084881
:1012C0000068FFF726FD0546064850F83500A0F1F6
:1012D00010040548046004F11800FEF786FF70BD95
:1012E00044000020480600204C00002010B50024D7
:1012F00005E0044901EBC400FFF7F0FE641C002C7C
:10130000F7D010BD5C00002010B50446204600F068
:10131000A3F810BD10B504462046FFF7F5FF10BD39
:1013200010B504464FF47A7104FB01F0FFF7F2FFA9
:1013300010BD000000BF04E002490968491C014AD1
:101340001160F9E7500000201FB502201F210202A2
:10135000074BCDE90032CDE902100023054A06A172
:10136000074800F00FF8064800F092F81FBD000093
:10137000480700203513000869646C650000000010
:10138000480900202DE9FC5F04460D4616461F461D
:10139000DDE90CABDDE90E891C481D49096840F800
:1013A00021401B480068401C1949086004F11000E6
:1013B0004060006000BF2560E6612762C4F824A099
:1013C000C4F828B0D4E9093C63441A1FD4E90701E2
:1013D000FFF744FEA06184F8398084F8388000204B
:1013E000E063206484F84400C4F82C90C4F8309082
:1013F0006063009001902346064A04F1480021688A
:1014000000F038F90020BDE8FC9F00002006002015
:1014100040000020F714000870B5044694F844001A
:1014200000F00F00022802D04FF0FF3070BDFEF731
:10143000D5FE054604F11000FFF753FE2846FEF7DF
:10144000D1FE2046FFF786FE0020EFE70148006846
:10145000704700004C00002031B5FEF7BFFE054686
:101460000A480468204600F029F86A46002104F181
:10147000480000F0E3F804F1480000F00DF92846B8
:10148000FEF7B0FEFFF736FE38BD00004C0000202E
:1014900010B50446383460782070217801208840E7
:1014A000606002202073383C2046FFF7B5FFFFF74D
:1014B000CDFF08B1FFF71EFE002010BD70B5044639
:1014C00094F8440000F00F00012802D04FF0FF30E4
:1014D00070BDFEF783FE0546022084F844002046D6
:1014E000FFF75CFE04F1480000F040F92846FEF7E3
:1014F00079FE0020ECE770B5044625466FF0010048
:10150000286405F11000FFF7ECFD2846FFF722FEE6
:10151000FFF7F0FD70BD000070B5FEF75FFE0546F9
:101520001448046894F8440000F00F0001281CD10E
:10153000D4E90410814218D004F11000FFF7D1FD66
:1015400094F838200C4B03EBC20004F11001086042
:1015500042684A6042681160416000BF2846FEF759
:1015600041FEFFF7C7FD002070BD2846FEF73AFE9A
:101570000020F9E74C0000204806002001480068E0
:10158000704700005400002010B50A480068401C55
:1015900008490860FFF75AFF0446206B401E20638D
:1015A000206B18B9E06A2063FFF7B6FF00F004F87B
:1015B00010BD00005400002070B5FFF7DFFF0546A6
:1015C000FEF70CFE064628E01B480068A0F1140454
:1015D000A06A281A6FF0004188421DD22046FFF70A
:1015E000CEFBD4E907108847FFF7C8FF0546607AAD
:1015F00000F0020058B1607A00F0010038B1607A62
:1016000020F001006072204600F046F805E0607AA4
:1016100020F00100607200E008E0074801688142A4
:1016200001D1012100E000210029CDD000BF3046CA
:10163000FEF7D8FD70BD00005C000020034649B1F4
:10164000012904D0022908D0032910D10AE0586AE0
:1016500010600CE01068586209E0587A20F002002F
:10166000587204E0587A40F00200587200BF00BF80
:10167000002070472DE9F8430646894614461D466A
:10168000DDE908783B462A4621463046CDF8008001
:10169000FFF754FBBDE8F8832DE9F8430546002425
:1016A000FEF79CFD07462846FFF769FB687A20F0A5
:1016B000010068723846FEF795FDFFF75FFF696A23
:1016C0000844A862FEF78AFD0746264E009600BF32
:1016D0002AE019E05DF824201168142202EBC4020C
:1016E000881A826AAB6AD21A00D108E0826AAB6AB1
:1016F000D21A6FF000439A4200D20CE000BF5DF8AE
:10170000240000684DF824005DF8240006EBC401B5
:1017100049688842DED100BF2CB15DF82400083052
:10172000611C4DF82100641C002CD2D00E480068CA
:10173000401C0D4908600846D0F8008005F11401EE
:10174000009802680A60486002685160016000BF4A
:10175000687A40F0010068723846FEF743FD0020C9
:10176000BDE8F8835C0000206400002070B50446EA
:10177000607A00F0010010B94FF0FF3070BDFEF745
:101780002DFD05462046FFF7FAFA2846FEF72AFD0A
:10179000607A20F0010060720020EFE770B5FFF77B
:1017A0005DF84FF4165000F011FB00F04BFAFEF715
:1017B00015FD184800684FF47A72B0FBF2F1B1F1F0
:1017C000807F00D31DE021F07F40401E4FF0E022DB
:1017D000506150170F22002807DA13071D0E0E4B19
:1017E00000F00F04241F1D5503E013071C0E0B4BC4
:1017F0001C5400BF00204FF0E022906107201061D0
:1018000000BFFFF773FDFFF73BFDFFF7F1FCFFF7AC
:101810009BFD70BD0400002018ED00E000E400E036
:101820001FB5FFF7BBFF04200221C201114BCDE918
:101830000032CDE9021000230F4A10A11148FFF732
:10184000A1FD1048FFF724FE0220032102020E4BE7
:10185000CDE90032CDE9021000230C4A0CA10E485C
:10186000FFF790FD0C48FFF713FEFFF727FD002060
:1018700004B010BD580100205D1D0008746573742C
:10188000310000007000002058030020951D000862
:101890007465737432000000E40000202DE9F0410B
:1018A00080460E460027002400250AE01B4800EB76
:1018B000051001684046FFF7BBFC08B17F1C2C46B1
:1018C0006D1C174800688542F0D3012F23D10025F5
:1018D00003E014A0FEF7DCFC6D1CB542F9D30F4801
:1018E00000EB0410016810A0FEF7D2FC0B4800EBDF
:1018F00004104268094800EB041001680B480068B6
:10190000401CFFF7A3FC054800EB041040680749A2
:101910000968C1F8B400BDE8F0810000300E002075
:101920006800002008200800257300006C000020DB
:1019300010B54FF0FF3420210A48FFF73FF920B1DE
:101940000848FFF7DFF904460AE008210548FFF7D9
:1019500035F910B104A0FEF79BFC0A20FFF7DAFC72
:10196000204610BD003801406572726F72000000A1
:1019700070B506460D4600241BE0154800EB041028
:101980004068A84214D1124800EB041001683046A8
:10199000FFF74EFC60B10E4A02EB0412D0680C4A0D
:1019A00002EB0412916888470AA0FEF771FC70BD33
:1019B000641C0A4800688442DFD309A0FEF768FC73
:1019C0000BA0FEF765FC03A0FEF762FC00BFEEE78C
:1019D000300E00206B79202F3E00000068000020B0
:1019E000636D64206E6F7420666F756E64210000F5
:1019F0000D0A0000002089490968C1F8B000874934
:101A00000968C1F8AC0086A0FEF742FC05E1FFF7CB
:101A10008FFF0446002C00DAFFE01B2C07D10120C9
:101A20007E490968087080A0FEF732FCF5E07B482B
:101A30000068007801280ED15B2C07D17BA0FEF74F
:101A400027FC0220754909680870E6E00020734908
:101A50000968087049E0714800680078022844D19C
:101A600000206E4909680870412C1DD16B48006840
:101A7000D0F8B000A0B169480068D0F8B000401EAE
:101A800066490968C1F8B00064480068D0F8B02021
:101A900062480068343050F8221065A0FEF7F8FB69
:101AA00064A0FEF7F5FBB8E0422C1ED15B4800684D
:101AB000D0F8B00059490968D1F8AC10884214D266
:101AC00056480068D0F8B000401C54490968C1F875
:101AD000B00052480068D0F8B02050480068343058
:101AE00050F8221052A0FEF7D3FB092C09D14B4825
:101AF0000068D0F8B41049480068401CFFF7CEFEDB
:101B00008BE0082C24D145480068D0F8B80000B913
:101B100083E042480068D0F8B400401E3F4909689D
:101B2000C1F8B4003D480068D0F8B800401E3B49F9
:101B30000968C1F8B80040A0FEF7AAFB00213748A9
:101B40000068D0F8B82035480068401C815464E033
:101B50000D2C01D00A2C41D138A0FEF799FB2F485B
:101B60000068D0F8B40018B92DA0FEF791FB54E03E
:101B70002A480068401C29490968D1F8AC20274947
:101B80000968343141F8220024480068D0F8AC00DC
:101B9000401C22490968C1F8AC0020480068D0F810
:101BA000AC001E490968C1F8B0001C480068D0F8B4
:101BB000B4101A480068401CFFF7DAFE32211748BB
:101BC0000068401CFEF798FC002014490968C1F821
:101BD000B40012490968C1F8B8001EE00F48006857
:101BE000D0F8B4200D480068401C8454214614A04D
:101BF000FEF74EFB09480068D0F8B400401C0749C6
:101C00000968C1F8B40005480068D0F8B800401C65
:101C100002490968C1F8B80000BFF8E66C0000206E
:101C20006B79202F3E0000003100000032000000E0
:101C30002573000075700000082008000D0A0000E0
:101C40002563000010B509A0FEF722FB0DA0FEF7EA
:101C50001FFB12A0FEF71CFB16A0FEF719FB1BA032
:101C6000FEF716FB01A0FEF713FB10BD2D2D2D2D49
:101C70002D2D2D2D2D2D2D2D2D2D2D2D2D2D2D2D94
:101C80000D0A00007C20202020202077656C636FE7
:101C90006D6520202020207C0D0A00007C20202063
:101CA00020206B792D746872656164202020207C6F
:101CB0000D0A00007C2020202076657273696F6E0B
:101CC000202069732020207C0D0A00007C20202029
:101CD000202020202056312E302020202020207C43
:101CE0000D0A000000B500230E4A07210EA0FFF7E1
:101CF000D9F800230E4A05210EA0FFF7D3F80023E0
:101D00000E4A02210EA0FFF7CDF800230D4A06214E
:101D10000DA0FFF7C7F800230D4A04210DA0FFF71F
:101D2000C1F800BD3510000876657273696F6E00EA
:101D3000B50D0008636C656172000000ED0E0008CF
:101D400070730000051000087265626F6F74000008
:101D5000C90D000868656C700000000014E00120E7
:101D60000A49087001020A48FEF774FD0120FFF7D6
:101D7000D7FA0020054908704FF480710448FEF737
:101D800067FD0120FFF7CCFAE9E700000000002022
:101D9000000C014015E001200A49087080210A4822
:101DA000FEF758FD4FF4FA70FFF7B4FA002005492A
:101DB000087080210448FEF74BFD4FF4FA70FFF7DE
:101DC000A9FAE8E701000020000C014010B586B038
:101DD0000446012144F20400FEF778FD4FF4007040
:101DE000ADF8140003208DF8160018208DF81700A8
:101DF00005A91248FEF7A1FC4FF48060ADF814006D
:101E000004208DF8170005A90C48FEF796FC0194F4
:101E10000020ADF80800ADF80A00ADF80C00ADF8F0
:101E200010000C20ADF80E0001A90548FEF7FEFEDB
:101E300001210348FEF7B6FE06B010BD00080140C0
:101E4000003801400400000800000000000000020B
:101E50000001000010000000781E000800000020B3
:101E60007000000028010008E81E00087000002033
:101E700060210000440100080000000000A24A04A4
:101E8000000000000000000001020304060708092A
:101E90000000000001020304010203040607080910
:101EA000020406080000000000000000000000001E
:101EB0000000000000000000000000000000000022
:101EC0000000000000000000000000000000000012
:101ED0000000000000000000000000000000000002
:081EE00000000000B01A002010
:04000005080000ED02
:00000001FF
